{
  "contractName": "PlayBirdMansion",
  "abi": [
    {
      "inputs": [
        {
          "internalType": "address payable",
          "name": "_artist",
          "type": "address"
        },
        {
          "internalType": "address payable",
          "name": "_developer",
          "type": "address"
        },
        {
          "internalType": "address payable",
          "name": "_marketer",
          "type": "address"
        }
      ],
      "stateMutability": "nonpayable",
      "type": "constructor"
    },
    {
      "anonymous": false,
      "inputs": [
        {
          "indexed": true,
          "internalType": "address",
          "name": "owner",
          "type": "address"
        },
        {
          "indexed": true,
          "internalType": "address",
          "name": "approved",
          "type": "address"
        },
        {
          "indexed": true,
          "internalType": "uint256",
          "name": "tokenId",
          "type": "uint256"
        }
      ],
      "name": "Approval",
      "type": "event"
    },
    {
      "anonymous": false,
      "inputs": [
        {
          "indexed": true,
          "internalType": "address",
          "name": "owner",
          "type": "address"
        },
        {
          "indexed": true,
          "internalType": "address",
          "name": "operator",
          "type": "address"
        },
        {
          "indexed": false,
          "internalType": "bool",
          "name": "approved",
          "type": "bool"
        }
      ],
      "name": "ApprovalForAll",
      "type": "event"
    },
    {
      "anonymous": false,
      "inputs": [
        {
          "indexed": true,
          "internalType": "address",
          "name": "previousOwner",
          "type": "address"
        },
        {
          "indexed": true,
          "internalType": "address",
          "name": "newOwner",
          "type": "address"
        }
      ],
      "name": "OwnershipTransferred",
      "type": "event"
    },
    {
      "anonymous": false,
      "inputs": [
        {
          "indexed": true,
          "internalType": "address",
          "name": "from",
          "type": "address"
        },
        {
          "indexed": true,
          "internalType": "address",
          "name": "to",
          "type": "address"
        },
        {
          "indexed": true,
          "internalType": "uint256",
          "name": "tokenId",
          "type": "uint256"
        }
      ],
      "name": "Transfer",
      "type": "event"
    },
    {
      "inputs": [],
      "name": "MAX_BIRDS",
      "outputs": [
        {
          "internalType": "uint256",
          "name": "",
          "type": "uint256"
        }
      ],
      "stateMutability": "view",
      "type": "function",
      "constant": true
    },
    {
      "inputs": [
        {
          "internalType": "address",
          "name": "",
          "type": "address"
        }
      ],
      "name": "alreadyReferred",
      "outputs": [
        {
          "internalType": "bool",
          "name": "",
          "type": "bool"
        }
      ],
      "stateMutability": "view",
      "type": "function",
      "constant": true
    },
    {
      "inputs": [
        {
          "internalType": "address",
          "name": "to",
          "type": "address"
        },
        {
          "internalType": "uint256",
          "name": "tokenId",
          "type": "uint256"
        }
      ],
      "name": "approve",
      "outputs": [],
      "stateMutability": "nonpayable",
      "type": "function"
    },
    {
      "inputs": [
        {
          "internalType": "address",
          "name": "owner",
          "type": "address"
        }
      ],
      "name": "balanceOf",
      "outputs": [
        {
          "internalType": "uint256",
          "name": "",
          "type": "uint256"
        }
      ],
      "stateMutability": "view",
      "type": "function",
      "constant": true
    },
    {
      "inputs": [
        {
          "internalType": "uint256",
          "name": "tokenId",
          "type": "uint256"
        }
      ],
      "name": "getApproved",
      "outputs": [
        {
          "internalType": "address",
          "name": "",
          "type": "address"
        }
      ],
      "stateMutability": "view",
      "type": "function",
      "constant": true
    },
    {
      "inputs": [],
      "name": "maxBirdPurchase",
      "outputs": [
        {
          "internalType": "uint256",
          "name": "",
          "type": "uint256"
        }
      ],
      "stateMutability": "view",
      "type": "function",
      "constant": true
    },
    {
      "inputs": [],
      "name": "name",
      "outputs": [
        {
          "internalType": "string",
          "name": "",
          "type": "string"
        }
      ],
      "stateMutability": "view",
      "type": "function",
      "constant": true
    },
    {
      "inputs": [
        {
          "internalType": "address",
          "name": "",
          "type": "address"
        }
      ],
      "name": "numReferrals",
      "outputs": [
        {
          "internalType": "uint256",
          "name": "",
          "type": "uint256"
        }
      ],
      "stateMutability": "view",
      "type": "function",
      "constant": true
    },
    {
      "inputs": [],
      "name": "owner",
      "outputs": [
        {
          "internalType": "address",
          "name": "",
          "type": "address"
        }
      ],
      "stateMutability": "view",
      "type": "function",
      "constant": true
    },
    {
      "inputs": [
        {
          "internalType": "uint256",
          "name": "tokenId",
          "type": "uint256"
        }
      ],
      "name": "ownerOf",
      "outputs": [
        {
          "internalType": "address",
          "name": "",
          "type": "address"
        }
      ],
      "stateMutability": "view",
      "type": "function",
      "constant": true
    },
    {
      "inputs": [
        {
          "internalType": "address",
          "name": "",
          "type": "address"
        }
      ],
      "name": "referrableAddress",
      "outputs": [
        {
          "internalType": "bool",
          "name": "",
          "type": "bool"
        }
      ],
      "stateMutability": "view",
      "type": "function",
      "constant": true
    },
    {
      "inputs": [
        {
          "internalType": "address",
          "name": "",
          "type": "address"
        }
      ],
      "name": "referredToBefore",
      "outputs": [
        {
          "internalType": "bool",
          "name": "",
          "type": "bool"
        }
      ],
      "stateMutability": "view",
      "type": "function",
      "constant": true
    },
    {
      "inputs": [],
      "name": "renounceOwnership",
      "outputs": [],
      "stateMutability": "nonpayable",
      "type": "function"
    },
    {
      "inputs": [
        {
          "internalType": "address",
          "name": "from",
          "type": "address"
        },
        {
          "internalType": "address",
          "name": "to",
          "type": "address"
        },
        {
          "internalType": "uint256",
          "name": "tokenId",
          "type": "uint256"
        }
      ],
      "name": "safeTransferFrom",
      "outputs": [],
      "stateMutability": "nonpayable",
      "type": "function"
    },
    {
      "inputs": [
        {
          "internalType": "address",
          "name": "from",
          "type": "address"
        },
        {
          "internalType": "address",
          "name": "to",
          "type": "address"
        },
        {
          "internalType": "uint256",
          "name": "tokenId",
          "type": "uint256"
        },
        {
          "internalType": "bytes",
          "name": "_data",
          "type": "bytes"
        }
      ],
      "name": "safeTransferFrom",
      "outputs": [],
      "stateMutability": "nonpayable",
      "type": "function"
    },
    {
      "inputs": [],
      "name": "saleActive",
      "outputs": [
        {
          "internalType": "bool",
          "name": "",
          "type": "bool"
        }
      ],
      "stateMutability": "view",
      "type": "function",
      "constant": true
    },
    {
      "inputs": [
        {
          "internalType": "address",
          "name": "operator",
          "type": "address"
        },
        {
          "internalType": "bool",
          "name": "approved",
          "type": "bool"
        }
      ],
      "name": "setApprovalForAll",
      "outputs": [],
      "stateMutability": "nonpayable",
      "type": "function"
    },
    {
      "inputs": [
        {
          "internalType": "bytes4",
          "name": "interfaceId",
          "type": "bytes4"
        }
      ],
      "name": "supportsInterface",
      "outputs": [
        {
          "internalType": "bool",
          "name": "",
          "type": "bool"
        }
      ],
      "stateMutability": "view",
      "type": "function",
      "constant": true
    },
    {
      "inputs": [],
      "name": "symbol",
      "outputs": [
        {
          "internalType": "string",
          "name": "",
          "type": "string"
        }
      ],
      "stateMutability": "view",
      "type": "function",
      "constant": true
    },
    {
      "inputs": [
        {
          "internalType": "uint256",
          "name": "index",
          "type": "uint256"
        }
      ],
      "name": "tokenByIndex",
      "outputs": [
        {
          "internalType": "uint256",
          "name": "",
          "type": "uint256"
        }
      ],
      "stateMutability": "view",
      "type": "function",
      "constant": true
    },
    {
      "inputs": [
        {
          "internalType": "address",
          "name": "owner",
          "type": "address"
        },
        {
          "internalType": "uint256",
          "name": "index",
          "type": "uint256"
        }
      ],
      "name": "tokenOfOwnerByIndex",
      "outputs": [
        {
          "internalType": "uint256",
          "name": "",
          "type": "uint256"
        }
      ],
      "stateMutability": "view",
      "type": "function",
      "constant": true
    },
    {
      "inputs": [
        {
          "internalType": "uint256",
          "name": "tokenId",
          "type": "uint256"
        }
      ],
      "name": "tokenURI",
      "outputs": [
        {
          "internalType": "string",
          "name": "",
          "type": "string"
        }
      ],
      "stateMutability": "view",
      "type": "function",
      "constant": true
    },
    {
      "inputs": [],
      "name": "totalSupply",
      "outputs": [
        {
          "internalType": "uint256",
          "name": "",
          "type": "uint256"
        }
      ],
      "stateMutability": "view",
      "type": "function",
      "constant": true
    },
    {
      "inputs": [
        {
          "internalType": "address",
          "name": "from",
          "type": "address"
        },
        {
          "internalType": "address",
          "name": "to",
          "type": "address"
        },
        {
          "internalType": "uint256",
          "name": "tokenId",
          "type": "uint256"
        }
      ],
      "name": "transferFrom",
      "outputs": [],
      "stateMutability": "nonpayable",
      "type": "function"
    },
    {
      "inputs": [
        {
          "internalType": "address",
          "name": "newOwner",
          "type": "address"
        }
      ],
      "name": "transferOwnership",
      "outputs": [],
      "stateMutability": "nonpayable",
      "type": "function"
    },
    {
      "inputs": [],
      "name": "withdraw",
      "outputs": [],
      "stateMutability": "nonpayable",
      "type": "function"
    },
    {
      "inputs": [
        {
          "internalType": "string",
          "name": "newURI",
          "type": "string"
        }
      ],
      "name": "setBaseURI",
      "outputs": [],
      "stateMutability": "nonpayable",
      "type": "function"
    },
    {
      "inputs": [
        {
          "internalType": "uint256",
          "name": "amount",
          "type": "uint256"
        }
      ],
      "name": "reserveBirds",
      "outputs": [],
      "stateMutability": "nonpayable",
      "type": "function"
    },
    {
      "inputs": [],
      "name": "flipSaleState",
      "outputs": [],
      "stateMutability": "nonpayable",
      "type": "function"
    },
    {
      "inputs": [
        {
          "internalType": "uint256",
          "name": "numberOfBirds",
          "type": "uint256"
        }
      ],
      "name": "mintBird",
      "outputs": [],
      "stateMutability": "payable",
      "type": "function",
      "payable": true
    },
    {
      "inputs": [
        {
          "internalType": "uint256",
          "name": "numberOfBirds",
          "type": "uint256"
        },
        {
          "internalType": "address",
          "name": "referral",
          "type": "address"
        }
      ],
      "name": "mintBirdWithReferral",
      "outputs": [],
      "stateMutability": "payable",
      "type": "function",
      "payable": true
    },
    {
      "inputs": [
        {
          "internalType": "address",
          "name": "_owner",
          "type": "address"
        },
        {
          "internalType": "address",
          "name": "_operator",
          "type": "address"
        }
      ],
      "name": "isApprovedForAll",
      "outputs": [
        {
          "internalType": "bool",
          "name": "isOperator",
          "type": "bool"
        }
      ],
      "stateMutability": "view",
      "type": "function",
      "constant": true
    },
    {
      "inputs": [],
      "name": "getReferredAddressesLength",
      "outputs": [
        {
          "internalType": "uint256",
          "name": "",
          "type": "uint256"
        }
      ],
      "stateMutability": "view",
      "type": "function",
      "constant": true
    },
    {
      "inputs": [],
      "name": "getReferredAddresses",
      "outputs": [
        {
          "internalType": "address[]",
          "name": "",
          "type": "address[]"
        }
      ],
      "stateMutability": "view",
      "type": "function",
      "constant": true
    }
  ],
  "bytecode": "0x6080604052680410d586a20a4c0000600b55674563918244f40000600c556000600d60006101000a81548160ff0219169083151502179055506000601660006101000a81548160ff0219169083151502179055503480156200006057600080fd5b50604051620057fd380380620057fd83398181016040528101906200008691906200046e565b6040518060400160405280601181526020017f506c61792042697264204d616e73696f6e0000000000000000000000000000008152506040518060400160405280600381526020017f50424d000000000000000000000000000000000000000000000000000000000081525081600090805190602001906200010a929190620003a7565b50806001908051906020019062000123929190620003a7565b505050620001466200013a6200021260201b60201c565b6200022e60201b60201c565b82600d60016101000a81548173ffffffffffffffffffffffffffffffffffffffff021916908373ffffffffffffffffffffffffffffffffffffffff16021790555081600e60006101000a81548173ffffffffffffffffffffffffffffffffffffffff021916908373ffffffffffffffffffffffffffffffffffffffff16021790555080600f60006101000a81548173ffffffffffffffffffffffffffffffffffffffff021916908373ffffffffffffffffffffffffffffffffffffffff16021790555050505062000582565b600062000229620002f460201b620021451760201c565b905090565b6000600a60009054906101000a900473ffffffffffffffffffffffffffffffffffffffff16905081600a60006101000a81548173ffffffffffffffffffffffffffffffffffffffff021916908373ffffffffffffffffffffffffffffffffffffffff1602179055508173ffffffffffffffffffffffffffffffffffffffff168173ffffffffffffffffffffffffffffffffffffffff167f8be0079c531659141344cd1fd0a4f28419497f9722a3daafe3b4186f6b6457e060405160405180910390a35050565b60003073ffffffffffffffffffffffffffffffffffffffff163373ffffffffffffffffffffffffffffffffffffffff161415620003a057600080368080601f016020809104026020016040519081016040528093929190818152602001838380828437600081840152601f19601f820116905080830192505050505050509050600080369050905073ffffffffffffffffffffffffffffffffffffffff818301511692505050620003a4565b3390505b90565b828054620003b590620004fe565b90600052602060002090601f016020900481019282620003d9576000855562000425565b82601f10620003f457805160ff191683800117855562000425565b8280016001018555821562000425579182015b828111156200042457825182559160200191906001019062000407565b5b50905062000434919062000438565b5090565b5b808211156200045357600081600090555060010162000439565b5090565b600081519050620004688162000568565b92915050565b6000806000606084860312156200048a576200048962000563565b5b60006200049a8682870162000457565b9350506020620004ad8682870162000457565b9250506040620004c08682870162000457565b9150509250925092565b6000620004d782620004de565b9050919050565b600073ffffffffffffffffffffffffffffffffffffffff82169050919050565b600060028204905060018216806200051757607f821691505b602082108114156200052e576200052d62000534565b5b50919050565b7f4e487b7100000000000000000000000000000000000000000000000000000000600052602260045260246000fd5b600080fd5b6200057381620004ca565b81146200057f57600080fd5b50565b61526b80620005926000396000f3fe6080604052600436106101f95760003560e01c8063715018a61161010d578063c16024d1116100a0578063d3e864401161006f578063d3e8644014610738578063e4edb9d014610763578063e985e9c5146107a0578063f2fde38b146107dd578063ff46973e14610806576101f9565b8063c16024d114610689578063c6c528a2146106b4578063c87b56dd146106df578063d2dfa3c81461071c576101f9565b806395d89b41116100dc57806395d89b41146105cf5780639c9c20e7146105fa578063a22cb46514610637578063b88d4fde14610660576101f9565b8063715018a61461052757806385fe3ad21461053e57806389c18bf81461057b5780638da5cb5b146105a4576101f9565b806334918dfd116101905780634f6ccce71161015f5780634f6ccce71461041c57806355f804b3146104595780636352211e1461048257806368428a1b146104bf57806370a08231146104ea576101f9565b806334918dfd146103885780633578cec01461039f5780633ccfd60b146103dc57806342842e0e146103f3576101f9565b806318160ddd116101cc57806318160ddd146102cc5780631f73bf7f146102f757806323b872dd146103225780632f745c591461034b576101f9565b806301ffc9a7146101fe57806306fdde031461023b578063081812fc14610266578063095ea7b3146102a3575b600080fd5b34801561020a57600080fd5b5061022560048036038101906102209190613979565b610822565b60405161023291906140c8565b60405180910390f35b34801561024757600080fd5b5061025061089c565b60405161025d91906140e3565b60405180910390f35b34801561027257600080fd5b5061028d60048036038101906102889190613a1c565b61092e565b60405161029a919061403f565b60405180910390f35b3480156102af57600080fd5b506102ca60048036038101906102c59190613939565b6109b3565b005b3480156102d857600080fd5b506102e1610acb565b6040516102ee91906144e5565b60405180910390f35b34801561030357600080fd5b5061030c610ad8565b60405161031991906144e5565b60405180910390f35b34801561032e57600080fd5b5061034960048036038101906103449190613823565b610add565b005b34801561035757600080fd5b50610372600480360381019061036d9190613939565b610b3d565b60405161037f91906144e5565b60405180910390f35b34801561039457600080fd5b5061039d610be2565b005b3480156103ab57600080fd5b506103c660048036038101906103c191906137b6565b610c8a565b6040516103d391906140c8565b60405180910390f35b3480156103e857600080fd5b506103f1610caa565b005b3480156103ff57600080fd5b5061041a60048036038101906104159190613823565b610f2e565b005b34801561042857600080fd5b50610443600480360381019061043e9190613a1c565b610f4e565b60405161045091906144e5565b60405180910390f35b34801561046557600080fd5b50610480600480360381019061047b91906139d3565b610fbf565b005b34801561048e57600080fd5b506104a960048036038101906104a49190613a1c565b611055565b6040516104b6919061403f565b60405180910390f35b3480156104cb57600080fd5b506104d4611107565b6040516104e191906140c8565b60405180910390f35b3480156104f657600080fd5b50610511600480360381019061050c91906137b6565b61111a565b60405161051e91906144e5565b60405180910390f35b34801561053357600080fd5b5061053c6111d2565b005b34801561054a57600080fd5b50610565600480360381019061056091906137b6565b61125a565b60405161057291906140c8565b60405180910390f35b34801561058757600080fd5b506105a2600480360381019061059d9190613a1c565b61127a565b005b3480156105b057600080fd5b506105b9611426565b6040516105c6919061403f565b60405180910390f35b3480156105db57600080fd5b506105e4611450565b6040516105f191906140e3565b60405180910390f35b34801561060657600080fd5b50610621600480360381019061061c91906137b6565b6114e2565b60405161062e91906140c8565b60405180910390f35b34801561064357600080fd5b5061065e600480360381019061065991906138f9565b611502565b005b34801561066c57600080fd5b5061068760048036038101906106829190613876565b611683565b005b34801561069557600080fd5b5061069e6116e5565b6040516106ab91906140a6565b60405180910390f35b3480156106c057600080fd5b506106c96117f5565b6040516106d691906144e5565b60405180910390f35b3480156106eb57600080fd5b5061070660048036038101906107019190613a1c565b611884565b60405161071391906140e3565b60405180910390f35b61073660048036038101906107319190613a49565b61192b565b005b34801561074457600080fd5b5061074d611da2565b60405161075a91906144e5565b60405180910390f35b34801561076f57600080fd5b5061078a600480360381019061078591906137b6565b611da8565b60405161079791906144e5565b60405180910390f35b3480156107ac57600080fd5b506107c760048036038101906107c291906137e3565b611dc0565b6040516107d491906140c8565b60405180910390f35b3480156107e957600080fd5b5061080460048036038101906107ff91906137b6565b611e26565b005b610820600480360381019061081b9190613a1c565b611f1e565b005b60007f780e9d63000000000000000000000000000000000000000000000000000000007bffffffffffffffffffffffffffffffffffffffffffffffffffffffff1916827bffffffffffffffffffffffffffffffffffffffffffffffffffffffff191614806108955750610894826121f6565b5b9050919050565b6060600080546108ab906147ce565b80601f01602080910402602001604051908101604052809291908181526020018280546108d7906147ce565b80156109245780601f106108f957610100808354040283529160200191610924565b820191906000526020600020905b81548152906001019060200180831161090757829003601f168201915b5050505050905090565b6000610939826122d8565b610978576040517f08c379a000000000000000000000000000000000000000000000000000000000815260040161096f90614385565b60405180910390fd5b6004600083815260200190815260200160002060009054906101000a900473ffffffffffffffffffffffffffffffffffffffff169050919050565b60006109be82611055565b90508073ffffffffffffffffffffffffffffffffffffffff168373ffffffffffffffffffffffffffffffffffffffff161415610a2f576040517f08c379a0000000000000000000000000000000000000000000000000000000008152600401610a2690614445565b60405180910390fd5b8073ffffffffffffffffffffffffffffffffffffffff16610a4e612344565b73ffffffffffffffffffffffffffffffffffffffff161480610a7d5750610a7c81610a77612344565b611dc0565b5b610abc576040517f08c379a0000000000000000000000000000000000000000000000000000000008152600401610ab3906142e5565b60405180910390fd5b610ac68383612353565b505050565b6000600880549050905090565b601481565b610aee610ae8612344565b8261240c565b610b2d576040517f08c379a0000000000000000000000000000000000000000000000000000000008152600401610b2490614485565b60405180910390fd5b610b388383836124ea565b505050565b6000610b488361111a565b8210610b89576040517f08c379a0000000000000000000000000000000000000000000000000000000008152600401610b8090614125565b60405180910390fd5b600660008473ffffffffffffffffffffffffffffffffffffffff1673ffffffffffffffffffffffffffffffffffffffff168152602001908152602001600020600083815260200190815260200160002054905092915050565b610bea612344565b73ffffffffffffffffffffffffffffffffffffffff16610c08611426565b73ffffffffffffffffffffffffffffffffffffffff1614610c5e576040517f08c379a0000000000000000000000000000000000000000000000000000000008152600401610c55906143a5565b60405180910390fd5b600d60009054906101000a900460ff1615600d60006101000a81548160ff021916908315150217905550565b60136020528060005260406000206000915054906101000a900460ff1681565b610cb2612344565b73ffffffffffffffffffffffffffffffffffffffff16610cd0611426565b73ffffffffffffffffffffffffffffffffffffffff1614610d26576040517f08c379a0000000000000000000000000000000000000000000000000000000008152600401610d1d906143a5565b60405180910390fd5b601660009054906101000a900460ff1615610d4057600080fd5b6001601660006101000a81548160ff021916908315150217905550600047905060008111610da3576040517f08c379a0000000000000000000000000000000000000000000000000000000008152600401610d9a90614105565b60405180910390fd5b6000600a82610db29190614659565b9050600f60009054906101000a900473ffffffffffffffffffffffffffffffffffffffff1673ffffffffffffffffffffffffffffffffffffffff166108fc829081150290604051600060405180830381858888f19350505050158015610e1c573d6000803e3d6000fd5b508082610e2991906146e4565b91506000600283610e3a9190614659565b9050600d60019054906101000a900473ffffffffffffffffffffffffffffffffffffffff1673ffffffffffffffffffffffffffffffffffffffff166108fc829081150290604051600060405180830381858888f19350505050158015610ea4573d6000803e3d6000fd5b50600e60009054906101000a900473ffffffffffffffffffffffffffffffffffffffff1673ffffffffffffffffffffffffffffffffffffffff166108fc829081150290604051600060405180830381858888f19350505050158015610f0d573d6000803e3d6000fd5b505050506000601660006101000a81548160ff021916908315150217905550565b610f4983838360405180602001604052806000815250611683565b505050565b6000610f58610acb565b8210610f99576040517f08c379a0000000000000000000000000000000000000000000000000000000008152600401610f90906144a5565b60405180910390fd5b60088281548110610fad57610fac614967565b5b90600052602060002001549050919050565b610fc7612344565b73ffffffffffffffffffffffffffffffffffffffff16610fe5611426565b73ffffffffffffffffffffffffffffffffffffffff161461103b576040517f08c379a0000000000000000000000000000000000000000000000000000000008152600401611032906143a5565b60405180910390fd5b80601090805190602001906110519291906135ca565b5050565b6000806002600084815260200190815260200160002060009054906101000a900473ffffffffffffffffffffffffffffffffffffffff169050600073ffffffffffffffffffffffffffffffffffffffff168173ffffffffffffffffffffffffffffffffffffffff1614156110fe576040517f08c379a00000000000000000000000000000000000000000000000000000000081526004016110f590614325565b60405180910390fd5b80915050919050565b600d60009054906101000a900460ff1681565b60008073ffffffffffffffffffffffffffffffffffffffff168273ffffffffffffffffffffffffffffffffffffffff16141561118b576040517f08c379a000000000000000000000000000000000000000000000000000000000815260040161118290614305565b60405180910390fd5b600360008373ffffffffffffffffffffffffffffffffffffffff1673ffffffffffffffffffffffffffffffffffffffff168152602001908152602001600020549050919050565b6111da612344565b73ffffffffffffffffffffffffffffffffffffffff166111f8611426565b73ffffffffffffffffffffffffffffffffffffffff161461124e576040517f08c379a0000000000000000000000000000000000000000000000000000000008152600401611245906143a5565b60405180910390fd5b6112586000612746565b565b60126020528060005260406000206000915054906101000a900460ff1681565b611282612344565b73ffffffffffffffffffffffffffffffffffffffff166112a0611426565b73ffffffffffffffffffffffffffffffffffffffff16146112f6576040517f08c379a00000000000000000000000000000000000000000000000000000000081526004016112ed906143a5565b60405180910390fd5b601660009054906101000a900460ff161561131057600080fd5b6001601660006101000a81548160ff021916908315150217905550611b3981611337610acb565b6113419190614603565b1115611382576040517f08c379a0000000000000000000000000000000000000000000000000000000008152600401611379906144c5565b60405180910390fd5b60148111156113c6576040517f08c379a00000000000000000000000000000000000000000000000000000000081526004016113bd90614365565b60405180910390fd5b60005b818110156114075760006113db610acb565b90506113f3336001836113ee9190614603565b61280c565b5080806113ff90614831565b9150506113c9565b506000601660006101000a81548160ff02191690831515021790555050565b6000600a60009054906101000a900473ffffffffffffffffffffffffffffffffffffffff16905090565b60606001805461145f906147ce565b80601f016020809104026020016040519081016040528092919081815260200182805461148b906147ce565b80156114d85780601f106114ad576101008083540402835291602001916114d8565b820191906000526020600020905b8154815290600101906020018083116114bb57829003601f168201915b5050505050905090565b60116020528060005260406000206000915054906101000a900460ff1681565b61150a612344565b73ffffffffffffffffffffffffffffffffffffffff168273ffffffffffffffffffffffffffffffffffffffff161415611578576040517f08c379a000000000000000000000000000000000000000000000000000000000815260040161156f90614245565b60405180910390fd5b8060056000611585612344565b73ffffffffffffffffffffffffffffffffffffffff1673ffffffffffffffffffffffffffffffffffffffff16815260200190815260200160002060008473ffffffffffffffffffffffffffffffffffffffff1673ffffffffffffffffffffffffffffffffffffffff16815260200190815260200160002060006101000a81548160ff0219169083151502179055508173ffffffffffffffffffffffffffffffffffffffff16611632612344565b73ffffffffffffffffffffffffffffffffffffffff167f17307eab39ab6107e8899845ad3d59bd9653f200f220920489ca2b5937696c318360405161167791906140c8565b60405180910390a35050565b61169461168e612344565b8361240c565b6116d3576040517f08c379a00000000000000000000000000000000000000000000000000000000081526004016116ca90614485565b60405180910390fd5b6116df8484848461282a565b50505050565b60606116ef612344565b73ffffffffffffffffffffffffffffffffffffffff1661170d611426565b73ffffffffffffffffffffffffffffffffffffffff1614611763576040517f08c379a000000000000000000000000000000000000000000000000000000000815260040161175a906143a5565b60405180910390fd5b600060159050808054806020026020016040519081016040528092919081815260200182805480156117ea57602002820191906000526020600020905b8160009054906101000a900473ffffffffffffffffffffffffffffffffffffffff1673ffffffffffffffffffffffffffffffffffffffff16815260200190600101908083116117a0575b505050505091505090565b60006117ff612344565b73ffffffffffffffffffffffffffffffffffffffff1661181d611426565b73ffffffffffffffffffffffffffffffffffffffff1614611873576040517f08c379a000000000000000000000000000000000000000000000000000000000815260040161186a906143a5565b60405180910390fd5b600060158054905090508091505090565b606061188f826122d8565b6118ce576040517f08c379a00000000000000000000000000000000000000000000000000000000081526004016118c5906143e5565b60405180910390fd5b60006118d8612886565b905060008151116118f85760405180602001604052806000815250611923565b8061190284612918565b60405160200161191392919061401b565b6040516020818303038152906040525b915050919050565b601660009054906101000a900460ff161561194557600080fd5b6001601660006101000a81548160ff021916908315150217905550600d60009054906101000a900460ff166119af576040517f08c379a00000000000000000000000000000000000000000000000000000000081526004016119a690614285565b60405180910390fd5b60148211156119f3576040517f08c379a00000000000000000000000000000000000000000000000000000000081526004016119ea90614405565b60405180910390fd5b611b39826119ff610acb565b611a099190614603565b1115611a4a576040517f08c379a0000000000000000000000000000000000000000000000000000000008152600401611a4190614425565b60405180910390fd5b611a5381612a79565b611a92576040517f08c379a0000000000000000000000000000000000000000000000000000000008152600401611a89906141a5565b60405180910390fd5b6000600c54600b54611aa491906146e4565b9050348382611ab3919061468a565b1115611af4576040517f08c379a0000000000000000000000000000000000000000000000000000000008152600401611aeb90614205565b60405180910390fd5b601360008373ffffffffffffffffffffffffffffffffffffffff1673ffffffffffffffffffffffffffffffffffffffff16815260200190815260200160002060009054906101000a900460ff16611c59576001601360008473ffffffffffffffffffffffffffffffffffffffff1673ffffffffffffffffffffffffffffffffffffffff16815260200190815260200160002060006101000a81548160ff0219169083151502179055506001601260008473ffffffffffffffffffffffffffffffffffffffff1673ffffffffffffffffffffffffffffffffffffffff16815260200190815260200160002060006101000a81548160ff0219169083151502179055506015829080600181540180825580915050600190039060005260206000200160009091909190916101000a81548173ffffffffffffffffffffffffffffffffffffffff021916908373ffffffffffffffffffffffffffffffffffffffff1602179055505b6001601160003373ffffffffffffffffffffffffffffffffffffffff1673ffffffffffffffffffffffffffffffffffffffff16815260200190815260200160002060006101000a81548160ff0219169083151502179055506001601460008473ffffffffffffffffffffffffffffffffffffffff1673ffffffffffffffffffffffffffffffffffffffff16815260200190815260200160002054611cfd9190614603565b601460008473ffffffffffffffffffffffffffffffffffffffff1673ffffffffffffffffffffffffffffffffffffffff1681526020019081526020016000208190555060005b83811015611d81576000611d55610acb565b9050611d6d33600183611d689190614603565b61280c565b508080611d7990614831565b915050611d43565b50506000601660006101000a81548160ff0219169083151502179055505050565b611b3981565b60146020528060005260406000206000915090505481565b60007358807bad0b376efc12f5ad86aac70e78ed67deae73ffffffffffffffffffffffffffffffffffffffff168273ffffffffffffffffffffffffffffffffffffffff161415611e135760019050611e20565b611e1d8383612c67565b90505b92915050565b611e2e612344565b73ffffffffffffffffffffffffffffffffffffffff16611e4c611426565b73ffffffffffffffffffffffffffffffffffffffff1614611ea2576040517f08c379a0000000000000000000000000000000000000000000000000000000008152600401611e99906143a5565b60405180910390fd5b600073ffffffffffffffffffffffffffffffffffffffff168173ffffffffffffffffffffffffffffffffffffffff161415611f12576040517f08c379a0000000000000000000000000000000000000000000000000000000008152600401611f0990614165565b60405180910390fd5b611f1b81612746565b50565b601660009054906101000a900460ff1615611f3857600080fd5b6001601660006101000a81548160ff021916908315150217905550600d60009054906101000a900460ff16611fa2576040517f08c379a0000000000000000000000000000000000000000000000000000000008152600401611f9990614285565b60405180910390fd5b6014811115611fe6576040517f08c379a0000000000000000000000000000000000000000000000000000000008152600401611fdd90614405565b60405180910390fd5b611b3981611ff2610acb565b611ffc9190614603565b111561203d576040517f08c379a000000000000000000000000000000000000000000000000000000000815260040161203490614425565b60405180910390fd5b3481600b5461204c919061468a565b111561208d576040517f08c379a000000000000000000000000000000000000000000000000000000000815260040161208490614265565b60405180910390fd5b6001601260003373ffffffffffffffffffffffffffffffffffffffff1673ffffffffffffffffffffffffffffffffffffffff16815260200190815260200160002060006101000a81548160ff02191690831515021790555060005b818110156121265760006120fa610acb565b90506121123360018361210d9190614603565b61280c565b50808061211e90614831565b9150506120e8565b506000601660006101000a81548160ff02191690831515021790555050565b60003073ffffffffffffffffffffffffffffffffffffffff163373ffffffffffffffffffffffffffffffffffffffff1614156121ef57600080368080601f016020809104026020016040519081016040528093929190818152602001838380828437600081840152601f19601f820116905080830192505050505050509050600080369050905073ffffffffffffffffffffffffffffffffffffffff8183015116925050506121f3565b3390505b90565b60007f80ac58cd000000000000000000000000000000000000000000000000000000007bffffffffffffffffffffffffffffffffffffffffffffffffffffffff1916827bffffffffffffffffffffffffffffffffffffffffffffffffffffffff191614806122c157507f5b5e139f000000000000000000000000000000000000000000000000000000007bffffffffffffffffffffffffffffffffffffffffffffffffffffffff1916827bffffffffffffffffffffffffffffffffffffffffffffffffffffffff1916145b806122d157506122d082612cfb565b5b9050919050565b60008073ffffffffffffffffffffffffffffffffffffffff166002600084815260200190815260200160002060009054906101000a900473ffffffffffffffffffffffffffffffffffffffff1673ffffffffffffffffffffffffffffffffffffffff1614159050919050565b600061234e612145565b905090565b816004600083815260200190815260200160002060006101000a81548173ffffffffffffffffffffffffffffffffffffffff021916908373ffffffffffffffffffffffffffffffffffffffff160217905550808273ffffffffffffffffffffffffffffffffffffffff166123c683611055565b73ffffffffffffffffffffffffffffffffffffffff167f8c5be1e5ebec7d5bd14f71427d1e84f3dd0314c0f7b2291e5b200ac8c7c3b92560405160405180910390a45050565b6000612417826122d8565b612456576040517f08c379a000000000000000000000000000000000000000000000000000000000815260040161244d906142a5565b60405180910390fd5b600061246183611055565b90508073ffffffffffffffffffffffffffffffffffffffff168473ffffffffffffffffffffffffffffffffffffffff1614806124d057508373ffffffffffffffffffffffffffffffffffffffff166124b88461092e565b73ffffffffffffffffffffffffffffffffffffffff16145b806124e157506124e08185611dc0565b5b91505092915050565b8273ffffffffffffffffffffffffffffffffffffffff1661250a82611055565b73ffffffffffffffffffffffffffffffffffffffff1614612560576040517f08c379a0000000000000000000000000000000000000000000000000000000008152600401612557906143c5565b60405180910390fd5b600073ffffffffffffffffffffffffffffffffffffffff168273ffffffffffffffffffffffffffffffffffffffff1614156125d0576040517f08c379a00000000000000000000000000000000000000000000000000000000081526004016125c790614225565b60405180910390fd5b6125db838383612d65565b6125e6600082612353565b6001600360008573ffffffffffffffffffffffffffffffffffffffff1673ffffffffffffffffffffffffffffffffffffffff168152602001908152602001600020600082825461263691906146e4565b925050819055506001600360008473ffffffffffffffffffffffffffffffffffffffff1673ffffffffffffffffffffffffffffffffffffffff168152602001908152602001600020600082825461268d9190614603565b92505081905550816002600083815260200190815260200160002060006101000a81548173ffffffffffffffffffffffffffffffffffffffff021916908373ffffffffffffffffffffffffffffffffffffffff160217905550808273ffffffffffffffffffffffffffffffffffffffff168473ffffffffffffffffffffffffffffffffffffffff167fddf252ad1be2c89b69c2b068fc378daa952ba7f163c4a11628f55a4df523b3ef60405160405180910390a4505050565b6000600a60009054906101000a900473ffffffffffffffffffffffffffffffffffffffff16905081600a60006101000a81548173ffffffffffffffffffffffffffffffffffffffff021916908373ffffffffffffffffffffffffffffffffffffffff1602179055508173ffffffffffffffffffffffffffffffffffffffff168173ffffffffffffffffffffffffffffffffffffffff167f8be0079c531659141344cd1fd0a4f28419497f9722a3daafe3b4186f6b6457e060405160405180910390a35050565b612826828260405180602001604052806000815250612e79565b5050565b6128358484846124ea565b61284184848484612ed4565b612880576040517f08c379a000000000000000000000000000000000000000000000000000000000815260040161287790614145565b60405180910390fd5b50505050565b606060108054612895906147ce565b80601f01602080910402602001604051908101604052809291908181526020018280546128c1906147ce565b801561290e5780601f106128e35761010080835404028352916020019161290e565b820191906000526020600020905b8154815290600101906020018083116128f157829003601f168201915b5050505050905090565b60606000821415612960576040518060400160405280600181526020017f30000000000000000000000000000000000000000000000000000000000000008152509050612a74565b600082905060005b6000821461299257808061297b90614831565b915050600a8261298b9190614659565b9150612968565b60008167ffffffffffffffff8111156129ae576129ad614996565b5b6040519080825280601f01601f1916602001820160405280156129e05781602001600182028036833780820191505090505b5090505b60008514612a6d576001826129f991906146e4565b9150600a85612a08919061487a565b6030612a149190614603565b60f81b818381518110612a2a57612a29614967565b5b60200101907effffffffffffffffffffffffffffffffffffffffffffffffffffffffffffff1916908160001a905350600a85612a669190614659565b94506129e4565b8093505050505b919050565b6000612a848261306b565b612ac3576040517f08c379a0000000000000000000000000000000000000000000000000000000008152600401612aba90614185565b60405180910390fd5b3373ffffffffffffffffffffffffffffffffffffffff168273ffffffffffffffffffffffffffffffffffffffff161415612b32576040517f08c379a0000000000000000000000000000000000000000000000000000000008152600401612b29906142c5565b60405180910390fd5b601160003373ffffffffffffffffffffffffffffffffffffffff1673ffffffffffffffffffffffffffffffffffffffff16815260200190815260200160002060009054906101000a900460ff1615612bbf576040517f08c379a0000000000000000000000000000000000000000000000000000000008152600401612bb6906141e5565b60405180910390fd5b6000612bca8361111a565b1180612c1f5750601260008373ffffffffffffffffffffffffffffffffffffffff1673ffffffffffffffffffffffffffffffffffffffff16815260200190815260200160002060009054906101000a900460ff165b612c5e576040517f08c379a0000000000000000000000000000000000000000000000000000000008152600401612c5590614465565b60405180910390fd5b60019050919050565b6000600560008473ffffffffffffffffffffffffffffffffffffffff1673ffffffffffffffffffffffffffffffffffffffff16815260200190815260200160002060008373ffffffffffffffffffffffffffffffffffffffff1673ffffffffffffffffffffffffffffffffffffffff16815260200190815260200160002060009054906101000a900460ff16905092915050565b60007f01ffc9a7000000000000000000000000000000000000000000000000000000007bffffffffffffffffffffffffffffffffffffffffffffffffffffffff1916827bffffffffffffffffffffffffffffffffffffffffffffffffffffffff1916149050919050565b612d708383836130de565b600073ffffffffffffffffffffffffffffffffffffffff168373ffffffffffffffffffffffffffffffffffffffff161415612db357612dae816130e3565b612df2565b8173ffffffffffffffffffffffffffffffffffffffff168373ffffffffffffffffffffffffffffffffffffffff1614612df157612df0838261312c565b5b5b600073ffffffffffffffffffffffffffffffffffffffff168273ffffffffffffffffffffffffffffffffffffffff161415612e3557612e3081613299565b612e74565b8273ffffffffffffffffffffffffffffffffffffffff168273ffffffffffffffffffffffffffffffffffffffff1614612e7357612e72828261336a565b5b5b505050565b612e8383836133e9565b612e906000848484612ed4565b612ecf576040517f08c379a0000000000000000000000000000000000000000000000000000000008152600401612ec690614145565b60405180910390fd5b505050565b6000612ef58473ffffffffffffffffffffffffffffffffffffffff166135b7565b1561305e578373ffffffffffffffffffffffffffffffffffffffff1663150b7a02612f1e612344565b8786866040518563ffffffff1660e01b8152600401612f40949392919061405a565b602060405180830381600087803b158015612f5a57600080fd5b505af1925050508015612f8b57506040513d601f19601f82011682018060405250810190612f8891906139a6565b60015b61300e573d8060008114612fbb576040519150601f19603f3d011682016040523d82523d6000602084013e612fc0565b606091505b50600081511415613006576040517f08c379a0000000000000000000000000000000000000000000000000000000008152600401612ffd90614145565b60405180910390fd5b805181602001fd5b63150b7a0260e01b7bffffffffffffffffffffffffffffffffffffffffffffffffffffffff1916817bffffffffffffffffffffffffffffffffffffffffffffffffffffffff191614915050613063565b600190505b949350505050565b600061308c8273ffffffffffffffffffffffffffffffffffffffff166135b7565b1580156130c65750600073ffffffffffffffffffffffffffffffffffffffff168273ffffffffffffffffffffffffffffffffffffffff1614155b156130d457600190506130d9565b600090505b919050565b505050565b6008805490506009600083815260200190815260200160002081905550600881908060018154018082558091505060019003906000526020600020016000909190919091505550565b600060016131398461111a565b61314391906146e4565b9050600060076000848152602001908152602001600020549050818114613228576000600660008673ffffffffffffffffffffffffffffffffffffffff1673ffffffffffffffffffffffffffffffffffffffff168152602001908152602001600020600084815260200190815260200160002054905080600660008773ffffffffffffffffffffffffffffffffffffffff1673ffffffffffffffffffffffffffffffffffffffff168152602001908152602001600020600084815260200190815260200160002081905550816007600083815260200190815260200160002081905550505b6007600084815260200190815260200160002060009055600660008573ffffffffffffffffffffffffffffffffffffffff1673ffffffffffffffffffffffffffffffffffffffff16815260200190815260200160002060008381526020019081526020016000206000905550505050565b600060016008805490506132ad91906146e4565b90506000600960008481526020019081526020016000205490506000600883815481106132dd576132dc614967565b5b9060005260206000200154905080600883815481106132ff576132fe614967565b5b90600052602060002001819055508160096000838152602001908152602001600020819055506009600085815260200190815260200160002060009055600880548061334e5761334d614938565b5b6001900381819060005260206000200160009055905550505050565b60006133758361111a565b905081600660008573ffffffffffffffffffffffffffffffffffffffff1673ffffffffffffffffffffffffffffffffffffffff168152602001908152602001600020600083815260200190815260200160002081905550806007600084815260200190815260200160002081905550505050565b600073ffffffffffffffffffffffffffffffffffffffff168273ffffffffffffffffffffffffffffffffffffffff161415613459576040517f08c379a000000000000000000000000000000000000000000000000000000000815260040161345090614345565b60405180910390fd5b613462816122d8565b156134a2576040517f08c379a0000000000000000000000000000000000000000000000000000000008152600401613499906141c5565b60405180910390fd5b6134ae60008383612d65565b6001600360008473ffffffffffffffffffffffffffffffffffffffff1673ffffffffffffffffffffffffffffffffffffffff16815260200190815260200160002060008282546134fe9190614603565b92505081905550816002600083815260200190815260200160002060006101000a81548173ffffffffffffffffffffffffffffffffffffffff021916908373ffffffffffffffffffffffffffffffffffffffff160217905550808273ffffffffffffffffffffffffffffffffffffffff16600073ffffffffffffffffffffffffffffffffffffffff167fddf252ad1be2c89b69c2b068fc378daa952ba7f163c4a11628f55a4df523b3ef60405160405180910390a45050565b600080823b905060008111915050919050565b8280546135d6906147ce565b90600052602060002090601f0160209004810192826135f8576000855561363f565b82601f1061361157805160ff191683800117855561363f565b8280016001018555821561363f579182015b8281111561363e578251825591602001919060010190613623565b5b50905061364c9190613650565b5090565b5b80821115613669576000816000905550600101613651565b5090565b600061368061367b84614525565b614500565b90508281526020810184848401111561369c5761369b6149ca565b5b6136a784828561478c565b509392505050565b60006136c26136bd84614556565b614500565b9050828152602081018484840111156136de576136dd6149ca565b5b6136e984828561478c565b509392505050565b600081359050613700816151d9565b92915050565b600081359050613715816151f0565b92915050565b60008135905061372a81615207565b92915050565b60008151905061373f81615207565b92915050565b600082601f83011261375a576137596149c5565b5b813561376a84826020860161366d565b91505092915050565b600082601f830112613788576137876149c5565b5b81356137988482602086016136af565b91505092915050565b6000813590506137b08161521e565b92915050565b6000602082840312156137cc576137cb6149d4565b5b60006137da848285016136f1565b91505092915050565b600080604083850312156137fa576137f96149d4565b5b6000613808858286016136f1565b9250506020613819858286016136f1565b9150509250929050565b60008060006060848603121561383c5761383b6149d4565b5b600061384a868287016136f1565b935050602061385b868287016136f1565b925050604061386c868287016137a1565b9150509250925092565b600080600080608085870312156138905761388f6149d4565b5b600061389e878288016136f1565b94505060206138af878288016136f1565b93505060406138c0878288016137a1565b925050606085013567ffffffffffffffff8111156138e1576138e06149cf565b5b6138ed87828801613745565b91505092959194509250565b600080604083850312156139105761390f6149d4565b5b600061391e858286016136f1565b925050602061392f85828601613706565b9150509250929050565b600080604083850312156139505761394f6149d4565b5b600061395e858286016136f1565b925050602061396f858286016137a1565b9150509250929050565b60006020828403121561398f5761398e6149d4565b5b600061399d8482850161371b565b91505092915050565b6000602082840312156139bc576139bb6149d4565b5b60006139ca84828501613730565b91505092915050565b6000602082840312156139e9576139e86149d4565b5b600082013567ffffffffffffffff811115613a0757613a066149cf565b5b613a1384828501613773565b91505092915050565b600060208284031215613a3257613a316149d4565b5b6000613a40848285016137a1565b91505092915050565b60008060408385031215613a6057613a5f6149d4565b5b6000613a6e858286016137a1565b9250506020613a7f858286016136f1565b9150509250929050565b6000613a958383613aa1565b60208301905092915050565b613aaa81614718565b82525050565b613ab981614718565b82525050565b6000613aca82614597565b613ad481856145c5565b9350613adf83614587565b8060005b83811015613b10578151613af78882613a89565b9750613b02836145b8565b925050600181019050613ae3565b5085935050505092915050565b613b268161472a565b82525050565b6000613b37826145a2565b613b4181856145d6565b9350613b5181856020860161479b565b613b5a816149d9565b840191505092915050565b6000613b70826145ad565b613b7a81856145e7565b9350613b8a81856020860161479b565b613b93816149d9565b840191505092915050565b6000613ba9826145ad565b613bb381856145f8565b9350613bc381856020860161479b565b80840191505092915050565b6000613bdc6018836145e7565b9150613be7826149ea565b602082019050919050565b6000613bff602b836145e7565b9150613c0a82614a13565b604082019050919050565b6000613c226032836145e7565b9150613c2d82614a62565b604082019050919050565b6000613c456026836145e7565b9150613c5082614ab1565b604082019050919050565b6000613c68602e836145e7565b9150613c7382614b00565b604082019050919050565b6000613c8b6017836145e7565b9150613c9682614b4f565b602082019050919050565b6000613cae601c836145e7565b9150613cb982614b78565b602082019050919050565b6000613cd1601e836145e7565b9150613cdc82614ba1565b602082019050919050565b6000613cf4601d836145e7565b9150613cff82614bca565b602082019050919050565b6000613d176024836145e7565b9150613d2282614bf3565b604082019050919050565b6000613d3a6019836145e7565b9150613d4582614c42565b602082019050919050565b6000613d5d601d836145e7565b9150613d6882614c6b565b602082019050919050565b6000613d806012836145e7565b9150613d8b82614c94565b602082019050919050565b6000613da3602c836145e7565b9150613dae82614cbd565b604082019050919050565b6000613dc66011836145e7565b9150613dd182614d0c565b602082019050919050565b6000613de96038836145e7565b9150613df482614d35565b604082019050919050565b6000613e0c602a836145e7565b9150613e1782614d84565b604082019050919050565b6000613e2f6029836145e7565b9150613e3a82614dd3565b604082019050919050565b6000613e526020836145e7565b9150613e5d82614e22565b602082019050919050565b6000613e756024836145e7565b9150613e8082614e4b565b604082019050919050565b6000613e98602c836145e7565b9150613ea382614e9a565b604082019050919050565b6000613ebb6020836145e7565b9150613ec682614ee9565b602082019050919050565b6000613ede6029836145e7565b9150613ee982614f12565b604082019050919050565b6000613f01602f836145e7565b9150613f0c82614f61565b604082019050919050565b6000613f246020836145e7565b9150613f2f82614fb0565b602082019050919050565b6000613f476029836145e7565b9150613f5282614fd9565b604082019050919050565b6000613f6a6021836145e7565b9150613f7582615028565b604082019050919050565b6000613f8d6041836145e7565b9150613f9882615077565b606082019050919050565b6000613fb06031836145e7565b9150613fbb826150ec565b604082019050919050565b6000613fd3602c836145e7565b9150613fde8261513b565b604082019050919050565b6000613ff66023836145e7565b91506140018261518a565b604082019050919050565b61401581614782565b82525050565b60006140278285613b9e565b91506140338284613b9e565b91508190509392505050565b60006020820190506140546000830184613ab0565b92915050565b600060808201905061406f6000830187613ab0565b61407c6020830186613ab0565b614089604083018561400c565b818103606083015261409b8184613b2c565b905095945050505050565b600060208201905081810360008301526140c08184613abf565b905092915050565b60006020820190506140dd6000830184613b1d565b92915050565b600060208201905081810360008301526140fd8184613b65565b905092915050565b6000602082019050818103600083015261411e81613bcf565b9050919050565b6000602082019050818103600083015261413e81613bf2565b9050919050565b6000602082019050818103600083015261415e81613c15565b9050919050565b6000602082019050818103600083015261417e81613c38565b9050919050565b6000602082019050818103600083015261419e81613c5b565b9050919050565b600060208201905081810360008301526141be81613c7e565b9050919050565b600060208201905081810360008301526141de81613ca1565b9050919050565b600060208201905081810360008301526141fe81613cc4565b9050919050565b6000602082019050818103600083015261421e81613ce7565b9050919050565b6000602082019050818103600083015261423e81613d0a565b9050919050565b6000602082019050818103600083015261425e81613d2d565b9050919050565b6000602082019050818103600083015261427e81613d50565b9050919050565b6000602082019050818103600083015261429e81613d73565b9050919050565b600060208201905081810360008301526142be81613d96565b9050919050565b600060208201905081810360008301526142de81613db9565b9050919050565b600060208201905081810360008301526142fe81613ddc565b9050919050565b6000602082019050818103600083015261431e81613dff565b9050919050565b6000602082019050818103600083015261433e81613e22565b9050919050565b6000602082019050818103600083015261435e81613e45565b9050919050565b6000602082019050818103600083015261437e81613e68565b9050919050565b6000602082019050818103600083015261439e81613e8b565b9050919050565b600060208201905081810360008301526143be81613eae565b9050919050565b600060208201905081810360008301526143de81613ed1565b9050919050565b600060208201905081810360008301526143fe81613ef4565b9050919050565b6000602082019050818103600083015261441e81613f17565b9050919050565b6000602082019050818103600083015261443e81613f3a565b9050919050565b6000602082019050818103600083015261445e81613f5d565b9050919050565b6000602082019050818103600083015261447e81613f80565b9050919050565b6000602082019050818103600083015261449e81613fa3565b9050919050565b600060208201905081810360008301526144be81613fc6565b9050919050565b600060208201905081810360008301526144de81613fe9565b9050919050565b60006020820190506144fa600083018461400c565b92915050565b600061450a61451b565b90506145168282614800565b919050565b6000604051905090565b600067ffffffffffffffff8211156145405761453f614996565b5b614549826149d9565b9050602081019050919050565b600067ffffffffffffffff82111561457157614570614996565b5b61457a826149d9565b9050602081019050919050565b6000819050602082019050919050565b600081519050919050565b600081519050919050565b600081519050919050565b6000602082019050919050565b600082825260208201905092915050565b600082825260208201905092915050565b600082825260208201905092915050565b600081905092915050565b600061460e82614782565b915061461983614782565b9250827fffffffffffffffffffffffffffffffffffffffffffffffffffffffffffffffff0382111561464e5761464d6148ab565b5b828201905092915050565b600061466482614782565b915061466f83614782565b92508261467f5761467e6148da565b5b828204905092915050565b600061469582614782565b91506146a083614782565b9250817fffffffffffffffffffffffffffffffffffffffffffffffffffffffffffffffff04831182151516156146d9576146d86148ab565b5b828202905092915050565b60006146ef82614782565b91506146fa83614782565b92508282101561470d5761470c6148ab565b5b828203905092915050565b600061472382614762565b9050919050565b60008115159050919050565b60007fffffffff0000000000000000000000000000000000000000000000000000000082169050919050565b600073ffffffffffffffffffffffffffffffffffffffff82169050919050565b6000819050919050565b82818337600083830152505050565b60005b838110156147b957808201518184015260208101905061479e565b838111156147c8576000848401525b50505050565b600060028204905060018216806147e657607f821691505b602082108114156147fa576147f9614909565b5b50919050565b614809826149d9565b810181811067ffffffffffffffff8211171561482857614827614996565b5b80604052505050565b600061483c82614782565b91507fffffffffffffffffffffffffffffffffffffffffffffffffffffffffffffffff82141561486f5761486e6148ab565b5b600182019050919050565b600061488582614782565b915061489083614782565b9250826148a05761489f6148da565b5b828206905092915050565b7f4e487b7100000000000000000000000000000000000000000000000000000000600052601160045260246000fd5b7f4e487b7100000000000000000000000000000000000000000000000000000000600052601260045260246000fd5b7f4e487b7100000000000000000000000000000000000000000000000000000000600052602260045260246000fd5b7f4e487b7100000000000000000000000000000000000000000000000000000000600052603160045260246000fd5b7f4e487b7100000000000000000000000000000000000000000000000000000000600052603260045260246000fd5b7f4e487b7100000000000000000000000000000000000000000000000000000000600052604160045260246000fd5b600080fd5b600080fd5b600080fd5b600080fd5b6000601f19601f8301169050919050565b7f436f6e74726163742062616c616e636520697320617420300000000000000000600082015250565b7f455243373231456e756d657261626c653a206f776e657220696e646578206f7560008201527f74206f6620626f756e6473000000000000000000000000000000000000000000602082015250565b7f4552433732313a207472616e7366657220746f206e6f6e20455243373231526560008201527f63656976657220696d706c656d656e7465720000000000000000000000000000602082015250565b7f4f776e61626c653a206e6577206f776e657220697320746865207a65726f206160008201527f6464726573730000000000000000000000000000000000000000000000000000602082015250565b7f526566657272616c2061646472657373206973206e6f7420612076616c69642060008201527f77616c6c65742061646472657373000000000000000000000000000000000000602082015250565b7f526566657272616c206973206e6f742076616c69643a20000000000000000000600082015250565b7f4552433732313a20746f6b656e20616c7265616479206d696e74656400000000600082015250565b7f557365722068617320616c7265616479207573656420726566657272616c0000600082015250565b7f45746865722076616c75652073656e7420697320696e636f7272656374000000600082015250565b7f4552433732313a207472616e7366657220746f20746865207a65726f2061646460008201527f7265737300000000000000000000000000000000000000000000000000000000602082015250565b7f4552433732313a20617070726f766520746f2063616c6c657200000000000000600082015250565b7f4d617469632076616c75652073656e7420697320696e636f7272656374000000600082015250565b7f53616c65206973206e6f74206163746976650000000000000000000000000000600082015250565b7f4552433732313a206f70657261746f7220717565727920666f72206e6f6e657860008201527f697374656e7420746f6b656e0000000000000000000000000000000000000000602082015250565b7f43616e6e6f742072656665722073656c66000000000000000000000000000000600082015250565b7f4552433732313a20617070726f76652063616c6c6572206973206e6f74206f7760008201527f6e6572206e6f7220617070726f76656420666f7220616c6c0000000000000000602082015250565b7f4552433732313a2062616c616e636520717565727920666f7220746865207a6560008201527f726f206164647265737300000000000000000000000000000000000000000000602082015250565b7f4552433732313a206f776e657220717565727920666f72206e6f6e657869737460008201527f656e7420746f6b656e0000000000000000000000000000000000000000000000602082015250565b7f4552433732313a206d696e7420746f20746865207a65726f2061646472657373600082015250565b7f63616e206f6e6c792072657365727665206d6178696d756d203230207065722060008201527f74696d6500000000000000000000000000000000000000000000000000000000602082015250565b7f4552433732313a20617070726f76656420717565727920666f72206e6f6e657860008201527f697374656e7420746f6b656e0000000000000000000000000000000000000000602082015250565b7f4f776e61626c653a2063616c6c6572206973206e6f7420746865206f776e6572600082015250565b7f4552433732313a207472616e73666572206f6620746f6b656e2074686174206960008201527f73206e6f74206f776e0000000000000000000000000000000000000000000000602082015250565b7f4552433732314d657461646174613a2055524920717565727920666f72206e6f60008201527f6e6578697374656e7420746f6b656e0000000000000000000000000000000000602082015250565b7f43616e206f6e6c79206d696e7420323020626972647320617420612074696d65600082015250565b7f507572636861736520776f756c6420657863656564206d617820737570706c7960008201527f206f662042697264730000000000000000000000000000000000000000000000602082015250565b7f4552433732313a20617070726f76616c20746f2063757272656e74206f776e6560008201527f7200000000000000000000000000000000000000000000000000000000000000602082015250565b7f526566657272616c2061646472657373206e657665722070757263686173656460008201527f206120746f6b656e2c206f722069736e7420612063757272656e74206f776e6560208201527f7200000000000000000000000000000000000000000000000000000000000000604082015250565b7f4552433732313a207472616e736665722063616c6c6572206973206e6f74206f60008201527f776e6572206e6f7220617070726f766564000000000000000000000000000000602082015250565b7f455243373231456e756d657261626c653a20676c6f62616c20696e646578206f60008201527f7574206f6620626f756e64730000000000000000000000000000000000000000602082015250565b7f5265736572766174696f6e20776f756c6420657863656564206d61782073757060008201527f706c790000000000000000000000000000000000000000000000000000000000602082015250565b6151e281614718565b81146151ed57600080fd5b50565b6151f98161472a565b811461520457600080fd5b50565b61521081614736565b811461521b57600080fd5b50565b61522781614782565b811461523257600080fd5b5056fea264697066735822122057e3e159edf1678fee475f2cca17d883cdbecbf2a4626e5d666eeb35a7b8dcf164736f6c63430008070033",
  "immutableReferences": {},
  "source": "  pragma solidity ^0.8.7;\r\n\r\n  import \"@openzeppelin/contracts/token/ERC721/extensions/ERC721Enumerable.sol\";\r\n  import \"@openzeppelin/contracts/access/Ownable.sol\";\r\n  import \"@openzeppelin/contracts/utils/Address.sol\";\r\n  import \"./ContextMixin.sol\";\r\n\r\n  contract PlayBirdMansion is ERC721Enumerable, ContextMixin, Ownable {\r\n\r\n    using Address for address;\r\n\r\n    uint256 public constant MAX_BIRDS = 6969;\r\n\r\n    uint256 public constant maxBirdPurchase = 20;\r\n\r\n    uint256 private birdPrice = 75 ether;\r\n\r\n    uint256 private referralDiscount = 5 ether;\r\n\r\n    bool public saleActive = false;\r\n\r\n    address payable internal artist;\r\n\r\n    address payable internal developer;\r\n\r\n    address payable internal marketer;\r\n\r\n    string internal baseURI;\r\n\r\n    mapping(address => bool) public alreadyReferred;  // user has used referral\r\n    mapping(address => bool) public referrableAddress;\r\n    mapping(address => bool) public referredToBefore;\r\n    mapping(address => uint256) public numReferrals;  // number of referrals an address has (used for contest)\r\n\r\n    address[] private referredAddresses; // used for calculations in referral contest\r\n\r\n    bool private reentrancyLock = false;\r\n\r\n    modifier reentrancyGuard {\r\n        if (reentrancyLock) {\r\n            revert();\r\n        }\r\n        reentrancyLock = true;\r\n        _;\r\n        reentrancyLock = false;\r\n    }\r\n\r\n    constructor (address payable _artist, address payable _developer, address payable _marketer) ERC721(\"Play Bird Mansion\", \"PBM\") {\r\n        artist = _artist;\r\n        developer = _developer;\r\n        marketer = _marketer;\r\n    }\r\n\r\n\r\n    function withdraw() public onlyOwner reentrancyGuard{\r\n        uint256 balance = address(this).balance;\r\n        require(balance > 0, \"Contract balance is at 0\");\r\n\r\n        uint256 marketerTransfer = balance / 10;\r\n        marketer.transfer(marketerTransfer);\r\n        balance = balance - marketerTransfer;\r\n\r\n        uint256 transferAmount = balance / 2;\r\n        artist.transfer(transferAmount);\r\n        developer.transfer(transferAmount);\r\n    }\r\n\r\n    function setBaseURI(string memory newURI) external onlyOwner{\r\n        baseURI = newURI;\r\n    }\r\n\r\n    function _baseURI() internal view override returns (string memory) {\r\n        return baseURI;\r\n    }\r\n\r\n    function reserveBirds(uint256 amount) external onlyOwner reentrancyGuard {\r\n        require(totalSupply() + amount <= MAX_BIRDS, \"Reservation would exceed max supply\");\r\n        require(amount <= maxBirdPurchase, \"can only reserve maximum 20 per time\");\r\n\r\n        for (uint i = 0; i < amount; i++) {\r\n            uint256 index = totalSupply();\r\n            _safeMint(msg.sender, index + 1);\r\n        }\r\n    }\r\n\r\n    function flipSaleState() external onlyOwner {\r\n        saleActive = !saleActive;\r\n    }\r\n\r\n    function mintBird(uint numberOfBirds) external payable reentrancyGuard {\r\n        require(saleActive, \"Sale is not active\");\r\n        require(numberOfBirds <= maxBirdPurchase, \"Can only mint 20 birds at a time\");\r\n        require(totalSupply() + numberOfBirds <= MAX_BIRDS, \"Purchase would exceed max supply of Birds\");\r\n        require(birdPrice * numberOfBirds <= msg.value, \"Matic value sent is incorrect\");\r\n\r\n        referrableAddress[msg.sender] = true;\r\n\r\n        for(uint i = 0; i < numberOfBirds; i++) {\r\n            uint256 index = totalSupply();\r\n            _safeMint(msg.sender, index + 1);\r\n        }\r\n\r\n    }\r\n\r\n    function mintBirdWithReferral(uint numberOfBirds, address referral) external payable reentrancyGuard {\r\n        require(saleActive, \"Sale is not active\");\r\n        require(numberOfBirds <= maxBirdPurchase, \"Can only mint 20 birds at a time\");\r\n        require(totalSupply() + numberOfBirds <= MAX_BIRDS, \"Purchase would exceed max supply of Birds\");\r\n        require(validReferral(referral), \"Referral is not valid: \");\r\n\r\n        uint256 price = birdPrice - referralDiscount;\r\n        require(price * numberOfBirds <= msg.value, \"Ether value sent is incorrect\");\r\n\r\n        if(!referredToBefore[referral]) {\r\n          referredToBefore[referral] = true;\r\n          referrableAddress[referral] = true;\r\n          referredAddresses.push(referral);\r\n        }\r\n\r\n        alreadyReferred[msg.sender] = true;\r\n        numReferrals[referral] = numReferrals[referral] + 1;\r\n\r\n        for(uint i = 0; i < numberOfBirds; i++) {\r\n          uint256 index = totalSupply();\r\n          _safeMint(msg.sender, index + 1);\r\n        }\r\n\r\n\r\n    }\r\n\r\n    function validReferral(address referral) private view returns (bool) {\r\n        require(validAddress(referral), \"Referral address is not a valid wallet address\");\r\n        require(referral != msg.sender, \"Cannot refer self\");\r\n        require(!(alreadyReferred[msg.sender]), \"User has already used referral\");\r\n        require(balanceOf(referral) > 0 || referrableAddress[referral], \"Referral address never purchased a token, or isnt a current owner\");\r\n        return true;\r\n    }\r\n\r\n    function validAddress(address referral) private view returns (bool) {\r\n        if(!(referral.isContract())\r\n            && (referral != address(0))\r\n          ){\r\n              return true;\r\n          }\r\n\r\n        return false;\r\n    }\r\n\r\n    /**\r\n     * This is used instead of msg.sender as transactions won't be sent by the original token owner, but by OpenSea.\r\n     */\r\n    function _msgSender()\r\n        internal\r\n        override\r\n        view\r\n        returns (address sender)\r\n    {\r\n        return ContextMixin.msgSender();\r\n    }\r\n\r\n  /**\r\n   * Override isApprovedForAll to auto-approve OS's proxy contract\r\n   */\r\n    function isApprovedForAll(\r\n        address _owner,\r\n        address _operator\r\n    ) public override view returns (bool isOperator) {\r\n      // if OpenSea's ERC721 Proxy Address is detected, auto-return true\r\n        if (_operator == address(0x58807baD0B376efc12F5AD86aAc70E78ed67deaE)) {\r\n            return true;\r\n        }\r\n\r\n        // otherwise, use the default ERC721.isApprovedForAll()\r\n        return ERC721.isApprovedForAll(_owner, _operator);\r\n    }\r\n\r\n    function getReferredAddressesLength() external view onlyOwner returns(uint256) {\r\n        uint256 length = referredAddresses.length;\r\n        return length;\r\n    }\r\n\r\n    function getReferredAddresses() external view onlyOwner returns (address[] memory) {\r\n        address[] storage addresses = referredAddresses;\r\n        return addresses;\r\n    }\r\n\r\n  }\r\n",
  "sourcePath": "/mnt/c/pr0/play-bird-mansion/src/contracts/PlayBirdMansion.sol",
  "compiler": {
    "name": "solc",
    "version": "0.8.7+commit.e28d00a7.Emscripten.clang"
  },
  "schemaVersion": "3.2.3",
  "updatedAt": "2021-09-14T11:49:45.829Z",
  "networkType": "ethereum",
  "devdoc": {
    "kind": "dev",
    "methods": {
      "approve(address,uint256)": {
        "details": "See {IERC721-approve}."
      },
      "balanceOf(address)": {
        "details": "See {IERC721-balanceOf}."
      },
      "getApproved(uint256)": {
        "details": "See {IERC721-getApproved}."
      },
      "name()": {
        "details": "See {IERC721Metadata-name}."
      },
      "owner()": {
        "details": "Returns the address of the current owner."
      },
      "ownerOf(uint256)": {
        "details": "See {IERC721-ownerOf}."
      },
      "renounceOwnership()": {
        "details": "Leaves the contract without owner. It will not be possible to call `onlyOwner` functions anymore. Can only be called by the current owner. NOTE: Renouncing ownership will leave the contract without an owner, thereby removing any functionality that is only available to the owner."
      },
      "safeTransferFrom(address,address,uint256)": {
        "details": "See {IERC721-safeTransferFrom}."
      },
      "safeTransferFrom(address,address,uint256,bytes)": {
        "details": "See {IERC721-safeTransferFrom}."
      },
      "setApprovalForAll(address,bool)": {
        "details": "See {IERC721-setApprovalForAll}."
      },
      "supportsInterface(bytes4)": {
        "details": "See {IERC165-supportsInterface}."
      },
      "symbol()": {
        "details": "See {IERC721Metadata-symbol}."
      },
      "tokenByIndex(uint256)": {
        "details": "See {IERC721Enumerable-tokenByIndex}."
      },
      "tokenOfOwnerByIndex(address,uint256)": {
        "details": "See {IERC721Enumerable-tokenOfOwnerByIndex}."
      },
      "tokenURI(uint256)": {
        "details": "See {IERC721Metadata-tokenURI}."
      },
      "totalSupply()": {
        "details": "See {IERC721Enumerable-totalSupply}."
      },
      "transferFrom(address,address,uint256)": {
        "details": "See {IERC721-transferFrom}."
      },
      "transferOwnership(address)": {
        "details": "Transfers ownership of the contract to a new account (`newOwner`). Can only be called by the current owner."
      }
    },
    "version": 1
  },
  "userdoc": {
    "kind": "user",
    "methods": {
      "isApprovedForAll(address,address)": {
        "notice": "Override isApprovedForAll to auto-approve OS's proxy contract"
      }
    },
    "version": 1
  }
}