{
  "contractName": "PlayBirdMansion",
  "abi": [
    {
      "inputs": [
        {
          "internalType": "string",
          "name": "name",
          "type": "string"
        },
        {
          "internalType": "string",
          "name": "symbol",
          "type": "string"
        },
        {
          "internalType": "uint256",
          "name": "maxSupply",
          "type": "uint256"
        }
      ],
      "stateMutability": "nonpayable",
      "type": "constructor"
    },
    {
      "anonymous": false,
      "inputs": [
        {
          "indexed": true,
          "internalType": "address",
          "name": "owner",
          "type": "address"
        },
        {
          "indexed": true,
          "internalType": "address",
          "name": "approved",
          "type": "address"
        },
        {
          "indexed": true,
          "internalType": "uint256",
          "name": "tokenId",
          "type": "uint256"
        }
      ],
      "name": "Approval",
      "type": "event"
    },
    {
      "anonymous": false,
      "inputs": [
        {
          "indexed": true,
          "internalType": "address",
          "name": "owner",
          "type": "address"
        },
        {
          "indexed": true,
          "internalType": "address",
          "name": "operator",
          "type": "address"
        },
        {
          "indexed": false,
          "internalType": "bool",
          "name": "approved",
          "type": "bool"
        }
      ],
      "name": "ApprovalForAll",
      "type": "event"
    },
    {
      "anonymous": false,
      "inputs": [
        {
          "indexed": true,
          "internalType": "address",
          "name": "previousOwner",
          "type": "address"
        },
        {
          "indexed": true,
          "internalType": "address",
          "name": "newOwner",
          "type": "address"
        }
      ],
      "name": "OwnershipTransferred",
      "type": "event"
    },
    {
      "anonymous": false,
      "inputs": [
        {
          "indexed": true,
          "internalType": "address",
          "name": "from",
          "type": "address"
        },
        {
          "indexed": true,
          "internalType": "address",
          "name": "to",
          "type": "address"
        },
        {
          "indexed": true,
          "internalType": "uint256",
          "name": "tokenId",
          "type": "uint256"
        }
      ],
      "name": "Transfer",
      "type": "event"
    },
    {
      "inputs": [],
      "name": "MAX_BIRDS",
      "outputs": [
        {
          "internalType": "uint256",
          "name": "",
          "type": "uint256"
        }
      ],
      "stateMutability": "view",
      "type": "function"
    },
    {
      "inputs": [
        {
          "internalType": "address",
          "name": "to",
          "type": "address"
        },
        {
          "internalType": "uint256",
          "name": "tokenId",
          "type": "uint256"
        }
      ],
      "name": "approve",
      "outputs": [],
      "stateMutability": "nonpayable",
      "type": "function"
    },
    {
      "inputs": [
        {
          "internalType": "address",
          "name": "owner",
          "type": "address"
        }
      ],
      "name": "balanceOf",
      "outputs": [
        {
          "internalType": "uint256",
          "name": "",
          "type": "uint256"
        }
      ],
      "stateMutability": "view",
      "type": "function"
    },
    {
      "inputs": [],
      "name": "birdPrice",
      "outputs": [
        {
          "internalType": "uint256",
          "name": "",
          "type": "uint256"
        }
      ],
      "stateMutability": "view",
      "type": "function"
    },
    {
      "inputs": [
        {
          "internalType": "uint256",
          "name": "tokenId",
          "type": "uint256"
        }
      ],
      "name": "getApproved",
      "outputs": [
        {
          "internalType": "address",
          "name": "",
          "type": "address"
        }
      ],
      "stateMutability": "view",
      "type": "function"
    },
    {
      "inputs": [
        {
          "internalType": "address",
          "name": "owner",
          "type": "address"
        },
        {
          "internalType": "address",
          "name": "operator",
          "type": "address"
        }
      ],
      "name": "isApprovedForAll",
      "outputs": [
        {
          "internalType": "bool",
          "name": "",
          "type": "bool"
        }
      ],
      "stateMutability": "view",
      "type": "function"
    },
    {
      "inputs": [],
      "name": "maxBirdPurchase",
      "outputs": [
        {
          "internalType": "uint256",
          "name": "",
          "type": "uint256"
        }
      ],
      "stateMutability": "view",
      "type": "function"
    },
    {
      "inputs": [],
      "name": "name",
      "outputs": [
        {
          "internalType": "string",
          "name": "",
          "type": "string"
        }
      ],
      "stateMutability": "view",
      "type": "function"
    },
    {
      "inputs": [],
      "name": "owner",
      "outputs": [
        {
          "internalType": "address",
          "name": "",
          "type": "address"
        }
      ],
      "stateMutability": "view",
      "type": "function"
    },
    {
      "inputs": [
        {
          "internalType": "uint256",
          "name": "tokenId",
          "type": "uint256"
        }
      ],
      "name": "ownerOf",
      "outputs": [
        {
          "internalType": "address",
          "name": "",
          "type": "address"
        }
      ],
      "stateMutability": "view",
      "type": "function"
    },
    {
      "inputs": [],
      "name": "renounceOwnership",
      "outputs": [],
      "stateMutability": "nonpayable",
      "type": "function"
    },
    {
      "inputs": [
        {
          "internalType": "address",
          "name": "from",
          "type": "address"
        },
        {
          "internalType": "address",
          "name": "to",
          "type": "address"
        },
        {
          "internalType": "uint256",
          "name": "tokenId",
          "type": "uint256"
        }
      ],
      "name": "safeTransferFrom",
      "outputs": [],
      "stateMutability": "nonpayable",
      "type": "function"
    },
    {
      "inputs": [
        {
          "internalType": "address",
          "name": "from",
          "type": "address"
        },
        {
          "internalType": "address",
          "name": "to",
          "type": "address"
        },
        {
          "internalType": "uint256",
          "name": "tokenId",
          "type": "uint256"
        },
        {
          "internalType": "bytes",
          "name": "_data",
          "type": "bytes"
        }
      ],
      "name": "safeTransferFrom",
      "outputs": [],
      "stateMutability": "nonpayable",
      "type": "function"
    },
    {
      "inputs": [],
      "name": "saleActive",
      "outputs": [
        {
          "internalType": "bool",
          "name": "",
          "type": "bool"
        }
      ],
      "stateMutability": "view",
      "type": "function"
    },
    {
      "inputs": [
        {
          "internalType": "address",
          "name": "operator",
          "type": "address"
        },
        {
          "internalType": "bool",
          "name": "approved",
          "type": "bool"
        }
      ],
      "name": "setApprovalForAll",
      "outputs": [],
      "stateMutability": "nonpayable",
      "type": "function"
    },
    {
      "inputs": [
        {
          "internalType": "bytes4",
          "name": "interfaceId",
          "type": "bytes4"
        }
      ],
      "name": "supportsInterface",
      "outputs": [
        {
          "internalType": "bool",
          "name": "",
          "type": "bool"
        }
      ],
      "stateMutability": "view",
      "type": "function"
    },
    {
      "inputs": [],
      "name": "symbol",
      "outputs": [
        {
          "internalType": "string",
          "name": "",
          "type": "string"
        }
      ],
      "stateMutability": "view",
      "type": "function"
    },
    {
      "inputs": [
        {
          "internalType": "uint256",
          "name": "index",
          "type": "uint256"
        }
      ],
      "name": "tokenByIndex",
      "outputs": [
        {
          "internalType": "uint256",
          "name": "",
          "type": "uint256"
        }
      ],
      "stateMutability": "view",
      "type": "function"
    },
    {
      "inputs": [
        {
          "internalType": "address",
          "name": "owner",
          "type": "address"
        },
        {
          "internalType": "uint256",
          "name": "index",
          "type": "uint256"
        }
      ],
      "name": "tokenOfOwnerByIndex",
      "outputs": [
        {
          "internalType": "uint256",
          "name": "",
          "type": "uint256"
        }
      ],
      "stateMutability": "view",
      "type": "function"
    },
    {
      "inputs": [
        {
          "internalType": "uint256",
          "name": "tokenId",
          "type": "uint256"
        }
      ],
      "name": "tokenURI",
      "outputs": [
        {
          "internalType": "string",
          "name": "",
          "type": "string"
        }
      ],
      "stateMutability": "view",
      "type": "function"
    },
    {
      "inputs": [],
      "name": "totalSupply",
      "outputs": [
        {
          "internalType": "uint256",
          "name": "",
          "type": "uint256"
        }
      ],
      "stateMutability": "view",
      "type": "function"
    },
    {
      "inputs": [
        {
          "internalType": "address",
          "name": "from",
          "type": "address"
        },
        {
          "internalType": "address",
          "name": "to",
          "type": "address"
        },
        {
          "internalType": "uint256",
          "name": "tokenId",
          "type": "uint256"
        }
      ],
      "name": "transferFrom",
      "outputs": [],
      "stateMutability": "nonpayable",
      "type": "function"
    },
    {
      "inputs": [
        {
          "internalType": "address",
          "name": "newOwner",
          "type": "address"
        }
      ],
      "name": "transferOwnership",
      "outputs": [],
      "stateMutability": "nonpayable",
      "type": "function"
    },
    {
      "inputs": [],
      "name": "withdraw",
      "outputs": [],
      "stateMutability": "nonpayable",
      "type": "function"
    },
    {
      "inputs": [],
      "name": "reserveBirds",
      "outputs": [],
      "stateMutability": "nonpayable",
      "type": "function"
    },
    {
      "inputs": [],
      "name": "flipSaleState",
      "outputs": [],
      "stateMutability": "nonpayable",
      "type": "function"
    },
    {
      "inputs": [
        {
          "internalType": "uint256",
          "name": "numberOfBirds",
          "type": "uint256"
        }
      ],
      "name": "mintBird",
      "outputs": [],
      "stateMutability": "payable",
      "type": "function"
    }
  ],
  "bytecode": "0x608060405266470de4df820000600c556000600d60006101000a81548160ff0219169083151502179055503480156200003757600080fd5b50604051620040753803806200407583398181016040528101906200005d9190620002d6565b828281600090805190602001906200007792919062000191565b5080600190805190602001906200009092919062000191565b505050620000b3620000a7620000c360201b60201c565b620000cb60201b60201c565b80600b8190555050505062000518565b600033905090565b6000600a60009054906101000a900473ffffffffffffffffffffffffffffffffffffffff16905081600a60006101000a81548173ffffffffffffffffffffffffffffffffffffffff021916908373ffffffffffffffffffffffffffffffffffffffff1602179055508173ffffffffffffffffffffffffffffffffffffffff168173ffffffffffffffffffffffffffffffffffffffff167f8be0079c531659141344cd1fd0a4f28419497f9722a3daafe3b4186f6b6457e060405160405180910390a35050565b8280546200019f906200040f565b90600052602060002090601f016020900481019282620001c357600085556200020f565b82601f10620001de57805160ff19168380011785556200020f565b828001600101855582156200020f579182015b828111156200020e578251825591602001919060010190620001f1565b5b5090506200021e919062000222565b5090565b5b808211156200023d57600081600090555060010162000223565b5090565b600062000258620002528462000399565b62000370565b905082815260208101848484011115620002775762000276620004de565b5b62000284848285620003d9565b509392505050565b600082601f830112620002a457620002a3620004d9565b5b8151620002b684826020860162000241565b91505092915050565b600081519050620002d081620004fe565b92915050565b600080600060608486031215620002f257620002f1620004e8565b5b600084015167ffffffffffffffff811115620003135762000312620004e3565b5b62000321868287016200028c565b935050602084015167ffffffffffffffff811115620003455762000344620004e3565b5b62000353868287016200028c565b92505060406200036686828701620002bf565b9150509250925092565b60006200037c6200038f565b90506200038a828262000445565b919050565b6000604051905090565b600067ffffffffffffffff821115620003b757620003b6620004aa565b5b620003c282620004ed565b9050602081019050919050565b6000819050919050565b60005b83811015620003f9578082015181840152602081019050620003dc565b8381111562000409576000848401525b50505050565b600060028204905060018216806200042857607f821691505b602082108114156200043f576200043e6200047b565b5b50919050565b6200045082620004ed565b810181811067ffffffffffffffff82111715620004725762000471620004aa565b5b80604052505050565b7f4e487b7100000000000000000000000000000000000000000000000000000000600052602260045260246000fd5b7f4e487b7100000000000000000000000000000000000000000000000000000000600052604160045260246000fd5b600080fd5b600080fd5b600080fd5b600080fd5b6000601f19601f8301169050919050565b6200050981620003cf565b81146200051557600080fd5b50565b613b4d80620005286000396000f3fe60806040526004361061019c5760003560e01c806368428a1b116100ec578063ab25b9871161008a578063d3e8644011610064578063d3e86440146105a2578063e985e9c5146105cd578063f2fde38b1461060a578063ff46973e146106335761019c565b8063ab25b98714610525578063b88d4fde1461053c578063c87b56dd146105655761019c565b80638da5cb5b116100c65780638da5cb5b1461047b5780638e04f5c0146104a657806395d89b41146104d1578063a22cb465146104fc5761019c565b806368428a1b146103fc57806370a0823114610427578063715018a6146104645761019c565b806323b872dd116101595780633ccfd60b116101335780633ccfd60b1461034257806342842e0e146103595780634f6ccce7146103825780636352211e146103bf5761019c565b806323b872dd146102c55780632f745c59146102ee57806334918dfd1461032b5761019c565b806301ffc9a7146101a157806306fdde03146101de578063081812fc14610209578063095ea7b31461024657806318160ddd1461026f5780631f73bf7f1461029a575b600080fd5b3480156101ad57600080fd5b506101c860048036038101906101c39190612849565b61064f565b6040516101d59190612d2d565b60405180910390f35b3480156101ea57600080fd5b506101f36106c9565b6040516102009190612d48565b60405180910390f35b34801561021557600080fd5b50610230600480360381019061022b91906128a3565b61075b565b60405161023d9190612cc6565b60405180910390f35b34801561025257600080fd5b5061026d60048036038101906102689190612809565b6107e0565b005b34801561027b57600080fd5b506102846108f8565b604051610291919061302a565b60405180910390f35b3480156102a657600080fd5b506102af610905565b6040516102bc919061302a565b60405180910390f35b3480156102d157600080fd5b506102ec60048036038101906102e791906126f3565b61090a565b005b3480156102fa57600080fd5b5061031560048036038101906103109190612809565b61096a565b604051610322919061302a565b60405180910390f35b34801561033757600080fd5b50610340610a0f565b005b34801561034e57600080fd5b50610357610ab7565b005b34801561036557600080fd5b50610380600480360381019061037b91906126f3565b610b82565b005b34801561038e57600080fd5b506103a960048036038101906103a491906128a3565b610ba2565b6040516103b6919061302a565b60405180910390f35b3480156103cb57600080fd5b506103e660048036038101906103e191906128a3565b610c13565b6040516103f39190612cc6565b60405180910390f35b34801561040857600080fd5b50610411610cc5565b60405161041e9190612d2d565b60405180910390f35b34801561043357600080fd5b5061044e60048036038101906104499190612686565b610cd8565b60405161045b919061302a565b60405180910390f35b34801561047057600080fd5b50610479610d90565b005b34801561048757600080fd5b50610490610e18565b60405161049d9190612cc6565b60405180910390f35b3480156104b257600080fd5b506104bb610e42565b6040516104c8919061302a565b60405180910390f35b3480156104dd57600080fd5b506104e6610e48565b6040516104f39190612d48565b60405180910390f35b34801561050857600080fd5b50610523600480360381019061051e91906127c9565b610eda565b005b34801561053157600080fd5b5061053a61105b565b005b34801561054857600080fd5b50610563600480360381019061055e9190612746565b61111b565b005b34801561057157600080fd5b5061058c600480360381019061058791906128a3565b61117d565b6040516105999190612d48565b60405180910390f35b3480156105ae57600080fd5b506105b7611224565b6040516105c4919061302a565b60405180910390f35b3480156105d957600080fd5b506105f460048036038101906105ef91906126b3565b61122a565b6040516106019190612d2d565b60405180910390f35b34801561061657600080fd5b50610631600480360381019061062c9190612686565b6112be565b005b61064d600480360381019061064891906128a3565b6113b6565b005b60007f780e9d63000000000000000000000000000000000000000000000000000000007bffffffffffffffffffffffffffffffffffffffffffffffffffffffff1916827bffffffffffffffffffffffffffffffffffffffffffffffffffffffff191614806106c257506106c182611547565b5b9050919050565b6060600080546106d8906132a9565b80601f0160208091040260200160405190810160405280929190818152602001828054610704906132a9565b80156107515780601f1061072657610100808354040283529160200191610751565b820191906000526020600020905b81548152906001019060200180831161073457829003601f168201915b5050505050905090565b600061076682611629565b6107a5576040517f08c379a000000000000000000000000000000000000000000000000000000000815260040161079c90612f2a565b60405180910390fd5b6004600083815260200190815260200160002060009054906101000a900473ffffffffffffffffffffffffffffffffffffffff169050919050565b60006107eb82610c13565b90508073ffffffffffffffffffffffffffffffffffffffff168373ffffffffffffffffffffffffffffffffffffffff16141561085c576040517f08c379a000000000000000000000000000000000000000000000000000000000815260040161085390612fca565b60405180910390fd5b8073ffffffffffffffffffffffffffffffffffffffff1661087b611695565b73ffffffffffffffffffffffffffffffffffffffff1614806108aa57506108a9816108a4611695565b61122a565b5b6108e9576040517f08c379a00000000000000000000000000000000000000000000000000000000081526004016108e090612eaa565b60405180910390fd5b6108f3838361169d565b505050565b6000600880549050905090565b601e81565b61091b610915611695565b82611756565b61095a576040517f08c379a000000000000000000000000000000000000000000000000000000000815260040161095190612fea565b60405180910390fd5b610965838383611834565b505050565b600061097583610cd8565b82106109b6576040517f08c379a00000000000000000000000000000000000000000000000000000000081526004016109ad90612d6a565b60405180910390fd5b600660008473ffffffffffffffffffffffffffffffffffffffff1673ffffffffffffffffffffffffffffffffffffffff168152602001908152602001600020600083815260200190815260200160002054905092915050565b610a17611695565b73ffffffffffffffffffffffffffffffffffffffff16610a35610e18565b73ffffffffffffffffffffffffffffffffffffffff1614610a8b576040517f08c379a0000000000000000000000000000000000000000000000000000000008152600401610a8290612f4a565b60405180910390fd5b600d60009054906101000a900460ff1615600d60006101000a81548160ff021916908315150217905550565b610abf611695565b73ffffffffffffffffffffffffffffffffffffffff16610add610e18565b73ffffffffffffffffffffffffffffffffffffffff1614610b33576040517f08c379a0000000000000000000000000000000000000000000000000000000008152600401610b2a90612f4a565b60405180910390fd5b60004790503373ffffffffffffffffffffffffffffffffffffffff166108fc829081150290604051600060405180830381858888f19350505050158015610b7e573d6000803e3d6000fd5b5050565b610b9d8383836040518060200160405280600081525061111b565b505050565b6000610bac6108f8565b8210610bed576040517f08c379a0000000000000000000000000000000000000000000000000000000008152600401610be49061300a565b60405180910390fd5b60088281548110610c0157610c00613442565b5b90600052602060002001549050919050565b6000806002600084815260200190815260200160002060009054906101000a900473ffffffffffffffffffffffffffffffffffffffff169050600073ffffffffffffffffffffffffffffffffffffffff168173ffffffffffffffffffffffffffffffffffffffff161415610cbc576040517f08c379a0000000000000000000000000000000000000000000000000000000008152600401610cb390612eea565b60405180910390fd5b80915050919050565b600d60009054906101000a900460ff1681565b60008073ffffffffffffffffffffffffffffffffffffffff168273ffffffffffffffffffffffffffffffffffffffff161415610d49576040517f08c379a0000000000000000000000000000000000000000000000000000000008152600401610d4090612eca565b60405180910390fd5b600360008373ffffffffffffffffffffffffffffffffffffffff1673ffffffffffffffffffffffffffffffffffffffff168152602001908152602001600020549050919050565b610d98611695565b73ffffffffffffffffffffffffffffffffffffffff16610db6610e18565b73ffffffffffffffffffffffffffffffffffffffff1614610e0c576040517f08c379a0000000000000000000000000000000000000000000000000000000008152600401610e0390612f4a565b60405180910390fd5b610e166000611a90565b565b6000600a60009054906101000a900473ffffffffffffffffffffffffffffffffffffffff16905090565b600c5481565b606060018054610e57906132a9565b80601f0160208091040260200160405190810160405280929190818152602001828054610e83906132a9565b8015610ed05780601f10610ea557610100808354040283529160200191610ed0565b820191906000526020600020905b815481529060010190602001808311610eb357829003601f168201915b5050505050905090565b610ee2611695565b73ffffffffffffffffffffffffffffffffffffffff168273ffffffffffffffffffffffffffffffffffffffff161415610f50576040517f08c379a0000000000000000000000000000000000000000000000000000000008152600401610f4790612e2a565b60405180910390fd5b8060056000610f5d611695565b73ffffffffffffffffffffffffffffffffffffffff1673ffffffffffffffffffffffffffffffffffffffff16815260200190815260200160002060008473ffffffffffffffffffffffffffffffffffffffff1673ffffffffffffffffffffffffffffffffffffffff16815260200190815260200160002060006101000a81548160ff0219169083151502179055508173ffffffffffffffffffffffffffffffffffffffff1661100a611695565b73ffffffffffffffffffffffffffffffffffffffff167f17307eab39ab6107e8899845ad3d59bd9653f200f220920489ca2b5937696c318360405161104f9190612d2d565b60405180910390a35050565b611063611695565b73ffffffffffffffffffffffffffffffffffffffff16611081610e18565b73ffffffffffffffffffffffffffffffffffffffff16146110d7576040517f08c379a00000000000000000000000000000000000000000000000000000000081526004016110ce90612f4a565b60405180910390fd5b60006110e16108f8565b905060005b6064811015611117576111043382846110ff91906130de565b611b56565b808061110f9061330c565b9150506110e6565b5050565b61112c611126611695565b83611756565b61116b576040517f08c379a000000000000000000000000000000000000000000000000000000000815260040161116290612fea565b60405180910390fd5b61117784848484611b74565b50505050565b606061118882611629565b6111c7576040517f08c379a00000000000000000000000000000000000000000000000000000000081526004016111be90612f8a565b60405180910390fd5b60006111d1611bd0565b905060008151116111f1576040518060200160405280600081525061121c565b806111fb84611bf0565b60405160200161120c929190612ca2565b6040516020818303038152906040525b915050919050565b600b5481565b6000600560008473ffffffffffffffffffffffffffffffffffffffff1673ffffffffffffffffffffffffffffffffffffffff16815260200190815260200160002060008373ffffffffffffffffffffffffffffffffffffffff1673ffffffffffffffffffffffffffffffffffffffff16815260200190815260200160002060009054906101000a900460ff16905092915050565b6112c6611695565b73ffffffffffffffffffffffffffffffffffffffff166112e4610e18565b73ffffffffffffffffffffffffffffffffffffffff161461133a576040517f08c379a000000000000000000000000000000000000000000000000000000000815260040161133190612f4a565b60405180910390fd5b600073ffffffffffffffffffffffffffffffffffffffff168173ffffffffffffffffffffffffffffffffffffffff1614156113aa576040517f08c379a00000000000000000000000000000000000000000000000000000000081526004016113a190612daa565b60405180910390fd5b6113b381611a90565b50565b600d60009054906101000a900460ff16611405576040517f08c379a00000000000000000000000000000000000000000000000000000000081526004016113fc90612e4a565b60405180910390fd5b601e811115611449576040517f08c379a000000000000000000000000000000000000000000000000000000000815260040161144090612e8a565b60405180910390fd5b600b54816114556108f8565b61145f91906130de565b11156114a0576040517f08c379a000000000000000000000000000000000000000000000000000000000815260040161149790612faa565b60405180910390fd5b3481600c546114af9190613165565b11156114f0576040517f08c379a00000000000000000000000000000000000000000000000000000000081526004016114e790612dea565b60405180910390fd5b60005b8181101561154357600060016115076108f8565b61151191906130de565b9050600b5461151e6108f8565b101561152f5761152e3382611b56565b5b50808061153b9061330c565b9150506114f3565b5050565b60007f80ac58cd000000000000000000000000000000000000000000000000000000007bffffffffffffffffffffffffffffffffffffffffffffffffffffffff1916827bffffffffffffffffffffffffffffffffffffffffffffffffffffffff1916148061161257507f5b5e139f000000000000000000000000000000000000000000000000000000007bffffffffffffffffffffffffffffffffffffffffffffffffffffffff1916827bffffffffffffffffffffffffffffffffffffffffffffffffffffffff1916145b80611622575061162182611d51565b5b9050919050565b60008073ffffffffffffffffffffffffffffffffffffffff166002600084815260200190815260200160002060009054906101000a900473ffffffffffffffffffffffffffffffffffffffff1673ffffffffffffffffffffffffffffffffffffffff1614159050919050565b600033905090565b816004600083815260200190815260200160002060006101000a81548173ffffffffffffffffffffffffffffffffffffffff021916908373ffffffffffffffffffffffffffffffffffffffff160217905550808273ffffffffffffffffffffffffffffffffffffffff1661171083610c13565b73ffffffffffffffffffffffffffffffffffffffff167f8c5be1e5ebec7d5bd14f71427d1e84f3dd0314c0f7b2291e5b200ac8c7c3b92560405160405180910390a45050565b600061176182611629565b6117a0576040517f08c379a000000000000000000000000000000000000000000000000000000000815260040161179790612e6a565b60405180910390fd5b60006117ab83610c13565b90508073ffffffffffffffffffffffffffffffffffffffff168473ffffffffffffffffffffffffffffffffffffffff16148061181a57508373ffffffffffffffffffffffffffffffffffffffff166118028461075b565b73ffffffffffffffffffffffffffffffffffffffff16145b8061182b575061182a818561122a565b5b91505092915050565b8273ffffffffffffffffffffffffffffffffffffffff1661185482610c13565b73ffffffffffffffffffffffffffffffffffffffff16146118aa576040517f08c379a00000000000000000000000000000000000000000000000000000000081526004016118a190612f6a565b60405180910390fd5b600073ffffffffffffffffffffffffffffffffffffffff168273ffffffffffffffffffffffffffffffffffffffff16141561191a576040517f08c379a000000000000000000000000000000000000000000000000000000000815260040161191190612e0a565b60405180910390fd5b611925838383611dbb565b61193060008261169d565b6001600360008573ffffffffffffffffffffffffffffffffffffffff1673ffffffffffffffffffffffffffffffffffffffff168152602001908152602001600020600082825461198091906131bf565b925050819055506001600360008473ffffffffffffffffffffffffffffffffffffffff1673ffffffffffffffffffffffffffffffffffffffff16815260200190815260200160002060008282546119d791906130de565b92505081905550816002600083815260200190815260200160002060006101000a81548173ffffffffffffffffffffffffffffffffffffffff021916908373ffffffffffffffffffffffffffffffffffffffff160217905550808273ffffffffffffffffffffffffffffffffffffffff168473ffffffffffffffffffffffffffffffffffffffff167fddf252ad1be2c89b69c2b068fc378daa952ba7f163c4a11628f55a4df523b3ef60405160405180910390a4505050565b6000600a60009054906101000a900473ffffffffffffffffffffffffffffffffffffffff16905081600a60006101000a81548173ffffffffffffffffffffffffffffffffffffffff021916908373ffffffffffffffffffffffffffffffffffffffff1602179055508173ffffffffffffffffffffffffffffffffffffffff168173ffffffffffffffffffffffffffffffffffffffff167f8be0079c531659141344cd1fd0a4f28419497f9722a3daafe3b4186f6b6457e060405160405180910390a35050565b611b70828260405180602001604052806000815250611ecf565b5050565b611b7f848484611834565b611b8b84848484611f2a565b611bca576040517f08c379a0000000000000000000000000000000000000000000000000000000008152600401611bc190612d8a565b60405180910390fd5b50505050565b6060604051806060016040528060368152602001613ae260369139905090565b60606000821415611c38576040518060400160405280600181526020017f30000000000000000000000000000000000000000000000000000000000000008152509050611d4c565b600082905060005b60008214611c6a578080611c539061330c565b915050600a82611c639190613134565b9150611c40565b60008167ffffffffffffffff811115611c8657611c85613471565b5b6040519080825280601f01601f191660200182016040528015611cb85781602001600182028036833780820191505090505b5090505b60008514611d4557600182611cd191906131bf565b9150600a85611ce09190613355565b6030611cec91906130de565b60f81b818381518110611d0257611d01613442565b5b60200101907effffffffffffffffffffffffffffffffffffffffffffffffffffffffffffff1916908160001a905350600a85611d3e9190613134565b9450611cbc565b8093505050505b919050565b60007f01ffc9a7000000000000000000000000000000000000000000000000000000007bffffffffffffffffffffffffffffffffffffffffffffffffffffffff1916827bffffffffffffffffffffffffffffffffffffffffffffffffffffffff1916149050919050565b611dc68383836120c1565b600073ffffffffffffffffffffffffffffffffffffffff168373ffffffffffffffffffffffffffffffffffffffff161415611e0957611e04816120c6565b611e48565b8173ffffffffffffffffffffffffffffffffffffffff168373ffffffffffffffffffffffffffffffffffffffff1614611e4757611e46838261210f565b5b5b600073ffffffffffffffffffffffffffffffffffffffff168273ffffffffffffffffffffffffffffffffffffffff161415611e8b57611e868161227c565b611eca565b8273ffffffffffffffffffffffffffffffffffffffff168273ffffffffffffffffffffffffffffffffffffffff1614611ec957611ec8828261234d565b5b5b505050565b611ed983836123cc565b611ee66000848484611f2a565b611f25576040517f08c379a0000000000000000000000000000000000000000000000000000000008152600401611f1c90612d8a565b60405180910390fd5b505050565b6000611f4b8473ffffffffffffffffffffffffffffffffffffffff1661259a565b156120b4578373ffffffffffffffffffffffffffffffffffffffff1663150b7a02611f74611695565b8786866040518563ffffffff1660e01b8152600401611f969493929190612ce1565b602060405180830381600087803b158015611fb057600080fd5b505af1925050508015611fe157506040513d601f19601f82011682018060405250810190611fde9190612876565b60015b612064573d8060008114612011576040519150601f19603f3d011682016040523d82523d6000602084013e612016565b606091505b5060008151141561205c576040517f08c379a000000000000000000000000000000000000000000000000000000000815260040161205390612d8a565b60405180910390fd5b805181602001fd5b63150b7a0260e01b7bffffffffffffffffffffffffffffffffffffffffffffffffffffffff1916817bffffffffffffffffffffffffffffffffffffffffffffffffffffffff1916149150506120b9565b600190505b949350505050565b505050565b6008805490506009600083815260200190815260200160002081905550600881908060018154018082558091505060019003906000526020600020016000909190919091505550565b6000600161211c84610cd8565b61212691906131bf565b905060006007600084815260200190815260200160002054905081811461220b576000600660008673ffffffffffffffffffffffffffffffffffffffff1673ffffffffffffffffffffffffffffffffffffffff168152602001908152602001600020600084815260200190815260200160002054905080600660008773ffffffffffffffffffffffffffffffffffffffff1673ffffffffffffffffffffffffffffffffffffffff168152602001908152602001600020600084815260200190815260200160002081905550816007600083815260200190815260200160002081905550505b6007600084815260200190815260200160002060009055600660008573ffffffffffffffffffffffffffffffffffffffff1673ffffffffffffffffffffffffffffffffffffffff16815260200190815260200160002060008381526020019081526020016000206000905550505050565b6000600160088054905061229091906131bf565b90506000600960008481526020019081526020016000205490506000600883815481106122c0576122bf613442565b5b9060005260206000200154905080600883815481106122e2576122e1613442565b5b90600052602060002001819055508160096000838152602001908152602001600020819055506009600085815260200190815260200160002060009055600880548061233157612330613413565b5b6001900381819060005260206000200160009055905550505050565b600061235883610cd8565b905081600660008573ffffffffffffffffffffffffffffffffffffffff1673ffffffffffffffffffffffffffffffffffffffff168152602001908152602001600020600083815260200190815260200160002081905550806007600084815260200190815260200160002081905550505050565b600073ffffffffffffffffffffffffffffffffffffffff168273ffffffffffffffffffffffffffffffffffffffff16141561243c576040517f08c379a000000000000000000000000000000000000000000000000000000000815260040161243390612f0a565b60405180910390fd5b61244581611629565b15612485576040517f08c379a000000000000000000000000000000000000000000000000000000000815260040161247c90612dca565b60405180910390fd5b61249160008383611dbb565b6001600360008473ffffffffffffffffffffffffffffffffffffffff1673ffffffffffffffffffffffffffffffffffffffff16815260200190815260200160002060008282546124e191906130de565b92505081905550816002600083815260200190815260200160002060006101000a81548173ffffffffffffffffffffffffffffffffffffffff021916908373ffffffffffffffffffffffffffffffffffffffff160217905550808273ffffffffffffffffffffffffffffffffffffffff16600073ffffffffffffffffffffffffffffffffffffffff167fddf252ad1be2c89b69c2b068fc378daa952ba7f163c4a11628f55a4df523b3ef60405160405180910390a45050565b600080823b905060008111915050919050565b60006125c06125bb8461306a565b613045565b9050828152602081018484840111156125dc576125db6134a5565b5b6125e7848285613267565b509392505050565b6000813590506125fe81613a85565b92915050565b60008135905061261381613a9c565b92915050565b60008135905061262881613ab3565b92915050565b60008151905061263d81613ab3565b92915050565b600082601f830112612658576126576134a0565b5b81356126688482602086016125ad565b91505092915050565b60008135905061268081613aca565b92915050565b60006020828403121561269c5761269b6134af565b5b60006126aa848285016125ef565b91505092915050565b600080604083850312156126ca576126c96134af565b5b60006126d8858286016125ef565b92505060206126e9858286016125ef565b9150509250929050565b60008060006060848603121561270c5761270b6134af565b5b600061271a868287016125ef565b935050602061272b868287016125ef565b925050604061273c86828701612671565b9150509250925092565b600080600080608085870312156127605761275f6134af565b5b600061276e878288016125ef565b945050602061277f878288016125ef565b935050604061279087828801612671565b925050606085013567ffffffffffffffff8111156127b1576127b06134aa565b5b6127bd87828801612643565b91505092959194509250565b600080604083850312156127e0576127df6134af565b5b60006127ee858286016125ef565b92505060206127ff85828601612604565b9150509250929050565b600080604083850312156128205761281f6134af565b5b600061282e858286016125ef565b925050602061283f85828601612671565b9150509250929050565b60006020828403121561285f5761285e6134af565b5b600061286d84828501612619565b91505092915050565b60006020828403121561288c5761288b6134af565b5b600061289a8482850161262e565b91505092915050565b6000602082840312156128b9576128b86134af565b5b60006128c784828501612671565b91505092915050565b6128d9816131f3565b82525050565b6128e881613205565b82525050565b60006128f98261309b565b61290381856130b1565b9350612913818560208601613276565b61291c816134b4565b840191505092915050565b6000612932826130a6565b61293c81856130c2565b935061294c818560208601613276565b612955816134b4565b840191505092915050565b600061296b826130a6565b61297581856130d3565b9350612985818560208601613276565b80840191505092915050565b600061299e602b836130c2565b91506129a9826134c5565b604082019050919050565b60006129c16032836130c2565b91506129cc82613514565b604082019050919050565b60006129e46026836130c2565b91506129ef82613563565b604082019050919050565b6000612a07601c836130c2565b9150612a12826135b2565b602082019050919050565b6000612a2a601d836130c2565b9150612a35826135db565b602082019050919050565b6000612a4d6024836130c2565b9150612a5882613604565b604082019050919050565b6000612a706019836130c2565b9150612a7b82613653565b602082019050919050565b6000612a936012836130c2565b9150612a9e8261367c565b602082019050919050565b6000612ab6602c836130c2565b9150612ac1826136a5565b604082019050919050565b6000612ad96020836130c2565b9150612ae4826136f4565b602082019050919050565b6000612afc6038836130c2565b9150612b078261371d565b604082019050919050565b6000612b1f602a836130c2565b9150612b2a8261376c565b604082019050919050565b6000612b426029836130c2565b9150612b4d826137bb565b604082019050919050565b6000612b656020836130c2565b9150612b708261380a565b602082019050919050565b6000612b88602c836130c2565b9150612b9382613833565b604082019050919050565b6000612bab6020836130c2565b9150612bb682613882565b602082019050919050565b6000612bce6029836130c2565b9150612bd9826138ab565b604082019050919050565b6000612bf1602f836130c2565b9150612bfc826138fa565b604082019050919050565b6000612c146029836130c2565b9150612c1f82613949565b604082019050919050565b6000612c376021836130c2565b9150612c4282613998565b604082019050919050565b6000612c5a6031836130c2565b9150612c65826139e7565b604082019050919050565b6000612c7d602c836130c2565b9150612c8882613a36565b604082019050919050565b612c9c8161325d565b82525050565b6000612cae8285612960565b9150612cba8284612960565b91508190509392505050565b6000602082019050612cdb60008301846128d0565b92915050565b6000608082019050612cf660008301876128d0565b612d0360208301866128d0565b612d106040830185612c93565b8181036060830152612d2281846128ee565b905095945050505050565b6000602082019050612d4260008301846128df565b92915050565b60006020820190508181036000830152612d628184612927565b905092915050565b60006020820190508181036000830152612d8381612991565b9050919050565b60006020820190508181036000830152612da3816129b4565b9050919050565b60006020820190508181036000830152612dc3816129d7565b9050919050565b60006020820190508181036000830152612de3816129fa565b9050919050565b60006020820190508181036000830152612e0381612a1d565b9050919050565b60006020820190508181036000830152612e2381612a40565b9050919050565b60006020820190508181036000830152612e4381612a63565b9050919050565b60006020820190508181036000830152612e6381612a86565b9050919050565b60006020820190508181036000830152612e8381612aa9565b9050919050565b60006020820190508181036000830152612ea381612acc565b9050919050565b60006020820190508181036000830152612ec381612aef565b9050919050565b60006020820190508181036000830152612ee381612b12565b9050919050565b60006020820190508181036000830152612f0381612b35565b9050919050565b60006020820190508181036000830152612f2381612b58565b9050919050565b60006020820190508181036000830152612f4381612b7b565b9050919050565b60006020820190508181036000830152612f6381612b9e565b9050919050565b60006020820190508181036000830152612f8381612bc1565b9050919050565b60006020820190508181036000830152612fa381612be4565b9050919050565b60006020820190508181036000830152612fc381612c07565b9050919050565b60006020820190508181036000830152612fe381612c2a565b9050919050565b6000602082019050818103600083015261300381612c4d565b9050919050565b6000602082019050818103600083015261302381612c70565b9050919050565b600060208201905061303f6000830184612c93565b92915050565b600061304f613060565b905061305b82826132db565b919050565b6000604051905090565b600067ffffffffffffffff82111561308557613084613471565b5b61308e826134b4565b9050602081019050919050565b600081519050919050565b600081519050919050565b600082825260208201905092915050565b600082825260208201905092915050565b600081905092915050565b60006130e98261325d565b91506130f48361325d565b9250827fffffffffffffffffffffffffffffffffffffffffffffffffffffffffffffffff0382111561312957613128613386565b5b828201905092915050565b600061313f8261325d565b915061314a8361325d565b92508261315a576131596133b5565b5b828204905092915050565b60006131708261325d565b915061317b8361325d565b9250817fffffffffffffffffffffffffffffffffffffffffffffffffffffffffffffffff04831182151516156131b4576131b3613386565b5b828202905092915050565b60006131ca8261325d565b91506131d58361325d565b9250828210156131e8576131e7613386565b5b828203905092915050565b60006131fe8261323d565b9050919050565b60008115159050919050565b60007fffffffff0000000000000000000000000000000000000000000000000000000082169050919050565b600073ffffffffffffffffffffffffffffffffffffffff82169050919050565b6000819050919050565b82818337600083830152505050565b60005b83811015613294578082015181840152602081019050613279565b838111156132a3576000848401525b50505050565b600060028204905060018216806132c157607f821691505b602082108114156132d5576132d46133e4565b5b50919050565b6132e4826134b4565b810181811067ffffffffffffffff8211171561330357613302613471565b5b80604052505050565b60006133178261325d565b91507fffffffffffffffffffffffffffffffffffffffffffffffffffffffffffffffff82141561334a57613349613386565b5b600182019050919050565b60006133608261325d565b915061336b8361325d565b92508261337b5761337a6133b5565b5b828206905092915050565b7f4e487b7100000000000000000000000000000000000000000000000000000000600052601160045260246000fd5b7f4e487b7100000000000000000000000000000000000000000000000000000000600052601260045260246000fd5b7f4e487b7100000000000000000000000000000000000000000000000000000000600052602260045260246000fd5b7f4e487b7100000000000000000000000000000000000000000000000000000000600052603160045260246000fd5b7f4e487b7100000000000000000000000000000000000000000000000000000000600052603260045260246000fd5b7f4e487b7100000000000000000000000000000000000000000000000000000000600052604160045260246000fd5b600080fd5b600080fd5b600080fd5b600080fd5b6000601f19601f8301169050919050565b7f455243373231456e756d657261626c653a206f776e657220696e646578206f7560008201527f74206f6620626f756e6473000000000000000000000000000000000000000000602082015250565b7f4552433732313a207472616e7366657220746f206e6f6e20455243373231526560008201527f63656976657220696d706c656d656e7465720000000000000000000000000000602082015250565b7f4f776e61626c653a206e6577206f776e657220697320746865207a65726f206160008201527f6464726573730000000000000000000000000000000000000000000000000000602082015250565b7f4552433732313a20746f6b656e20616c7265616479206d696e74656400000000600082015250565b7f45746865722076616c75652073656e7420697320696e636f7272656374000000600082015250565b7f4552433732313a207472616e7366657220746f20746865207a65726f2061646460008201527f7265737300000000000000000000000000000000000000000000000000000000602082015250565b7f4552433732313a20617070726f766520746f2063616c6c657200000000000000600082015250565b7f53616c65206973206e6f74206163746976650000000000000000000000000000600082015250565b7f4552433732313a206f70657261746f7220717565727920666f72206e6f6e657860008201527f697374656e7420746f6b656e0000000000000000000000000000000000000000602082015250565b7f43616e206f6e6c79206d696e7420333020626972647320617420612074696d65600082015250565b7f4552433732313a20617070726f76652063616c6c6572206973206e6f74206f7760008201527f6e6572206e6f7220617070726f76656420666f7220616c6c0000000000000000602082015250565b7f4552433732313a2062616c616e636520717565727920666f7220746865207a6560008201527f726f206164647265737300000000000000000000000000000000000000000000602082015250565b7f4552433732313a206f776e657220717565727920666f72206e6f6e657869737460008201527f656e7420746f6b656e0000000000000000000000000000000000000000000000602082015250565b7f4552433732313a206d696e7420746f20746865207a65726f2061646472657373600082015250565b7f4552433732313a20617070726f76656420717565727920666f72206e6f6e657860008201527f697374656e7420746f6b656e0000000000000000000000000000000000000000602082015250565b7f4f776e61626c653a2063616c6c6572206973206e6f7420746865206f776e6572600082015250565b7f4552433732313a207472616e73666572206f6620746f6b656e2074686174206960008201527f73206e6f74206f776e0000000000000000000000000000000000000000000000602082015250565b7f4552433732314d657461646174613a2055524920717565727920666f72206e6f60008201527f6e6578697374656e7420746f6b656e0000000000000000000000000000000000602082015250565b7f507572636861736520776f756c6420657863656564206d617820737570706c7960008201527f206f662042697264730000000000000000000000000000000000000000000000602082015250565b7f4552433732313a20617070726f76616c20746f2063757272656e74206f776e6560008201527f7200000000000000000000000000000000000000000000000000000000000000602082015250565b7f4552433732313a207472616e736665722063616c6c6572206973206e6f74206f60008201527f776e6572206e6f7220617070726f766564000000000000000000000000000000602082015250565b7f455243373231456e756d657261626c653a20676c6f62616c20696e646578206f60008201527f7574206f6620626f756e64730000000000000000000000000000000000000000602082015250565b613a8e816131f3565b8114613a9957600080fd5b50565b613aa581613205565b8114613ab057600080fd5b50565b613abc81613211565b8114613ac757600080fd5b50565b613ad38161325d565b8114613ade57600080fd5b5056fe697066733a2f2f516d65536a53696e4870506e6d586d73704d6a776958794e367a533445397a63636172694752336a7863615774712fa26469706673582212203036136bde8450dce832b248f2b75558582ca93f5a81d54687245a00b63885b864736f6c63430008070033",
  "immutableReferences": {},
  "source": "pragma solidity ^0.8.7;\r\n\r\nimport \"@openzeppelin/contracts/token/ERC721/extensions/ERC721Enumerable.sol\";\r\nimport \"@openzeppelin/contracts/access/Ownable.sol\";\r\n\r\ncontract PlayBirdMansion is ERC721Enumerable, Ownable {\r\n  uint public constant maxBirdPurchase = 30;\r\n  uint256 public MAX_BIRDS;\r\n  uint256 public birdPrice = 20000000000000000; // 0.02 ETH\r\n  bool public saleActive = false;\r\n\r\n  constructor (string memory name, string memory symbol, uint256 maxSupply) ERC721(name, symbol) {\r\n      MAX_BIRDS = maxSupply;\r\n  }\r\n\r\n  function withdraw() public onlyOwner {\r\n      uint balance = address(this).balance;\r\n      payable(msg.sender).transfer(balance);\r\n  }\r\n\r\n  function _baseURI() internal view override returns (string memory) {\r\n      return \"ipfs://QmeSjSinHpPnmXmspMjwiXyN6zS4E9zccariGR3jxcaWtq/\";\r\n  }\r\n\r\n  function reserveBirds() public onlyOwner {\r\n      uint supply = totalSupply();\r\n      uint i;\r\n      for (i = 0; i < 100; i++) {\r\n          _safeMint(msg.sender, supply + i);\r\n      }\r\n  }\r\n\r\n  function flipSaleState() public onlyOwner {\r\n      saleActive = !saleActive;\r\n  }\r\n\r\n  function mintBird(uint numberOfBirds) public payable {\r\n      require(saleActive, \"Sale is not active\");\r\n      require(numberOfBirds <= maxBirdPurchase, \"Can only mint 30 birds at a time\");\r\n      require(totalSupply() + numberOfBirds <= MAX_BIRDS, \"Purchase would exceed max supply of Birds\");\r\n      require(birdPrice * numberOfBirds <= msg.value, \"Ether value sent is incorrect\");\r\n\r\n      for(uint i = 0; i < numberOfBirds; i++) {\r\n        uint index = totalSupply() + 1;\r\n        if (totalSupply() < MAX_BIRDS) {\r\n            _safeMint(msg.sender, index);\r\n        }\r\n      }\r\n  }\r\n\r\n}\r\n",
  "sourcePath": "/mnt/c/pr0/play-bird-mansion/src/contracts/PlayBirdMansion.sol",
  "compiler": {
    "name": "solc",
    "version": "0.8.7+commit.e28d00a7.Emscripten.clang"
  },
  "schemaVersion": "3.2.3",
  "updatedAt": "2021-09-04T06:43:15.339Z",
  "devdoc": {
    "kind": "dev",
    "methods": {
      "approve(address,uint256)": {
        "details": "See {IERC721-approve}."
      },
      "balanceOf(address)": {
        "details": "See {IERC721-balanceOf}."
      },
      "getApproved(uint256)": {
        "details": "See {IERC721-getApproved}."
      },
      "isApprovedForAll(address,address)": {
        "details": "See {IERC721-isApprovedForAll}."
      },
      "name()": {
        "details": "See {IERC721Metadata-name}."
      },
      "owner()": {
        "details": "Returns the address of the current owner."
      },
      "ownerOf(uint256)": {
        "details": "See {IERC721-ownerOf}."
      },
      "renounceOwnership()": {
        "details": "Leaves the contract without owner. It will not be possible to call `onlyOwner` functions anymore. Can only be called by the current owner. NOTE: Renouncing ownership will leave the contract without an owner, thereby removing any functionality that is only available to the owner."
      },
      "safeTransferFrom(address,address,uint256)": {
        "details": "See {IERC721-safeTransferFrom}."
      },
      "safeTransferFrom(address,address,uint256,bytes)": {
        "details": "See {IERC721-safeTransferFrom}."
      },
      "setApprovalForAll(address,bool)": {
        "details": "See {IERC721-setApprovalForAll}."
      },
      "supportsInterface(bytes4)": {
        "details": "See {IERC165-supportsInterface}."
      },
      "symbol()": {
        "details": "See {IERC721Metadata-symbol}."
      },
      "tokenByIndex(uint256)": {
        "details": "See {IERC721Enumerable-tokenByIndex}."
      },
      "tokenOfOwnerByIndex(address,uint256)": {
        "details": "See {IERC721Enumerable-tokenOfOwnerByIndex}."
      },
      "tokenURI(uint256)": {
        "details": "See {IERC721Metadata-tokenURI}."
      },
      "totalSupply()": {
        "details": "See {IERC721Enumerable-totalSupply}."
      },
      "transferFrom(address,address,uint256)": {
        "details": "See {IERC721-transferFrom}."
      },
      "transferOwnership(address)": {
        "details": "Transfers ownership of the contract to a new account (`newOwner`). Can only be called by the current owner."
      }
    },
    "version": 1
  },
  "userdoc": {
    "kind": "user",
    "methods": {},
    "version": 1
  }
}