{
  "contractName": "PlayBirdMansion",
  "abi": [
    {
      "inputs": [
        {
          "internalType": "string",
          "name": "name",
          "type": "string"
        },
        {
          "internalType": "string",
          "name": "symbol",
          "type": "string"
        },
        {
          "internalType": "uint256",
          "name": "maxSupply",
          "type": "uint256"
        }
      ],
      "stateMutability": "nonpayable",
      "type": "constructor"
    },
    {
      "anonymous": false,
      "inputs": [
        {
          "indexed": true,
          "internalType": "address",
          "name": "owner",
          "type": "address"
        },
        {
          "indexed": true,
          "internalType": "address",
          "name": "approved",
          "type": "address"
        },
        {
          "indexed": true,
          "internalType": "uint256",
          "name": "tokenId",
          "type": "uint256"
        }
      ],
      "name": "Approval",
      "type": "event"
    },
    {
      "anonymous": false,
      "inputs": [
        {
          "indexed": true,
          "internalType": "address",
          "name": "owner",
          "type": "address"
        },
        {
          "indexed": true,
          "internalType": "address",
          "name": "operator",
          "type": "address"
        },
        {
          "indexed": false,
          "internalType": "bool",
          "name": "approved",
          "type": "bool"
        }
      ],
      "name": "ApprovalForAll",
      "type": "event"
    },
    {
      "anonymous": false,
      "inputs": [
        {
          "indexed": true,
          "internalType": "address",
          "name": "previousOwner",
          "type": "address"
        },
        {
          "indexed": true,
          "internalType": "address",
          "name": "newOwner",
          "type": "address"
        }
      ],
      "name": "OwnershipTransferred",
      "type": "event"
    },
    {
      "anonymous": false,
      "inputs": [
        {
          "indexed": true,
          "internalType": "address",
          "name": "from",
          "type": "address"
        },
        {
          "indexed": true,
          "internalType": "address",
          "name": "to",
          "type": "address"
        },
        {
          "indexed": true,
          "internalType": "uint256",
          "name": "tokenId",
          "type": "uint256"
        }
      ],
      "name": "Transfer",
      "type": "event"
    },
    {
      "inputs": [],
      "name": "MAX_BIRDS",
      "outputs": [
        {
          "internalType": "uint256",
          "name": "",
          "type": "uint256"
        }
      ],
      "stateMutability": "view",
      "type": "function",
      "constant": true
    },
    {
      "inputs": [
        {
          "internalType": "address",
          "name": "to",
          "type": "address"
        },
        {
          "internalType": "uint256",
          "name": "tokenId",
          "type": "uint256"
        }
      ],
      "name": "approve",
      "outputs": [],
      "stateMutability": "nonpayable",
      "type": "function"
    },
    {
      "inputs": [
        {
          "internalType": "address",
          "name": "owner",
          "type": "address"
        }
      ],
      "name": "balanceOf",
      "outputs": [
        {
          "internalType": "uint256",
          "name": "",
          "type": "uint256"
        }
      ],
      "stateMutability": "view",
      "type": "function",
      "constant": true
    },
    {
      "inputs": [],
      "name": "birdPrice",
      "outputs": [
        {
          "internalType": "uint256",
          "name": "",
          "type": "uint256"
        }
      ],
      "stateMutability": "view",
      "type": "function",
      "constant": true
    },
    {
      "inputs": [
        {
          "internalType": "uint256",
          "name": "tokenId",
          "type": "uint256"
        }
      ],
      "name": "getApproved",
      "outputs": [
        {
          "internalType": "address",
          "name": "",
          "type": "address"
        }
      ],
      "stateMutability": "view",
      "type": "function",
      "constant": true
    },
    {
      "inputs": [
        {
          "internalType": "address",
          "name": "owner",
          "type": "address"
        },
        {
          "internalType": "address",
          "name": "operator",
          "type": "address"
        }
      ],
      "name": "isApprovedForAll",
      "outputs": [
        {
          "internalType": "bool",
          "name": "",
          "type": "bool"
        }
      ],
      "stateMutability": "view",
      "type": "function",
      "constant": true
    },
    {
      "inputs": [],
      "name": "maxBirdPurchase",
      "outputs": [
        {
          "internalType": "uint256",
          "name": "",
          "type": "uint256"
        }
      ],
      "stateMutability": "view",
      "type": "function",
      "constant": true
    },
    {
      "inputs": [],
      "name": "name",
      "outputs": [
        {
          "internalType": "string",
          "name": "",
          "type": "string"
        }
      ],
      "stateMutability": "view",
      "type": "function",
      "constant": true
    },
    {
      "inputs": [],
      "name": "owner",
      "outputs": [
        {
          "internalType": "address",
          "name": "",
          "type": "address"
        }
      ],
      "stateMutability": "view",
      "type": "function",
      "constant": true
    },
    {
      "inputs": [
        {
          "internalType": "uint256",
          "name": "tokenId",
          "type": "uint256"
        }
      ],
      "name": "ownerOf",
      "outputs": [
        {
          "internalType": "address",
          "name": "",
          "type": "address"
        }
      ],
      "stateMutability": "view",
      "type": "function",
      "constant": true
    },
    {
      "inputs": [],
      "name": "renounceOwnership",
      "outputs": [],
      "stateMutability": "nonpayable",
      "type": "function"
    },
    {
      "inputs": [
        {
          "internalType": "address",
          "name": "from",
          "type": "address"
        },
        {
          "internalType": "address",
          "name": "to",
          "type": "address"
        },
        {
          "internalType": "uint256",
          "name": "tokenId",
          "type": "uint256"
        }
      ],
      "name": "safeTransferFrom",
      "outputs": [],
      "stateMutability": "nonpayable",
      "type": "function"
    },
    {
      "inputs": [
        {
          "internalType": "address",
          "name": "from",
          "type": "address"
        },
        {
          "internalType": "address",
          "name": "to",
          "type": "address"
        },
        {
          "internalType": "uint256",
          "name": "tokenId",
          "type": "uint256"
        },
        {
          "internalType": "bytes",
          "name": "_data",
          "type": "bytes"
        }
      ],
      "name": "safeTransferFrom",
      "outputs": [],
      "stateMutability": "nonpayable",
      "type": "function"
    },
    {
      "inputs": [],
      "name": "saleActive",
      "outputs": [
        {
          "internalType": "bool",
          "name": "",
          "type": "bool"
        }
      ],
      "stateMutability": "view",
      "type": "function",
      "constant": true
    },
    {
      "inputs": [
        {
          "internalType": "address",
          "name": "operator",
          "type": "address"
        },
        {
          "internalType": "bool",
          "name": "approved",
          "type": "bool"
        }
      ],
      "name": "setApprovalForAll",
      "outputs": [],
      "stateMutability": "nonpayable",
      "type": "function"
    },
    {
      "inputs": [
        {
          "internalType": "bytes4",
          "name": "interfaceId",
          "type": "bytes4"
        }
      ],
      "name": "supportsInterface",
      "outputs": [
        {
          "internalType": "bool",
          "name": "",
          "type": "bool"
        }
      ],
      "stateMutability": "view",
      "type": "function",
      "constant": true
    },
    {
      "inputs": [],
      "name": "symbol",
      "outputs": [
        {
          "internalType": "string",
          "name": "",
          "type": "string"
        }
      ],
      "stateMutability": "view",
      "type": "function",
      "constant": true
    },
    {
      "inputs": [
        {
          "internalType": "uint256",
          "name": "index",
          "type": "uint256"
        }
      ],
      "name": "tokenByIndex",
      "outputs": [
        {
          "internalType": "uint256",
          "name": "",
          "type": "uint256"
        }
      ],
      "stateMutability": "view",
      "type": "function",
      "constant": true
    },
    {
      "inputs": [
        {
          "internalType": "address",
          "name": "owner",
          "type": "address"
        },
        {
          "internalType": "uint256",
          "name": "index",
          "type": "uint256"
        }
      ],
      "name": "tokenOfOwnerByIndex",
      "outputs": [
        {
          "internalType": "uint256",
          "name": "",
          "type": "uint256"
        }
      ],
      "stateMutability": "view",
      "type": "function",
      "constant": true
    },
    {
      "inputs": [
        {
          "internalType": "uint256",
          "name": "tokenId",
          "type": "uint256"
        }
      ],
      "name": "tokenURI",
      "outputs": [
        {
          "internalType": "string",
          "name": "",
          "type": "string"
        }
      ],
      "stateMutability": "view",
      "type": "function",
      "constant": true
    },
    {
      "inputs": [],
      "name": "totalSupply",
      "outputs": [
        {
          "internalType": "uint256",
          "name": "",
          "type": "uint256"
        }
      ],
      "stateMutability": "view",
      "type": "function",
      "constant": true
    },
    {
      "inputs": [
        {
          "internalType": "address",
          "name": "from",
          "type": "address"
        },
        {
          "internalType": "address",
          "name": "to",
          "type": "address"
        },
        {
          "internalType": "uint256",
          "name": "tokenId",
          "type": "uint256"
        }
      ],
      "name": "transferFrom",
      "outputs": [],
      "stateMutability": "nonpayable",
      "type": "function"
    },
    {
      "inputs": [
        {
          "internalType": "address",
          "name": "newOwner",
          "type": "address"
        }
      ],
      "name": "transferOwnership",
      "outputs": [],
      "stateMutability": "nonpayable",
      "type": "function"
    },
    {
      "inputs": [],
      "name": "withdraw",
      "outputs": [],
      "stateMutability": "nonpayable",
      "type": "function"
    },
    {
      "inputs": [],
      "name": "reserveBirds",
      "outputs": [],
      "stateMutability": "nonpayable",
      "type": "function"
    },
    {
      "inputs": [],
      "name": "flipSaleState",
      "outputs": [],
      "stateMutability": "nonpayable",
      "type": "function"
    },
    {
      "inputs": [
        {
          "internalType": "uint256",
          "name": "numberOfBirds",
          "type": "uint256"
        }
      ],
      "name": "mintBird",
      "outputs": [],
      "stateMutability": "payable",
      "type": "function",
      "payable": true
    }
  ],
  "bytecode": "0x608060405266470de4df820000600c556000600d60006101000a81548160ff0219169083151502179055503480156200003757600080fd5b506040516200405c3803806200405c83398181016040528101906200005d9190620002d6565b828281600090805190602001906200007792919062000191565b5080600190805190602001906200009092919062000191565b505050620000b3620000a7620000c360201b60201c565b620000cb60201b60201c565b80600b8190555050505062000518565b600033905090565b6000600a60009054906101000a900473ffffffffffffffffffffffffffffffffffffffff16905081600a60006101000a81548173ffffffffffffffffffffffffffffffffffffffff021916908373ffffffffffffffffffffffffffffffffffffffff1602179055508173ffffffffffffffffffffffffffffffffffffffff168173ffffffffffffffffffffffffffffffffffffffff167f8be0079c531659141344cd1fd0a4f28419497f9722a3daafe3b4186f6b6457e060405160405180910390a35050565b8280546200019f906200040f565b90600052602060002090601f016020900481019282620001c357600085556200020f565b82601f10620001de57805160ff19168380011785556200020f565b828001600101855582156200020f579182015b828111156200020e578251825591602001919060010190620001f1565b5b5090506200021e919062000222565b5090565b5b808211156200023d57600081600090555060010162000223565b5090565b600062000258620002528462000399565b62000370565b905082815260208101848484011115620002775762000276620004de565b5b62000284848285620003d9565b509392505050565b600082601f830112620002a457620002a3620004d9565b5b8151620002b684826020860162000241565b91505092915050565b600081519050620002d081620004fe565b92915050565b600080600060608486031215620002f257620002f1620004e8565b5b600084015167ffffffffffffffff811115620003135762000312620004e3565b5b62000321868287016200028c565b935050602084015167ffffffffffffffff811115620003455762000344620004e3565b5b62000353868287016200028c565b92505060406200036686828701620002bf565b9150509250925092565b60006200037c6200038f565b90506200038a828262000445565b919050565b6000604051905090565b600067ffffffffffffffff821115620003b757620003b6620004aa565b5b620003c282620004ed565b9050602081019050919050565b6000819050919050565b60005b83811015620003f9578082015181840152602081019050620003dc565b8381111562000409576000848401525b50505050565b600060028204905060018216806200042857607f821691505b602082108114156200043f576200043e6200047b565b5b50919050565b6200045082620004ed565b810181811067ffffffffffffffff82111715620004725762000471620004aa565b5b80604052505050565b7f4e487b7100000000000000000000000000000000000000000000000000000000600052602260045260246000fd5b7f4e487b7100000000000000000000000000000000000000000000000000000000600052604160045260246000fd5b600080fd5b600080fd5b600080fd5b600080fd5b6000601f19601f8301169050919050565b6200050981620003cf565b81146200051557600080fd5b50565b613b3480620005286000396000f3fe60806040526004361061019c5760003560e01c806368428a1b116100ec578063ab25b9871161008a578063d3e8644011610064578063d3e86440146105a2578063e985e9c5146105cd578063f2fde38b1461060a578063ff46973e146106335761019c565b8063ab25b98714610525578063b88d4fde1461053c578063c87b56dd146105655761019c565b80638da5cb5b116100c65780638da5cb5b1461047b5780638e04f5c0146104a657806395d89b41146104d1578063a22cb465146104fc5761019c565b806368428a1b146103fc57806370a0823114610427578063715018a6146104645761019c565b806323b872dd116101595780633ccfd60b116101335780633ccfd60b1461034257806342842e0e146103595780634f6ccce7146103825780636352211e146103bf5761019c565b806323b872dd146102c55780632f745c59146102ee57806334918dfd1461032b5761019c565b806301ffc9a7146101a157806306fdde03146101de578063081812fc14610209578063095ea7b31461024657806318160ddd1461026f5780631f73bf7f1461029a575b600080fd5b3480156101ad57600080fd5b506101c860048036038101906101c39190612866565b61064f565b6040516101d59190612d4a565b60405180910390f35b3480156101ea57600080fd5b506101f36106c9565b6040516102009190612d65565b60405180910390f35b34801561021557600080fd5b50610230600480360381019061022b91906128c0565b61075b565b60405161023d9190612ce3565b60405180910390f35b34801561025257600080fd5b5061026d60048036038101906102689190612826565b6107e0565b005b34801561027b57600080fd5b506102846108f8565b6040516102919190613047565b60405180910390f35b3480156102a657600080fd5b506102af610905565b6040516102bc9190613047565b60405180910390f35b3480156102d157600080fd5b506102ec60048036038101906102e79190612710565b61090a565b005b3480156102fa57600080fd5b5061031560048036038101906103109190612826565b61096a565b6040516103229190613047565b60405180910390f35b34801561033757600080fd5b50610340610a0f565b005b34801561034e57600080fd5b50610357610ab7565b005b34801561036557600080fd5b50610380600480360381019061037b9190612710565b610b82565b005b34801561038e57600080fd5b506103a960048036038101906103a491906128c0565b610ba2565b6040516103b69190613047565b60405180910390f35b3480156103cb57600080fd5b506103e660048036038101906103e191906128c0565b610c13565b6040516103f39190612ce3565b60405180910390f35b34801561040857600080fd5b50610411610cc5565b60405161041e9190612d4a565b60405180910390f35b34801561043357600080fd5b5061044e600480360381019061044991906126a3565b610cd8565b60405161045b9190613047565b60405180910390f35b34801561047057600080fd5b50610479610d90565b005b34801561048757600080fd5b50610490610e18565b60405161049d9190612ce3565b60405180910390f35b3480156104b257600080fd5b506104bb610e42565b6040516104c89190613047565b60405180910390f35b3480156104dd57600080fd5b506104e6610e48565b6040516104f39190612d65565b60405180910390f35b34801561050857600080fd5b50610523600480360381019061051e91906127e6565b610eda565b005b34801561053157600080fd5b5061053a61105b565b005b34801561054857600080fd5b50610563600480360381019061055e9190612763565b61111b565b005b34801561057157600080fd5b5061058c600480360381019061058791906128c0565b61117d565b6040516105999190612d65565b60405180910390f35b3480156105ae57600080fd5b506105b7611224565b6040516105c49190613047565b60405180910390f35b3480156105d957600080fd5b506105f460048036038101906105ef91906126d0565b61122a565b6040516106019190612d4a565b60405180910390f35b34801561061657600080fd5b50610631600480360381019061062c91906126a3565b6112be565b005b61064d600480360381019061064891906128c0565b6113b6565b005b60007f780e9d63000000000000000000000000000000000000000000000000000000007bffffffffffffffffffffffffffffffffffffffffffffffffffffffff1916827bffffffffffffffffffffffffffffffffffffffffffffffffffffffff191614806106c257506106c182611547565b5b9050919050565b6060600080546106d8906132c6565b80601f0160208091040260200160405190810160405280929190818152602001828054610704906132c6565b80156107515780601f1061072657610100808354040283529160200191610751565b820191906000526020600020905b81548152906001019060200180831161073457829003601f168201915b5050505050905090565b600061076682611629565b6107a5576040517f08c379a000000000000000000000000000000000000000000000000000000000815260040161079c90612f47565b60405180910390fd5b6004600083815260200190815260200160002060009054906101000a900473ffffffffffffffffffffffffffffffffffffffff169050919050565b60006107eb82610c13565b90508073ffffffffffffffffffffffffffffffffffffffff168373ffffffffffffffffffffffffffffffffffffffff16141561085c576040517f08c379a000000000000000000000000000000000000000000000000000000000815260040161085390612fe7565b60405180910390fd5b8073ffffffffffffffffffffffffffffffffffffffff1661087b611695565b73ffffffffffffffffffffffffffffffffffffffff1614806108aa57506108a9816108a4611695565b61122a565b5b6108e9576040517f08c379a00000000000000000000000000000000000000000000000000000000081526004016108e090612ec7565b60405180910390fd5b6108f3838361169d565b505050565b6000600880549050905090565b601e81565b61091b610915611695565b82611756565b61095a576040517f08c379a000000000000000000000000000000000000000000000000000000000815260040161095190613007565b60405180910390fd5b610965838383611834565b505050565b600061097583610cd8565b82106109b6576040517f08c379a00000000000000000000000000000000000000000000000000000000081526004016109ad90612d87565b60405180910390fd5b600660008473ffffffffffffffffffffffffffffffffffffffff1673ffffffffffffffffffffffffffffffffffffffff168152602001908152602001600020600083815260200190815260200160002054905092915050565b610a17611695565b73ffffffffffffffffffffffffffffffffffffffff16610a35610e18565b73ffffffffffffffffffffffffffffffffffffffff1614610a8b576040517f08c379a0000000000000000000000000000000000000000000000000000000008152600401610a8290612f67565b60405180910390fd5b600d60009054906101000a900460ff1615600d60006101000a81548160ff021916908315150217905550565b610abf611695565b73ffffffffffffffffffffffffffffffffffffffff16610add610e18565b73ffffffffffffffffffffffffffffffffffffffff1614610b33576040517f08c379a0000000000000000000000000000000000000000000000000000000008152600401610b2a90612f67565b60405180910390fd5b60004790503373ffffffffffffffffffffffffffffffffffffffff166108fc829081150290604051600060405180830381858888f19350505050158015610b7e573d6000803e3d6000fd5b5050565b610b9d8383836040518060200160405280600081525061111b565b505050565b6000610bac6108f8565b8210610bed576040517f08c379a0000000000000000000000000000000000000000000000000000000008152600401610be490613027565b60405180910390fd5b60088281548110610c0157610c0061345f565b5b90600052602060002001549050919050565b6000806002600084815260200190815260200160002060009054906101000a900473ffffffffffffffffffffffffffffffffffffffff169050600073ffffffffffffffffffffffffffffffffffffffff168173ffffffffffffffffffffffffffffffffffffffff161415610cbc576040517f08c379a0000000000000000000000000000000000000000000000000000000008152600401610cb390612f07565b60405180910390fd5b80915050919050565b600d60009054906101000a900460ff1681565b60008073ffffffffffffffffffffffffffffffffffffffff168273ffffffffffffffffffffffffffffffffffffffff161415610d49576040517f08c379a0000000000000000000000000000000000000000000000000000000008152600401610d4090612ee7565b60405180910390fd5b600360008373ffffffffffffffffffffffffffffffffffffffff1673ffffffffffffffffffffffffffffffffffffffff168152602001908152602001600020549050919050565b610d98611695565b73ffffffffffffffffffffffffffffffffffffffff16610db6610e18565b73ffffffffffffffffffffffffffffffffffffffff1614610e0c576040517f08c379a0000000000000000000000000000000000000000000000000000000008152600401610e0390612f67565b60405180910390fd5b610e166000611a90565b565b6000600a60009054906101000a900473ffffffffffffffffffffffffffffffffffffffff16905090565b600c5481565b606060018054610e57906132c6565b80601f0160208091040260200160405190810160405280929190818152602001828054610e83906132c6565b8015610ed05780601f10610ea557610100808354040283529160200191610ed0565b820191906000526020600020905b815481529060010190602001808311610eb357829003601f168201915b5050505050905090565b610ee2611695565b73ffffffffffffffffffffffffffffffffffffffff168273ffffffffffffffffffffffffffffffffffffffff161415610f50576040517f08c379a0000000000000000000000000000000000000000000000000000000008152600401610f4790612e47565b60405180910390fd5b8060056000610f5d611695565b73ffffffffffffffffffffffffffffffffffffffff1673ffffffffffffffffffffffffffffffffffffffff16815260200190815260200160002060008473ffffffffffffffffffffffffffffffffffffffff1673ffffffffffffffffffffffffffffffffffffffff16815260200190815260200160002060006101000a81548160ff0219169083151502179055508173ffffffffffffffffffffffffffffffffffffffff1661100a611695565b73ffffffffffffffffffffffffffffffffffffffff167f17307eab39ab6107e8899845ad3d59bd9653f200f220920489ca2b5937696c318360405161104f9190612d4a565b60405180910390a35050565b611063611695565b73ffffffffffffffffffffffffffffffffffffffff16611081610e18565b73ffffffffffffffffffffffffffffffffffffffff16146110d7576040517f08c379a00000000000000000000000000000000000000000000000000000000081526004016110ce90612f67565b60405180910390fd5b60006110e16108f8565b905060005b6064811015611117576111043382846110ff91906130fb565b611b56565b808061110f90613329565b9150506110e6565b5050565b61112c611126611695565b83611756565b61116b576040517f08c379a000000000000000000000000000000000000000000000000000000000815260040161116290613007565b60405180910390fd5b61117784848484611b74565b50505050565b606061118882611629565b6111c7576040517f08c379a00000000000000000000000000000000000000000000000000000000081526004016111be90612fa7565b60405180910390fd5b60006111d1611bd0565b905060008151116111f1576040518060200160405280600081525061121c565b806111fb84611c0d565b60405160200161120c929190612cbf565b6040516020818303038152906040525b915050919050565b600b5481565b6000600560008473ffffffffffffffffffffffffffffffffffffffff1673ffffffffffffffffffffffffffffffffffffffff16815260200190815260200160002060008373ffffffffffffffffffffffffffffffffffffffff1673ffffffffffffffffffffffffffffffffffffffff16815260200190815260200160002060009054906101000a900460ff16905092915050565b6112c6611695565b73ffffffffffffffffffffffffffffffffffffffff166112e4610e18565b73ffffffffffffffffffffffffffffffffffffffff161461133a576040517f08c379a000000000000000000000000000000000000000000000000000000000815260040161133190612f67565b60405180910390fd5b600073ffffffffffffffffffffffffffffffffffffffff168173ffffffffffffffffffffffffffffffffffffffff1614156113aa576040517f08c379a00000000000000000000000000000000000000000000000000000000081526004016113a190612dc7565b60405180910390fd5b6113b381611a90565b50565b600d60009054906101000a900460ff16611405576040517f08c379a00000000000000000000000000000000000000000000000000000000081526004016113fc90612e67565b60405180910390fd5b601e811115611449576040517f08c379a000000000000000000000000000000000000000000000000000000000815260040161144090612ea7565b60405180910390fd5b600b54816114556108f8565b61145f91906130fb565b11156114a0576040517f08c379a000000000000000000000000000000000000000000000000000000000815260040161149790612fc7565b60405180910390fd5b3481600c546114af9190613182565b11156114f0576040517f08c379a00000000000000000000000000000000000000000000000000000000081526004016114e790612e07565b60405180910390fd5b60005b8181101561154357600060016115076108f8565b61151191906130fb565b9050600b5461151e6108f8565b101561152f5761152e3382611b56565b5b50808061153b90613329565b9150506114f3565b5050565b60007f80ac58cd000000000000000000000000000000000000000000000000000000007bffffffffffffffffffffffffffffffffffffffffffffffffffffffff1916827bffffffffffffffffffffffffffffffffffffffffffffffffffffffff1916148061161257507f5b5e139f000000000000000000000000000000000000000000000000000000007bffffffffffffffffffffffffffffffffffffffffffffffffffffffff1916827bffffffffffffffffffffffffffffffffffffffffffffffffffffffff1916145b80611622575061162182611d6e565b5b9050919050565b60008073ffffffffffffffffffffffffffffffffffffffff166002600084815260200190815260200160002060009054906101000a900473ffffffffffffffffffffffffffffffffffffffff1673ffffffffffffffffffffffffffffffffffffffff1614159050919050565b600033905090565b816004600083815260200190815260200160002060006101000a81548173ffffffffffffffffffffffffffffffffffffffff021916908373ffffffffffffffffffffffffffffffffffffffff160217905550808273ffffffffffffffffffffffffffffffffffffffff1661171083610c13565b73ffffffffffffffffffffffffffffffffffffffff167f8c5be1e5ebec7d5bd14f71427d1e84f3dd0314c0f7b2291e5b200ac8c7c3b92560405160405180910390a45050565b600061176182611629565b6117a0576040517f08c379a000000000000000000000000000000000000000000000000000000000815260040161179790612e87565b60405180910390fd5b60006117ab83610c13565b90508073ffffffffffffffffffffffffffffffffffffffff168473ffffffffffffffffffffffffffffffffffffffff16148061181a57508373ffffffffffffffffffffffffffffffffffffffff166118028461075b565b73ffffffffffffffffffffffffffffffffffffffff16145b8061182b575061182a818561122a565b5b91505092915050565b8273ffffffffffffffffffffffffffffffffffffffff1661185482610c13565b73ffffffffffffffffffffffffffffffffffffffff16146118aa576040517f08c379a00000000000000000000000000000000000000000000000000000000081526004016118a190612f87565b60405180910390fd5b600073ffffffffffffffffffffffffffffffffffffffff168273ffffffffffffffffffffffffffffffffffffffff16141561191a576040517f08c379a000000000000000000000000000000000000000000000000000000000815260040161191190612e27565b60405180910390fd5b611925838383611dd8565b61193060008261169d565b6001600360008573ffffffffffffffffffffffffffffffffffffffff1673ffffffffffffffffffffffffffffffffffffffff168152602001908152602001600020600082825461198091906131dc565b925050819055506001600360008473ffffffffffffffffffffffffffffffffffffffff1673ffffffffffffffffffffffffffffffffffffffff16815260200190815260200160002060008282546119d791906130fb565b92505081905550816002600083815260200190815260200160002060006101000a81548173ffffffffffffffffffffffffffffffffffffffff021916908373ffffffffffffffffffffffffffffffffffffffff160217905550808273ffffffffffffffffffffffffffffffffffffffff168473ffffffffffffffffffffffffffffffffffffffff167fddf252ad1be2c89b69c2b068fc378daa952ba7f163c4a11628f55a4df523b3ef60405160405180910390a4505050565b6000600a60009054906101000a900473ffffffffffffffffffffffffffffffffffffffff16905081600a60006101000a81548173ffffffffffffffffffffffffffffffffffffffff021916908373ffffffffffffffffffffffffffffffffffffffff1602179055508173ffffffffffffffffffffffffffffffffffffffff168173ffffffffffffffffffffffffffffffffffffffff167f8be0079c531659141344cd1fd0a4f28419497f9722a3daafe3b4186f6b6457e060405160405180910390a35050565b611b70828260405180602001604052806000815250611eec565b5050565b611b7f848484611834565b611b8b84848484611f47565b611bca576040517f08c379a0000000000000000000000000000000000000000000000000000000008152600401611bc190612da7565b60405180910390fd5b50505050565b60606040518060400160405280600581526020017f697066732f000000000000000000000000000000000000000000000000000000815250905090565b60606000821415611c55576040518060400160405280600181526020017f30000000000000000000000000000000000000000000000000000000000000008152509050611d69565b600082905060005b60008214611c87578080611c7090613329565b915050600a82611c809190613151565b9150611c5d565b60008167ffffffffffffffff811115611ca357611ca261348e565b5b6040519080825280601f01601f191660200182016040528015611cd55781602001600182028036833780820191505090505b5090505b60008514611d6257600182611cee91906131dc565b9150600a85611cfd9190613372565b6030611d0991906130fb565b60f81b818381518110611d1f57611d1e61345f565b5b60200101907effffffffffffffffffffffffffffffffffffffffffffffffffffffffffffff1916908160001a905350600a85611d5b9190613151565b9450611cd9565b8093505050505b919050565b60007f01ffc9a7000000000000000000000000000000000000000000000000000000007bffffffffffffffffffffffffffffffffffffffffffffffffffffffff1916827bffffffffffffffffffffffffffffffffffffffffffffffffffffffff1916149050919050565b611de38383836120de565b600073ffffffffffffffffffffffffffffffffffffffff168373ffffffffffffffffffffffffffffffffffffffff161415611e2657611e21816120e3565b611e65565b8173ffffffffffffffffffffffffffffffffffffffff168373ffffffffffffffffffffffffffffffffffffffff1614611e6457611e63838261212c565b5b5b600073ffffffffffffffffffffffffffffffffffffffff168273ffffffffffffffffffffffffffffffffffffffff161415611ea857611ea381612299565b611ee7565b8273ffffffffffffffffffffffffffffffffffffffff168273ffffffffffffffffffffffffffffffffffffffff1614611ee657611ee5828261236a565b5b5b505050565b611ef683836123e9565b611f036000848484611f47565b611f42576040517f08c379a0000000000000000000000000000000000000000000000000000000008152600401611f3990612da7565b60405180910390fd5b505050565b6000611f688473ffffffffffffffffffffffffffffffffffffffff166125b7565b156120d1578373ffffffffffffffffffffffffffffffffffffffff1663150b7a02611f91611695565b8786866040518563ffffffff1660e01b8152600401611fb39493929190612cfe565b602060405180830381600087803b158015611fcd57600080fd5b505af1925050508015611ffe57506040513d601f19601f82011682018060405250810190611ffb9190612893565b60015b612081573d806000811461202e576040519150601f19603f3d011682016040523d82523d6000602084013e612033565b606091505b50600081511415612079576040517f08c379a000000000000000000000000000000000000000000000000000000000815260040161207090612da7565b60405180910390fd5b805181602001fd5b63150b7a0260e01b7bffffffffffffffffffffffffffffffffffffffffffffffffffffffff1916817bffffffffffffffffffffffffffffffffffffffffffffffffffffffff1916149150506120d6565b600190505b949350505050565b505050565b6008805490506009600083815260200190815260200160002081905550600881908060018154018082558091505060019003906000526020600020016000909190919091505550565b6000600161213984610cd8565b61214391906131dc565b9050600060076000848152602001908152602001600020549050818114612228576000600660008673ffffffffffffffffffffffffffffffffffffffff1673ffffffffffffffffffffffffffffffffffffffff168152602001908152602001600020600084815260200190815260200160002054905080600660008773ffffffffffffffffffffffffffffffffffffffff1673ffffffffffffffffffffffffffffffffffffffff168152602001908152602001600020600084815260200190815260200160002081905550816007600083815260200190815260200160002081905550505b6007600084815260200190815260200160002060009055600660008573ffffffffffffffffffffffffffffffffffffffff1673ffffffffffffffffffffffffffffffffffffffff16815260200190815260200160002060008381526020019081526020016000206000905550505050565b600060016008805490506122ad91906131dc565b90506000600960008481526020019081526020016000205490506000600883815481106122dd576122dc61345f565b5b9060005260206000200154905080600883815481106122ff576122fe61345f565b5b90600052602060002001819055508160096000838152602001908152602001600020819055506009600085815260200190815260200160002060009055600880548061234e5761234d613430565b5b6001900381819060005260206000200160009055905550505050565b600061237583610cd8565b905081600660008573ffffffffffffffffffffffffffffffffffffffff1673ffffffffffffffffffffffffffffffffffffffff168152602001908152602001600020600083815260200190815260200160002081905550806007600084815260200190815260200160002081905550505050565b600073ffffffffffffffffffffffffffffffffffffffff168273ffffffffffffffffffffffffffffffffffffffff161415612459576040517f08c379a000000000000000000000000000000000000000000000000000000000815260040161245090612f27565b60405180910390fd5b61246281611629565b156124a2576040517f08c379a000000000000000000000000000000000000000000000000000000000815260040161249990612de7565b60405180910390fd5b6124ae60008383611dd8565b6001600360008473ffffffffffffffffffffffffffffffffffffffff1673ffffffffffffffffffffffffffffffffffffffff16815260200190815260200160002060008282546124fe91906130fb565b92505081905550816002600083815260200190815260200160002060006101000a81548173ffffffffffffffffffffffffffffffffffffffff021916908373ffffffffffffffffffffffffffffffffffffffff160217905550808273ffffffffffffffffffffffffffffffffffffffff16600073ffffffffffffffffffffffffffffffffffffffff167fddf252ad1be2c89b69c2b068fc378daa952ba7f163c4a11628f55a4df523b3ef60405160405180910390a45050565b600080823b905060008111915050919050565b60006125dd6125d884613087565b613062565b9050828152602081018484840111156125f9576125f86134c2565b5b612604848285613284565b509392505050565b60008135905061261b81613aa2565b92915050565b60008135905061263081613ab9565b92915050565b60008135905061264581613ad0565b92915050565b60008151905061265a81613ad0565b92915050565b600082601f830112612675576126746134bd565b5b81356126858482602086016125ca565b91505092915050565b60008135905061269d81613ae7565b92915050565b6000602082840312156126b9576126b86134cc565b5b60006126c78482850161260c565b91505092915050565b600080604083850312156126e7576126e66134cc565b5b60006126f58582860161260c565b92505060206127068582860161260c565b9150509250929050565b600080600060608486031215612729576127286134cc565b5b60006127378682870161260c565b93505060206127488682870161260c565b92505060406127598682870161268e565b9150509250925092565b6000806000806080858703121561277d5761277c6134cc565b5b600061278b8782880161260c565b945050602061279c8782880161260c565b93505060406127ad8782880161268e565b925050606085013567ffffffffffffffff8111156127ce576127cd6134c7565b5b6127da87828801612660565b91505092959194509250565b600080604083850312156127fd576127fc6134cc565b5b600061280b8582860161260c565b925050602061281c85828601612621565b9150509250929050565b6000806040838503121561283d5761283c6134cc565b5b600061284b8582860161260c565b925050602061285c8582860161268e565b9150509250929050565b60006020828403121561287c5761287b6134cc565b5b600061288a84828501612636565b91505092915050565b6000602082840312156128a9576128a86134cc565b5b60006128b78482850161264b565b91505092915050565b6000602082840312156128d6576128d56134cc565b5b60006128e48482850161268e565b91505092915050565b6128f681613210565b82525050565b61290581613222565b82525050565b6000612916826130b8565b61292081856130ce565b9350612930818560208601613293565b612939816134d1565b840191505092915050565b600061294f826130c3565b61295981856130df565b9350612969818560208601613293565b612972816134d1565b840191505092915050565b6000612988826130c3565b61299281856130f0565b93506129a2818560208601613293565b80840191505092915050565b60006129bb602b836130df565b91506129c6826134e2565b604082019050919050565b60006129de6032836130df565b91506129e982613531565b604082019050919050565b6000612a016026836130df565b9150612a0c82613580565b604082019050919050565b6000612a24601c836130df565b9150612a2f826135cf565b602082019050919050565b6000612a47601d836130df565b9150612a52826135f8565b602082019050919050565b6000612a6a6024836130df565b9150612a7582613621565b604082019050919050565b6000612a8d6019836130df565b9150612a9882613670565b602082019050919050565b6000612ab06012836130df565b9150612abb82613699565b602082019050919050565b6000612ad3602c836130df565b9150612ade826136c2565b604082019050919050565b6000612af66020836130df565b9150612b0182613711565b602082019050919050565b6000612b196038836130df565b9150612b248261373a565b604082019050919050565b6000612b3c602a836130df565b9150612b4782613789565b604082019050919050565b6000612b5f6029836130df565b9150612b6a826137d8565b604082019050919050565b6000612b826020836130df565b9150612b8d82613827565b602082019050919050565b6000612ba5602c836130df565b9150612bb082613850565b604082019050919050565b6000612bc86020836130df565b9150612bd38261389f565b602082019050919050565b6000612beb6029836130df565b9150612bf6826138c8565b604082019050919050565b6000612c0e602f836130df565b9150612c1982613917565b604082019050919050565b6000612c316029836130df565b9150612c3c82613966565b604082019050919050565b6000612c546021836130df565b9150612c5f826139b5565b604082019050919050565b6000612c776031836130df565b9150612c8282613a04565b604082019050919050565b6000612c9a602c836130df565b9150612ca582613a53565b604082019050919050565b612cb98161327a565b82525050565b6000612ccb828561297d565b9150612cd7828461297d565b91508190509392505050565b6000602082019050612cf860008301846128ed565b92915050565b6000608082019050612d1360008301876128ed565b612d2060208301866128ed565b612d2d6040830185612cb0565b8181036060830152612d3f818461290b565b905095945050505050565b6000602082019050612d5f60008301846128fc565b92915050565b60006020820190508181036000830152612d7f8184612944565b905092915050565b60006020820190508181036000830152612da0816129ae565b9050919050565b60006020820190508181036000830152612dc0816129d1565b9050919050565b60006020820190508181036000830152612de0816129f4565b9050919050565b60006020820190508181036000830152612e0081612a17565b9050919050565b60006020820190508181036000830152612e2081612a3a565b9050919050565b60006020820190508181036000830152612e4081612a5d565b9050919050565b60006020820190508181036000830152612e6081612a80565b9050919050565b60006020820190508181036000830152612e8081612aa3565b9050919050565b60006020820190508181036000830152612ea081612ac6565b9050919050565b60006020820190508181036000830152612ec081612ae9565b9050919050565b60006020820190508181036000830152612ee081612b0c565b9050919050565b60006020820190508181036000830152612f0081612b2f565b9050919050565b60006020820190508181036000830152612f2081612b52565b9050919050565b60006020820190508181036000830152612f4081612b75565b9050919050565b60006020820190508181036000830152612f6081612b98565b9050919050565b60006020820190508181036000830152612f8081612bbb565b9050919050565b60006020820190508181036000830152612fa081612bde565b9050919050565b60006020820190508181036000830152612fc081612c01565b9050919050565b60006020820190508181036000830152612fe081612c24565b9050919050565b6000602082019050818103600083015261300081612c47565b9050919050565b6000602082019050818103600083015261302081612c6a565b9050919050565b6000602082019050818103600083015261304081612c8d565b9050919050565b600060208201905061305c6000830184612cb0565b92915050565b600061306c61307d565b905061307882826132f8565b919050565b6000604051905090565b600067ffffffffffffffff8211156130a2576130a161348e565b5b6130ab826134d1565b9050602081019050919050565b600081519050919050565b600081519050919050565b600082825260208201905092915050565b600082825260208201905092915050565b600081905092915050565b60006131068261327a565b91506131118361327a565b9250827fffffffffffffffffffffffffffffffffffffffffffffffffffffffffffffffff03821115613146576131456133a3565b5b828201905092915050565b600061315c8261327a565b91506131678361327a565b925082613177576131766133d2565b5b828204905092915050565b600061318d8261327a565b91506131988361327a565b9250817fffffffffffffffffffffffffffffffffffffffffffffffffffffffffffffffff04831182151516156131d1576131d06133a3565b5b828202905092915050565b60006131e78261327a565b91506131f28361327a565b925082821015613205576132046133a3565b5b828203905092915050565b600061321b8261325a565b9050919050565b60008115159050919050565b60007fffffffff0000000000000000000000000000000000000000000000000000000082169050919050565b600073ffffffffffffffffffffffffffffffffffffffff82169050919050565b6000819050919050565b82818337600083830152505050565b60005b838110156132b1578082015181840152602081019050613296565b838111156132c0576000848401525b50505050565b600060028204905060018216806132de57607f821691505b602082108114156132f2576132f1613401565b5b50919050565b613301826134d1565b810181811067ffffffffffffffff821117156133205761331f61348e565b5b80604052505050565b60006133348261327a565b91507fffffffffffffffffffffffffffffffffffffffffffffffffffffffffffffffff821415613367576133666133a3565b5b600182019050919050565b600061337d8261327a565b91506133888361327a565b925082613398576133976133d2565b5b828206905092915050565b7f4e487b7100000000000000000000000000000000000000000000000000000000600052601160045260246000fd5b7f4e487b7100000000000000000000000000000000000000000000000000000000600052601260045260246000fd5b7f4e487b7100000000000000000000000000000000000000000000000000000000600052602260045260246000fd5b7f4e487b7100000000000000000000000000000000000000000000000000000000600052603160045260246000fd5b7f4e487b7100000000000000000000000000000000000000000000000000000000600052603260045260246000fd5b7f4e487b7100000000000000000000000000000000000000000000000000000000600052604160045260246000fd5b600080fd5b600080fd5b600080fd5b600080fd5b6000601f19601f8301169050919050565b7f455243373231456e756d657261626c653a206f776e657220696e646578206f7560008201527f74206f6620626f756e6473000000000000000000000000000000000000000000602082015250565b7f4552433732313a207472616e7366657220746f206e6f6e20455243373231526560008201527f63656976657220696d706c656d656e7465720000000000000000000000000000602082015250565b7f4f776e61626c653a206e6577206f776e657220697320746865207a65726f206160008201527f6464726573730000000000000000000000000000000000000000000000000000602082015250565b7f4552433732313a20746f6b656e20616c7265616479206d696e74656400000000600082015250565b7f45746865722076616c75652073656e7420697320696e636f7272656374000000600082015250565b7f4552433732313a207472616e7366657220746f20746865207a65726f2061646460008201527f7265737300000000000000000000000000000000000000000000000000000000602082015250565b7f4552433732313a20617070726f766520746f2063616c6c657200000000000000600082015250565b7f53616c65206973206e6f74206163746976650000000000000000000000000000600082015250565b7f4552433732313a206f70657261746f7220717565727920666f72206e6f6e657860008201527f697374656e7420746f6b656e0000000000000000000000000000000000000000602082015250565b7f43616e206f6e6c79206d696e7420333020626972647320617420612074696d65600082015250565b7f4552433732313a20617070726f76652063616c6c6572206973206e6f74206f7760008201527f6e6572206e6f7220617070726f76656420666f7220616c6c0000000000000000602082015250565b7f4552433732313a2062616c616e636520717565727920666f7220746865207a6560008201527f726f206164647265737300000000000000000000000000000000000000000000602082015250565b7f4552433732313a206f776e657220717565727920666f72206e6f6e657869737460008201527f656e7420746f6b656e0000000000000000000000000000000000000000000000602082015250565b7f4552433732313a206d696e7420746f20746865207a65726f2061646472657373600082015250565b7f4552433732313a20617070726f76656420717565727920666f72206e6f6e657860008201527f697374656e7420746f6b656e0000000000000000000000000000000000000000602082015250565b7f4f776e61626c653a2063616c6c6572206973206e6f7420746865206f776e6572600082015250565b7f4552433732313a207472616e73666572206f6620746f6b656e2074686174206960008201527f73206e6f74206f776e0000000000000000000000000000000000000000000000602082015250565b7f4552433732314d657461646174613a2055524920717565727920666f72206e6f60008201527f6e6578697374656e7420746f6b656e0000000000000000000000000000000000602082015250565b7f507572636861736520776f756c6420657863656564206d617820737570706c7960008201527f206f662042697264730000000000000000000000000000000000000000000000602082015250565b7f4552433732313a20617070726f76616c20746f2063757272656e74206f776e6560008201527f7200000000000000000000000000000000000000000000000000000000000000602082015250565b7f4552433732313a207472616e736665722063616c6c6572206973206e6f74206f60008201527f776e6572206e6f7220617070726f766564000000000000000000000000000000602082015250565b7f455243373231456e756d657261626c653a20676c6f62616c20696e646578206f60008201527f7574206f6620626f756e64730000000000000000000000000000000000000000602082015250565b613aab81613210565b8114613ab657600080fd5b50565b613ac281613222565b8114613acd57600080fd5b50565b613ad98161322e565b8114613ae457600080fd5b50565b613af08161327a565b8114613afb57600080fd5b5056fea2646970667358221220ae8d2ae8cf413878022cfbc6860793dcff540d003925d472b2cbf6bbb37b541d64736f6c63430008070033",
  "immutableReferences": {},
  "source": "pragma solidity ^0.8.7;\r\n\r\nimport \"@openzeppelin/contracts/token/ERC721/extensions/ERC721Enumerable.sol\";\r\nimport \"@openzeppelin/contracts/access/Ownable.sol\";\r\n\r\ncontract PlayBirdMansion is ERC721Enumerable, Ownable {\r\n  uint public constant maxBirdPurchase = 30;\r\n  uint256 public MAX_BIRDS;\r\n  uint256 public birdPrice = 20000000000000000; // 0.02 ETH\r\n  bool public saleActive = false;\r\n\r\n  constructor (string memory name, string memory symbol, uint256 maxSupply) ERC721(name, symbol) {\r\n      MAX_BIRDS = maxSupply;\r\n  }\r\n\r\n  function withdraw() public onlyOwner {\r\n      uint balance = address(this).balance;\r\n      payable(msg.sender).transfer(balance);\r\n  }\r\n\r\n  function reserveBirds() public onlyOwner {\r\n      uint supply = totalSupply();\r\n      uint i;\r\n      for (i = 0; i < 100; i++) {\r\n          _safeMint(msg.sender, supply + i);\r\n      }\r\n  }\r\n\r\n  function flipSaleState() public onlyOwner {\r\n      saleActive = !saleActive;\r\n  }\r\n\r\n  function mintBird(uint numberOfBirds) public payable {\r\n      require(saleActive, \"Sale is not active\");\r\n      require(numberOfBirds <= maxBirdPurchase, \"Can only mint 30 birds at a time\");\r\n      require(totalSupply() + numberOfBirds <= MAX_BIRDS, \"Purchase would exceed max supply of Birds\");\r\n      require(birdPrice * numberOfBirds <= msg.value, \"Ether value sent is incorrect\");\r\n\r\n      for(uint i = 0; i < numberOfBirds; i++) {\r\n        uint index = totalSupply() + 1;\r\n        if (totalSupply() < MAX_BIRDS) {\r\n            _safeMint(msg.sender, index);\r\n        }\r\n      }\r\n  }\r\n\r\n}\r\n",
  "sourcePath": "/mnt/c/pr0/play-bird-mansion/src/contracts/PlayBirdMansion.sol",
  "compiler": {
    "name": "solc",
    "version": "0.8.7+commit.e28d00a7.Emscripten.clang"
  },
  "schemaVersion": "3.2.3",
  "updatedAt": "2021-09-04T04:24:36.108Z",
  "networkType": "ethereum",
  "devdoc": {
    "kind": "dev",
    "methods": {
      "approve(address,uint256)": {
        "details": "See {IERC721-approve}."
      },
      "balanceOf(address)": {
        "details": "See {IERC721-balanceOf}."
      },
      "getApproved(uint256)": {
        "details": "See {IERC721-getApproved}."
      },
      "isApprovedForAll(address,address)": {
        "details": "See {IERC721-isApprovedForAll}."
      },
      "name()": {
        "details": "See {IERC721Metadata-name}."
      },
      "owner()": {
        "details": "Returns the address of the current owner."
      },
      "ownerOf(uint256)": {
        "details": "See {IERC721-ownerOf}."
      },
      "renounceOwnership()": {
        "details": "Leaves the contract without owner. It will not be possible to call `onlyOwner` functions anymore. Can only be called by the current owner. NOTE: Renouncing ownership will leave the contract without an owner, thereby removing any functionality that is only available to the owner."
      },
      "safeTransferFrom(address,address,uint256)": {
        "details": "See {IERC721-safeTransferFrom}."
      },
      "safeTransferFrom(address,address,uint256,bytes)": {
        "details": "See {IERC721-safeTransferFrom}."
      },
      "setApprovalForAll(address,bool)": {
        "details": "See {IERC721-setApprovalForAll}."
      },
      "supportsInterface(bytes4)": {
        "details": "See {IERC165-supportsInterface}."
      },
      "symbol()": {
        "details": "See {IERC721Metadata-symbol}."
      },
      "tokenByIndex(uint256)": {
        "details": "See {IERC721Enumerable-tokenByIndex}."
      },
      "tokenOfOwnerByIndex(address,uint256)": {
        "details": "See {IERC721Enumerable-tokenOfOwnerByIndex}."
      },
      "tokenURI(uint256)": {
        "details": "See {IERC721Metadata-tokenURI}."
      },
      "totalSupply()": {
        "details": "See {IERC721Enumerable-totalSupply}."
      },
      "transferFrom(address,address,uint256)": {
        "details": "See {IERC721-transferFrom}."
      },
      "transferOwnership(address)": {
        "details": "Transfers ownership of the contract to a new account (`newOwner`). Can only be called by the current owner."
      }
    },
    "version": 1
  },
  "userdoc": {
    "kind": "user",
    "methods": {},
    "version": 1
  }
}