{
  "contractName": "PlayBirdMansion",
  "abi": [
    {
      "inputs": [
        {
          "internalType": "string",
          "name": "name",
          "type": "string"
        },
        {
          "internalType": "string",
          "name": "symbol",
          "type": "string"
        },
        {
          "internalType": "uint256",
          "name": "maxSupply",
          "type": "uint256"
        }
      ],
      "stateMutability": "nonpayable",
      "type": "constructor"
    },
    {
      "anonymous": false,
      "inputs": [
        {
          "indexed": true,
          "internalType": "address",
          "name": "owner",
          "type": "address"
        },
        {
          "indexed": true,
          "internalType": "address",
          "name": "approved",
          "type": "address"
        },
        {
          "indexed": true,
          "internalType": "uint256",
          "name": "tokenId",
          "type": "uint256"
        }
      ],
      "name": "Approval",
      "type": "event"
    },
    {
      "anonymous": false,
      "inputs": [
        {
          "indexed": true,
          "internalType": "address",
          "name": "owner",
          "type": "address"
        },
        {
          "indexed": true,
          "internalType": "address",
          "name": "operator",
          "type": "address"
        },
        {
          "indexed": false,
          "internalType": "bool",
          "name": "approved",
          "type": "bool"
        }
      ],
      "name": "ApprovalForAll",
      "type": "event"
    },
    {
      "anonymous": false,
      "inputs": [
        {
          "indexed": true,
          "internalType": "address",
          "name": "previousOwner",
          "type": "address"
        },
        {
          "indexed": true,
          "internalType": "address",
          "name": "newOwner",
          "type": "address"
        }
      ],
      "name": "OwnershipTransferred",
      "type": "event"
    },
    {
      "anonymous": false,
      "inputs": [
        {
          "indexed": true,
          "internalType": "address",
          "name": "from",
          "type": "address"
        },
        {
          "indexed": true,
          "internalType": "address",
          "name": "to",
          "type": "address"
        },
        {
          "indexed": true,
          "internalType": "uint256",
          "name": "tokenId",
          "type": "uint256"
        }
      ],
      "name": "Transfer",
      "type": "event"
    },
    {
      "inputs": [],
      "name": "MAX_BIRDS",
      "outputs": [
        {
          "internalType": "uint256",
          "name": "",
          "type": "uint256"
        }
      ],
      "stateMutability": "view",
      "type": "function",
      "constant": true
    },
    {
      "inputs": [
        {
          "internalType": "address",
          "name": "to",
          "type": "address"
        },
        {
          "internalType": "uint256",
          "name": "tokenId",
          "type": "uint256"
        }
      ],
      "name": "approve",
      "outputs": [],
      "stateMutability": "nonpayable",
      "type": "function"
    },
    {
      "inputs": [
        {
          "internalType": "address",
          "name": "owner",
          "type": "address"
        }
      ],
      "name": "balanceOf",
      "outputs": [
        {
          "internalType": "uint256",
          "name": "",
          "type": "uint256"
        }
      ],
      "stateMutability": "view",
      "type": "function",
      "constant": true
    },
    {
      "inputs": [],
      "name": "baseURI",
      "outputs": [
        {
          "internalType": "string",
          "name": "",
          "type": "string"
        }
      ],
      "stateMutability": "view",
      "type": "function",
      "constant": true
    },
    {
      "inputs": [],
      "name": "birdPrice",
      "outputs": [
        {
          "internalType": "uint256",
          "name": "",
          "type": "uint256"
        }
      ],
      "stateMutability": "view",
      "type": "function",
      "constant": true
    },
    {
      "inputs": [
        {
          "internalType": "uint256",
          "name": "tokenId",
          "type": "uint256"
        }
      ],
      "name": "getApproved",
      "outputs": [
        {
          "internalType": "address",
          "name": "",
          "type": "address"
        }
      ],
      "stateMutability": "view",
      "type": "function",
      "constant": true
    },
    {
      "inputs": [
        {
          "internalType": "address",
          "name": "owner",
          "type": "address"
        },
        {
          "internalType": "address",
          "name": "operator",
          "type": "address"
        }
      ],
      "name": "isApprovedForAll",
      "outputs": [
        {
          "internalType": "bool",
          "name": "",
          "type": "bool"
        }
      ],
      "stateMutability": "view",
      "type": "function",
      "constant": true
    },
    {
      "inputs": [],
      "name": "maxBirdPurchase",
      "outputs": [
        {
          "internalType": "uint256",
          "name": "",
          "type": "uint256"
        }
      ],
      "stateMutability": "view",
      "type": "function",
      "constant": true
    },
    {
      "inputs": [],
      "name": "name",
      "outputs": [
        {
          "internalType": "string",
          "name": "",
          "type": "string"
        }
      ],
      "stateMutability": "view",
      "type": "function",
      "constant": true
    },
    {
      "inputs": [],
      "name": "owner",
      "outputs": [
        {
          "internalType": "address",
          "name": "",
          "type": "address"
        }
      ],
      "stateMutability": "view",
      "type": "function",
      "constant": true
    },
    {
      "inputs": [
        {
          "internalType": "uint256",
          "name": "tokenId",
          "type": "uint256"
        }
      ],
      "name": "ownerOf",
      "outputs": [
        {
          "internalType": "address",
          "name": "",
          "type": "address"
        }
      ],
      "stateMutability": "view",
      "type": "function",
      "constant": true
    },
    {
      "inputs": [],
      "name": "renounceOwnership",
      "outputs": [],
      "stateMutability": "nonpayable",
      "type": "function"
    },
    {
      "inputs": [
        {
          "internalType": "address",
          "name": "from",
          "type": "address"
        },
        {
          "internalType": "address",
          "name": "to",
          "type": "address"
        },
        {
          "internalType": "uint256",
          "name": "tokenId",
          "type": "uint256"
        }
      ],
      "name": "safeTransferFrom",
      "outputs": [],
      "stateMutability": "nonpayable",
      "type": "function"
    },
    {
      "inputs": [
        {
          "internalType": "address",
          "name": "from",
          "type": "address"
        },
        {
          "internalType": "address",
          "name": "to",
          "type": "address"
        },
        {
          "internalType": "uint256",
          "name": "tokenId",
          "type": "uint256"
        },
        {
          "internalType": "bytes",
          "name": "_data",
          "type": "bytes"
        }
      ],
      "name": "safeTransferFrom",
      "outputs": [],
      "stateMutability": "nonpayable",
      "type": "function"
    },
    {
      "inputs": [],
      "name": "saleActive",
      "outputs": [
        {
          "internalType": "bool",
          "name": "",
          "type": "bool"
        }
      ],
      "stateMutability": "view",
      "type": "function",
      "constant": true
    },
    {
      "inputs": [
        {
          "internalType": "address",
          "name": "operator",
          "type": "address"
        },
        {
          "internalType": "bool",
          "name": "approved",
          "type": "bool"
        }
      ],
      "name": "setApprovalForAll",
      "outputs": [],
      "stateMutability": "nonpayable",
      "type": "function"
    },
    {
      "inputs": [
        {
          "internalType": "bytes4",
          "name": "interfaceId",
          "type": "bytes4"
        }
      ],
      "name": "supportsInterface",
      "outputs": [
        {
          "internalType": "bool",
          "name": "",
          "type": "bool"
        }
      ],
      "stateMutability": "view",
      "type": "function",
      "constant": true
    },
    {
      "inputs": [],
      "name": "symbol",
      "outputs": [
        {
          "internalType": "string",
          "name": "",
          "type": "string"
        }
      ],
      "stateMutability": "view",
      "type": "function",
      "constant": true
    },
    {
      "inputs": [
        {
          "internalType": "uint256",
          "name": "index",
          "type": "uint256"
        }
      ],
      "name": "tokenByIndex",
      "outputs": [
        {
          "internalType": "uint256",
          "name": "",
          "type": "uint256"
        }
      ],
      "stateMutability": "view",
      "type": "function",
      "constant": true
    },
    {
      "inputs": [
        {
          "internalType": "address",
          "name": "owner",
          "type": "address"
        },
        {
          "internalType": "uint256",
          "name": "index",
          "type": "uint256"
        }
      ],
      "name": "tokenOfOwnerByIndex",
      "outputs": [
        {
          "internalType": "uint256",
          "name": "",
          "type": "uint256"
        }
      ],
      "stateMutability": "view",
      "type": "function",
      "constant": true
    },
    {
      "inputs": [
        {
          "internalType": "uint256",
          "name": "tokenId",
          "type": "uint256"
        }
      ],
      "name": "tokenURI",
      "outputs": [
        {
          "internalType": "string",
          "name": "",
          "type": "string"
        }
      ],
      "stateMutability": "view",
      "type": "function",
      "constant": true
    },
    {
      "inputs": [],
      "name": "totalSupply",
      "outputs": [
        {
          "internalType": "uint256",
          "name": "",
          "type": "uint256"
        }
      ],
      "stateMutability": "view",
      "type": "function",
      "constant": true
    },
    {
      "inputs": [
        {
          "internalType": "address",
          "name": "from",
          "type": "address"
        },
        {
          "internalType": "address",
          "name": "to",
          "type": "address"
        },
        {
          "internalType": "uint256",
          "name": "tokenId",
          "type": "uint256"
        }
      ],
      "name": "transferFrom",
      "outputs": [],
      "stateMutability": "nonpayable",
      "type": "function"
    },
    {
      "inputs": [
        {
          "internalType": "address",
          "name": "newOwner",
          "type": "address"
        }
      ],
      "name": "transferOwnership",
      "outputs": [],
      "stateMutability": "nonpayable",
      "type": "function"
    },
    {
      "inputs": [],
      "name": "withdraw",
      "outputs": [],
      "stateMutability": "nonpayable",
      "type": "function"
    },
    {
      "inputs": [
        {
          "internalType": "string",
          "name": "newURI",
          "type": "string"
        }
      ],
      "name": "setURI",
      "outputs": [],
      "stateMutability": "nonpayable",
      "type": "function"
    },
    {
      "inputs": [],
      "name": "reserveBirds",
      "outputs": [],
      "stateMutability": "nonpayable",
      "type": "function"
    },
    {
      "inputs": [],
      "name": "flipSaleState",
      "outputs": [],
      "stateMutability": "nonpayable",
      "type": "function"
    },
    {
      "inputs": [
        {
          "internalType": "uint256",
          "name": "numberOfBirds",
          "type": "uint256"
        }
      ],
      "name": "mintBird",
      "outputs": [],
      "stateMutability": "payable",
      "type": "function",
      "payable": true
    }
  ],
  "bytecode": "0x608060405266470de4df820000600c556000600d60006101000a81548160ff0219169083151502179055503480156200003757600080fd5b50604051620043dd380380620043dd83398181016040528101906200005d9190620002d6565b828281600090805190602001906200007792919062000191565b5080600190805190602001906200009092919062000191565b505050620000b3620000a7620000c360201b60201c565b620000cb60201b60201c565b80600b8190555050505062000518565b600033905090565b6000600a60009054906101000a900473ffffffffffffffffffffffffffffffffffffffff16905081600a60006101000a81548173ffffffffffffffffffffffffffffffffffffffff021916908373ffffffffffffffffffffffffffffffffffffffff1602179055508173ffffffffffffffffffffffffffffffffffffffff168173ffffffffffffffffffffffffffffffffffffffff167f8be0079c531659141344cd1fd0a4f28419497f9722a3daafe3b4186f6b6457e060405160405180910390a35050565b8280546200019f906200040f565b90600052602060002090601f016020900481019282620001c357600085556200020f565b82601f10620001de57805160ff19168380011785556200020f565b828001600101855582156200020f579182015b828111156200020e578251825591602001919060010190620001f1565b5b5090506200021e919062000222565b5090565b5b808211156200023d57600081600090555060010162000223565b5090565b600062000258620002528462000399565b62000370565b905082815260208101848484011115620002775762000276620004de565b5b62000284848285620003d9565b509392505050565b600082601f830112620002a457620002a3620004d9565b5b8151620002b684826020860162000241565b91505092915050565b600081519050620002d081620004fe565b92915050565b600080600060608486031215620002f257620002f1620004e8565b5b600084015167ffffffffffffffff811115620003135762000312620004e3565b5b62000321868287016200028c565b935050602084015167ffffffffffffffff811115620003455762000344620004e3565b5b62000353868287016200028c565b92505060406200036686828701620002bf565b9150509250925092565b60006200037c6200038f565b90506200038a828262000445565b919050565b6000604051905090565b600067ffffffffffffffff821115620003b757620003b6620004aa565b5b620003c282620004ed565b9050602081019050919050565b6000819050919050565b60005b83811015620003f9578082015181840152602081019050620003dc565b8381111562000409576000848401525b50505050565b600060028204905060018216806200042857607f821691505b602082108114156200043f576200043e6200047b565b5b50919050565b6200045082620004ed565b810181811067ffffffffffffffff82111715620004725762000471620004aa565b5b80604052505050565b7f4e487b7100000000000000000000000000000000000000000000000000000000600052602260045260246000fd5b7f4e487b7100000000000000000000000000000000000000000000000000000000600052604160045260246000fd5b600080fd5b600080fd5b600080fd5b600080fd5b6000601f19601f8301169050919050565b6200050981620003cf565b81146200051557600080fd5b50565b613eb580620005286000396000f3fe6080604052600436106101c25760003560e01c806368428a1b116100f7578063a22cb46511610095578063d3e8644011610064578063d3e864401461061c578063e985e9c514610647578063f2fde38b14610684578063ff46973e146106ad576101c2565b8063a22cb46514610576578063ab25b9871461059f578063b88d4fde146105b6578063c87b56dd146105df576101c2565b8063715018a6116100d1578063715018a6146104de5780638da5cb5b146104f55780638e04f5c01461052057806395d89b411461054b576101c2565b806368428a1b1461044b5780636c0360eb1461047657806370a08231146104a1576101c2565b806323b872dd116101645780633ccfd60b1161013e5780633ccfd60b1461039157806342842e0e146103a85780634f6ccce7146103d15780636352211e1461040e576101c2565b806323b872dd146103145780632f745c591461033d57806334918dfd1461037a576101c2565b8063081812fc116101a0578063081812fc14610258578063095ea7b31461029557806318160ddd146102be5780631f73bf7f146102e9576101c2565b806301ffc9a7146101c757806302fe53051461020457806306fdde031461022d575b600080fd5b3480156101d357600080fd5b506101ee60048036038101906101e99190612b6d565b6106c9565b6040516101fb919061309a565b60405180910390f35b34801561021057600080fd5b5061022b60048036038101906102269190612bc7565b610743565b005b34801561023957600080fd5b506102426107d9565b60405161024f91906130b5565b60405180910390f35b34801561026457600080fd5b5061027f600480360381019061027a9190612c10565b61086b565b60405161028c9190613033565b60405180910390f35b3480156102a157600080fd5b506102bc60048036038101906102b79190612b2d565b6108f0565b005b3480156102ca57600080fd5b506102d3610a08565b6040516102e09190613397565b60405180910390f35b3480156102f557600080fd5b506102fe610a15565b60405161030b9190613397565b60405180910390f35b34801561032057600080fd5b5061033b60048036038101906103369190612a17565b610a1a565b005b34801561034957600080fd5b50610364600480360381019061035f9190612b2d565b610a7a565b6040516103719190613397565b60405180910390f35b34801561038657600080fd5b5061038f610b1f565b005b34801561039d57600080fd5b506103a6610bc7565b005b3480156103b457600080fd5b506103cf60048036038101906103ca9190612a17565b610c92565b005b3480156103dd57600080fd5b506103f860048036038101906103f39190612c10565b610cb2565b6040516104059190613397565b60405180910390f35b34801561041a57600080fd5b5061043560048036038101906104309190612c10565b610d23565b6040516104429190613033565b60405180910390f35b34801561045757600080fd5b50610460610dd5565b60405161046d919061309a565b60405180910390f35b34801561048257600080fd5b5061048b610de8565b60405161049891906130b5565b60405180910390f35b3480156104ad57600080fd5b506104c860048036038101906104c391906129aa565b610e76565b6040516104d59190613397565b60405180910390f35b3480156104ea57600080fd5b506104f3610f2e565b005b34801561050157600080fd5b5061050a610fb6565b6040516105179190613033565b60405180910390f35b34801561052c57600080fd5b50610535610fe0565b6040516105429190613397565b60405180910390f35b34801561055757600080fd5b50610560610fe6565b60405161056d91906130b5565b60405180910390f35b34801561058257600080fd5b5061059d60048036038101906105989190612aed565b611078565b005b3480156105ab57600080fd5b506105b46111f9565b005b3480156105c257600080fd5b506105dd60048036038101906105d89190612a6a565b6112ba565b005b3480156105eb57600080fd5b5061060660048036038101906106019190612c10565b61131c565b60405161061391906130b5565b60405180910390f35b34801561062857600080fd5b506106316113c3565b60405161063e9190613397565b60405180910390f35b34801561065357600080fd5b5061066e600480360381019061066991906129d7565b6113c9565b60405161067b919061309a565b60405180910390f35b34801561069057600080fd5b506106ab60048036038101906106a691906129aa565b61145d565b005b6106c760048036038101906106c29190612c10565b611555565b005b60007f780e9d63000000000000000000000000000000000000000000000000000000007bffffffffffffffffffffffffffffffffffffffffffffffffffffffff1916827bffffffffffffffffffffffffffffffffffffffffffffffffffffffff1916148061073c575061073b826116e6565b5b9050919050565b61074b6117c8565b73ffffffffffffffffffffffffffffffffffffffff16610769610fb6565b73ffffffffffffffffffffffffffffffffffffffff16146107bf576040517f08c379a00000000000000000000000000000000000000000000000000000000081526004016107b6906132b7565b60405180910390fd5b80600e90805190602001906107d59291906127be565b5050565b6060600080546107e890613647565b80601f016020809104026020016040519081016040528092919081815260200182805461081490613647565b80156108615780601f1061083657610100808354040283529160200191610861565b820191906000526020600020905b81548152906001019060200180831161084457829003601f168201915b5050505050905090565b6000610876826117d0565b6108b5576040517f08c379a00000000000000000000000000000000000000000000000000000000081526004016108ac90613297565b60405180910390fd5b6004600083815260200190815260200160002060009054906101000a900473ffffffffffffffffffffffffffffffffffffffff169050919050565b60006108fb82610d23565b90508073ffffffffffffffffffffffffffffffffffffffff168373ffffffffffffffffffffffffffffffffffffffff16141561096c576040517f08c379a000000000000000000000000000000000000000000000000000000000815260040161096390613337565b60405180910390fd5b8073ffffffffffffffffffffffffffffffffffffffff1661098b6117c8565b73ffffffffffffffffffffffffffffffffffffffff1614806109ba57506109b9816109b46117c8565b6113c9565b5b6109f9576040517f08c379a00000000000000000000000000000000000000000000000000000000081526004016109f090613217565b60405180910390fd5b610a03838361183c565b505050565b6000600880549050905090565b604581565b610a2b610a256117c8565b826118f5565b610a6a576040517f08c379a0000000000000000000000000000000000000000000000000000000008152600401610a6190613357565b60405180910390fd5b610a758383836119d3565b505050565b6000610a8583610e76565b8210610ac6576040517f08c379a0000000000000000000000000000000000000000000000000000000008152600401610abd906130d7565b60405180910390fd5b600660008473ffffffffffffffffffffffffffffffffffffffff1673ffffffffffffffffffffffffffffffffffffffff168152602001908152602001600020600083815260200190815260200160002054905092915050565b610b276117c8565b73ffffffffffffffffffffffffffffffffffffffff16610b45610fb6565b73ffffffffffffffffffffffffffffffffffffffff1614610b9b576040517f08c379a0000000000000000000000000000000000000000000000000000000008152600401610b92906132b7565b60405180910390fd5b600d60009054906101000a900460ff1615600d60006101000a81548160ff021916908315150217905550565b610bcf6117c8565b73ffffffffffffffffffffffffffffffffffffffff16610bed610fb6565b73ffffffffffffffffffffffffffffffffffffffff1614610c43576040517f08c379a0000000000000000000000000000000000000000000000000000000008152600401610c3a906132b7565b60405180910390fd5b60004790503373ffffffffffffffffffffffffffffffffffffffff166108fc829081150290604051600060405180830381858888f19350505050158015610c8e573d6000803e3d6000fd5b5050565b610cad838383604051806020016040528060008152506112ba565b505050565b6000610cbc610a08565b8210610cfd576040517f08c379a0000000000000000000000000000000000000000000000000000000008152600401610cf490613377565b60405180910390fd5b60088281548110610d1157610d106137e0565b5b90600052602060002001549050919050565b6000806002600084815260200190815260200160002060009054906101000a900473ffffffffffffffffffffffffffffffffffffffff169050600073ffffffffffffffffffffffffffffffffffffffff168173ffffffffffffffffffffffffffffffffffffffff161415610dcc576040517f08c379a0000000000000000000000000000000000000000000000000000000008152600401610dc390613257565b60405180910390fd5b80915050919050565b600d60009054906101000a900460ff1681565b600e8054610df590613647565b80601f0160208091040260200160405190810160405280929190818152602001828054610e2190613647565b8015610e6e5780601f10610e4357610100808354040283529160200191610e6e565b820191906000526020600020905b815481529060010190602001808311610e5157829003601f168201915b505050505081565b60008073ffffffffffffffffffffffffffffffffffffffff168273ffffffffffffffffffffffffffffffffffffffff161415610ee7576040517f08c379a0000000000000000000000000000000000000000000000000000000008152600401610ede90613237565b60405180910390fd5b600360008373ffffffffffffffffffffffffffffffffffffffff1673ffffffffffffffffffffffffffffffffffffffff168152602001908152602001600020549050919050565b610f366117c8565b73ffffffffffffffffffffffffffffffffffffffff16610f54610fb6565b73ffffffffffffffffffffffffffffffffffffffff1614610faa576040517f08c379a0000000000000000000000000000000000000000000000000000000008152600401610fa1906132b7565b60405180910390fd5b610fb46000611c2f565b565b6000600a60009054906101000a900473ffffffffffffffffffffffffffffffffffffffff16905090565b600c5481565b606060018054610ff590613647565b80601f016020809104026020016040519081016040528092919081815260200182805461102190613647565b801561106e5780601f106110435761010080835404028352916020019161106e565b820191906000526020600020905b81548152906001019060200180831161105157829003601f168201915b5050505050905090565b6110806117c8565b73ffffffffffffffffffffffffffffffffffffffff168273ffffffffffffffffffffffffffffffffffffffff1614156110ee576040517f08c379a00000000000000000000000000000000000000000000000000000000081526004016110e590613197565b60405180910390fd5b80600560006110fb6117c8565b73ffffffffffffffffffffffffffffffffffffffff1673ffffffffffffffffffffffffffffffffffffffff16815260200190815260200160002060008473ffffffffffffffffffffffffffffffffffffffff1673ffffffffffffffffffffffffffffffffffffffff16815260200190815260200160002060006101000a81548160ff0219169083151502179055508173ffffffffffffffffffffffffffffffffffffffff166111a86117c8565b73ffffffffffffffffffffffffffffffffffffffff167f17307eab39ab6107e8899845ad3d59bd9653f200f220920489ca2b5937696c31836040516111ed919061309a565b60405180910390a35050565b6112016117c8565b73ffffffffffffffffffffffffffffffffffffffff1661121f610fb6565b73ffffffffffffffffffffffffffffffffffffffff1614611275576040517f08c379a000000000000000000000000000000000000000000000000000000000815260040161126c906132b7565b60405180910390fd5b600061127f610a08565b905060005b60648110156112b6576112a33360018461129e919061347c565b611cf5565b80806112ae906136aa565b915050611284565b5050565b6112cb6112c56117c8565b836118f5565b61130a576040517f08c379a000000000000000000000000000000000000000000000000000000000815260040161130190613357565b60405180910390fd5b61131684848484611d13565b50505050565b6060611327826117d0565b611366576040517f08c379a000000000000000000000000000000000000000000000000000000000815260040161135d906132f7565b60405180910390fd5b6000611370611d6f565b9050600081511161139057604051806020016040528060008152506113bb565b8061139a84611e01565b6040516020016113ab92919061300f565b6040516020818303038152906040525b915050919050565b600b5481565b6000600560008473ffffffffffffffffffffffffffffffffffffffff1673ffffffffffffffffffffffffffffffffffffffff16815260200190815260200160002060008373ffffffffffffffffffffffffffffffffffffffff1673ffffffffffffffffffffffffffffffffffffffff16815260200190815260200160002060009054906101000a900460ff16905092915050565b6114656117c8565b73ffffffffffffffffffffffffffffffffffffffff16611483610fb6565b73ffffffffffffffffffffffffffffffffffffffff16146114d9576040517f08c379a00000000000000000000000000000000000000000000000000000000081526004016114d0906132b7565b60405180910390fd5b600073ffffffffffffffffffffffffffffffffffffffff168173ffffffffffffffffffffffffffffffffffffffff161415611549576040517f08c379a000000000000000000000000000000000000000000000000000000000815260040161154090613117565b60405180910390fd5b61155281611c2f565b50565b600d60009054906101000a900460ff166115a4576040517f08c379a000000000000000000000000000000000000000000000000000000000815260040161159b906131b7565b60405180910390fd5b60458111156115e8576040517f08c379a00000000000000000000000000000000000000000000000000000000081526004016115df906131f7565b60405180910390fd5b600b54816115f4610a08565b6115fe919061347c565b111561163f576040517f08c379a000000000000000000000000000000000000000000000000000000000815260040161163690613317565b60405180910390fd5b3481600c5461164e9190613503565b111561168f576040517f08c379a000000000000000000000000000000000000000000000000000000000815260040161168690613157565b60405180910390fd5b60005b818110156116e257600060016116a6610a08565b6116b0919061347c565b9050600b546116bd610a08565b10156116ce576116cd3382611cf5565b5b5080806116da906136aa565b915050611692565b5050565b60007f80ac58cd000000000000000000000000000000000000000000000000000000007bffffffffffffffffffffffffffffffffffffffffffffffffffffffff1916827bffffffffffffffffffffffffffffffffffffffffffffffffffffffff191614806117b157507f5b5e139f000000000000000000000000000000000000000000000000000000007bffffffffffffffffffffffffffffffffffffffffffffffffffffffff1916827bffffffffffffffffffffffffffffffffffffffffffffffffffffffff1916145b806117c157506117c082611f62565b5b9050919050565b600033905090565b60008073ffffffffffffffffffffffffffffffffffffffff166002600084815260200190815260200160002060009054906101000a900473ffffffffffffffffffffffffffffffffffffffff1673ffffffffffffffffffffffffffffffffffffffff1614159050919050565b816004600083815260200190815260200160002060006101000a81548173ffffffffffffffffffffffffffffffffffffffff021916908373ffffffffffffffffffffffffffffffffffffffff160217905550808273ffffffffffffffffffffffffffffffffffffffff166118af83610d23565b73ffffffffffffffffffffffffffffffffffffffff167f8c5be1e5ebec7d5bd14f71427d1e84f3dd0314c0f7b2291e5b200ac8c7c3b92560405160405180910390a45050565b6000611900826117d0565b61193f576040517f08c379a0000000000000000000000000000000000000000000000000000000008152600401611936906131d7565b60405180910390fd5b600061194a83610d23565b90508073ffffffffffffffffffffffffffffffffffffffff168473ffffffffffffffffffffffffffffffffffffffff1614806119b957508373ffffffffffffffffffffffffffffffffffffffff166119a18461086b565b73ffffffffffffffffffffffffffffffffffffffff16145b806119ca57506119c981856113c9565b5b91505092915050565b8273ffffffffffffffffffffffffffffffffffffffff166119f382610d23565b73ffffffffffffffffffffffffffffffffffffffff1614611a49576040517f08c379a0000000000000000000000000000000000000000000000000000000008152600401611a40906132d7565b60405180910390fd5b600073ffffffffffffffffffffffffffffffffffffffff168273ffffffffffffffffffffffffffffffffffffffff161415611ab9576040517f08c379a0000000000000000000000000000000000000000000000000000000008152600401611ab090613177565b60405180910390fd5b611ac4838383611fcc565b611acf60008261183c565b6001600360008573ffffffffffffffffffffffffffffffffffffffff1673ffffffffffffffffffffffffffffffffffffffff1681526020019081526020016000206000828254611b1f919061355d565b925050819055506001600360008473ffffffffffffffffffffffffffffffffffffffff1673ffffffffffffffffffffffffffffffffffffffff1681526020019081526020016000206000828254611b76919061347c565b92505081905550816002600083815260200190815260200160002060006101000a81548173ffffffffffffffffffffffffffffffffffffffff021916908373ffffffffffffffffffffffffffffffffffffffff160217905550808273ffffffffffffffffffffffffffffffffffffffff168473ffffffffffffffffffffffffffffffffffffffff167fddf252ad1be2c89b69c2b068fc378daa952ba7f163c4a11628f55a4df523b3ef60405160405180910390a4505050565b6000600a60009054906101000a900473ffffffffffffffffffffffffffffffffffffffff16905081600a60006101000a81548173ffffffffffffffffffffffffffffffffffffffff021916908373ffffffffffffffffffffffffffffffffffffffff1602179055508173ffffffffffffffffffffffffffffffffffffffff168173ffffffffffffffffffffffffffffffffffffffff167f8be0079c531659141344cd1fd0a4f28419497f9722a3daafe3b4186f6b6457e060405160405180910390a35050565b611d0f8282604051806020016040528060008152506120e0565b5050565b611d1e8484846119d3565b611d2a8484848461213b565b611d69576040517f08c379a0000000000000000000000000000000000000000000000000000000008152600401611d60906130f7565b60405180910390fd5b50505050565b6060600e8054611d7e90613647565b80601f0160208091040260200160405190810160405280929190818152602001828054611daa90613647565b8015611df75780601f10611dcc57610100808354040283529160200191611df7565b820191906000526020600020905b815481529060010190602001808311611dda57829003601f168201915b5050505050905090565b60606000821415611e49576040518060400160405280600181526020017f30000000000000000000000000000000000000000000000000000000000000008152509050611f5d565b600082905060005b60008214611e7b578080611e64906136aa565b915050600a82611e7491906134d2565b9150611e51565b60008167ffffffffffffffff811115611e9757611e9661380f565b5b6040519080825280601f01601f191660200182016040528015611ec95781602001600182028036833780820191505090505b5090505b60008514611f5657600182611ee2919061355d565b9150600a85611ef191906136f3565b6030611efd919061347c565b60f81b818381518110611f1357611f126137e0565b5b60200101907effffffffffffffffffffffffffffffffffffffffffffffffffffffffffffff1916908160001a905350600a85611f4f91906134d2565b9450611ecd565b8093505050505b919050565b60007f01ffc9a7000000000000000000000000000000000000000000000000000000007bffffffffffffffffffffffffffffffffffffffffffffffffffffffff1916827bffffffffffffffffffffffffffffffffffffffffffffffffffffffff1916149050919050565b611fd78383836122d2565b600073ffffffffffffffffffffffffffffffffffffffff168373ffffffffffffffffffffffffffffffffffffffff16141561201a57612015816122d7565b612059565b8173ffffffffffffffffffffffffffffffffffffffff168373ffffffffffffffffffffffffffffffffffffffff1614612058576120578382612320565b5b5b600073ffffffffffffffffffffffffffffffffffffffff168273ffffffffffffffffffffffffffffffffffffffff16141561209c576120978161248d565b6120db565b8273ffffffffffffffffffffffffffffffffffffffff168273ffffffffffffffffffffffffffffffffffffffff16146120da576120d9828261255e565b5b5b505050565b6120ea83836125dd565b6120f7600084848461213b565b612136576040517f08c379a000000000000000000000000000000000000000000000000000000000815260040161212d906130f7565b60405180910390fd5b505050565b600061215c8473ffffffffffffffffffffffffffffffffffffffff166127ab565b156122c5578373ffffffffffffffffffffffffffffffffffffffff1663150b7a026121856117c8565b8786866040518563ffffffff1660e01b81526004016121a7949392919061304e565b602060405180830381600087803b1580156121c157600080fd5b505af19250505080156121f257506040513d601f19601f820116820180604052508101906121ef9190612b9a565b60015b612275573d8060008114612222576040519150601f19603f3d011682016040523d82523d6000602084013e612227565b606091505b5060008151141561226d576040517f08c379a0000000000000000000000000000000000000000000000000000000008152600401612264906130f7565b60405180910390fd5b805181602001fd5b63150b7a0260e01b7bffffffffffffffffffffffffffffffffffffffffffffffffffffffff1916817bffffffffffffffffffffffffffffffffffffffffffffffffffffffff1916149150506122ca565b600190505b949350505050565b505050565b6008805490506009600083815260200190815260200160002081905550600881908060018154018082558091505060019003906000526020600020016000909190919091505550565b6000600161232d84610e76565b612337919061355d565b905060006007600084815260200190815260200160002054905081811461241c576000600660008673ffffffffffffffffffffffffffffffffffffffff1673ffffffffffffffffffffffffffffffffffffffff168152602001908152602001600020600084815260200190815260200160002054905080600660008773ffffffffffffffffffffffffffffffffffffffff1673ffffffffffffffffffffffffffffffffffffffff168152602001908152602001600020600084815260200190815260200160002081905550816007600083815260200190815260200160002081905550505b6007600084815260200190815260200160002060009055600660008573ffffffffffffffffffffffffffffffffffffffff1673ffffffffffffffffffffffffffffffffffffffff16815260200190815260200160002060008381526020019081526020016000206000905550505050565b600060016008805490506124a1919061355d565b90506000600960008481526020019081526020016000205490506000600883815481106124d1576124d06137e0565b5b9060005260206000200154905080600883815481106124f3576124f26137e0565b5b906000526020600020018190555081600960008381526020019081526020016000208190555060096000858152602001908152602001600020600090556008805480612542576125416137b1565b5b6001900381819060005260206000200160009055905550505050565b600061256983610e76565b905081600660008573ffffffffffffffffffffffffffffffffffffffff1673ffffffffffffffffffffffffffffffffffffffff168152602001908152602001600020600083815260200190815260200160002081905550806007600084815260200190815260200160002081905550505050565b600073ffffffffffffffffffffffffffffffffffffffff168273ffffffffffffffffffffffffffffffffffffffff16141561264d576040517f08c379a000000000000000000000000000000000000000000000000000000000815260040161264490613277565b60405180910390fd5b612656816117d0565b15612696576040517f08c379a000000000000000000000000000000000000000000000000000000000815260040161268d90613137565b60405180910390fd5b6126a260008383611fcc565b6001600360008473ffffffffffffffffffffffffffffffffffffffff1673ffffffffffffffffffffffffffffffffffffffff16815260200190815260200160002060008282546126f2919061347c565b92505081905550816002600083815260200190815260200160002060006101000a81548173ffffffffffffffffffffffffffffffffffffffff021916908373ffffffffffffffffffffffffffffffffffffffff160217905550808273ffffffffffffffffffffffffffffffffffffffff16600073ffffffffffffffffffffffffffffffffffffffff167fddf252ad1be2c89b69c2b068fc378daa952ba7f163c4a11628f55a4df523b3ef60405160405180910390a45050565b600080823b905060008111915050919050565b8280546127ca90613647565b90600052602060002090601f0160209004810192826127ec5760008555612833565b82601f1061280557805160ff1916838001178555612833565b82800160010185558215612833579182015b82811115612832578251825591602001919060010190612817565b5b5090506128409190612844565b5090565b5b8082111561285d576000816000905550600101612845565b5090565b600061287461286f846133d7565b6133b2565b9050828152602081018484840111156128905761288f613843565b5b61289b848285613605565b509392505050565b60006128b66128b184613408565b6133b2565b9050828152602081018484840111156128d2576128d1613843565b5b6128dd848285613605565b509392505050565b6000813590506128f481613e23565b92915050565b60008135905061290981613e3a565b92915050565b60008135905061291e81613e51565b92915050565b60008151905061293381613e51565b92915050565b600082601f83011261294e5761294d61383e565b5b813561295e848260208601612861565b91505092915050565b600082601f83011261297c5761297b61383e565b5b813561298c8482602086016128a3565b91505092915050565b6000813590506129a481613e68565b92915050565b6000602082840312156129c0576129bf61384d565b5b60006129ce848285016128e5565b91505092915050565b600080604083850312156129ee576129ed61384d565b5b60006129fc858286016128e5565b9250506020612a0d858286016128e5565b9150509250929050565b600080600060608486031215612a3057612a2f61384d565b5b6000612a3e868287016128e5565b9350506020612a4f868287016128e5565b9250506040612a6086828701612995565b9150509250925092565b60008060008060808587031215612a8457612a8361384d565b5b6000612a92878288016128e5565b9450506020612aa3878288016128e5565b9350506040612ab487828801612995565b925050606085013567ffffffffffffffff811115612ad557612ad4613848565b5b612ae187828801612939565b91505092959194509250565b60008060408385031215612b0457612b0361384d565b5b6000612b12858286016128e5565b9250506020612b23858286016128fa565b9150509250929050565b60008060408385031215612b4457612b4361384d565b5b6000612b52858286016128e5565b9250506020612b6385828601612995565b9150509250929050565b600060208284031215612b8357612b8261384d565b5b6000612b918482850161290f565b91505092915050565b600060208284031215612bb057612baf61384d565b5b6000612bbe84828501612924565b91505092915050565b600060208284031215612bdd57612bdc61384d565b5b600082013567ffffffffffffffff811115612bfb57612bfa613848565b5b612c0784828501612967565b91505092915050565b600060208284031215612c2657612c2561384d565b5b6000612c3484828501612995565b91505092915050565b612c4681613591565b82525050565b612c55816135a3565b82525050565b6000612c6682613439565b612c70818561344f565b9350612c80818560208601613614565b612c8981613852565b840191505092915050565b6000612c9f82613444565b612ca98185613460565b9350612cb9818560208601613614565b612cc281613852565b840191505092915050565b6000612cd882613444565b612ce28185613471565b9350612cf2818560208601613614565b80840191505092915050565b6000612d0b602b83613460565b9150612d1682613863565b604082019050919050565b6000612d2e603283613460565b9150612d39826138b2565b604082019050919050565b6000612d51602683613460565b9150612d5c82613901565b604082019050919050565b6000612d74601c83613460565b9150612d7f82613950565b602082019050919050565b6000612d97601d83613460565b9150612da282613979565b602082019050919050565b6000612dba602483613460565b9150612dc5826139a2565b604082019050919050565b6000612ddd601983613460565b9150612de8826139f1565b602082019050919050565b6000612e00601283613460565b9150612e0b82613a1a565b602082019050919050565b6000612e23602c83613460565b9150612e2e82613a43565b604082019050919050565b6000612e46602083613460565b9150612e5182613a92565b602082019050919050565b6000612e69603883613460565b9150612e7482613abb565b604082019050919050565b6000612e8c602a83613460565b9150612e9782613b0a565b604082019050919050565b6000612eaf602983613460565b9150612eba82613b59565b604082019050919050565b6000612ed2602083613460565b9150612edd82613ba8565b602082019050919050565b6000612ef5602c83613460565b9150612f0082613bd1565b604082019050919050565b6000612f18602083613460565b9150612f2382613c20565b602082019050919050565b6000612f3b602983613460565b9150612f4682613c49565b604082019050919050565b6000612f5e602f83613460565b9150612f6982613c98565b604082019050919050565b6000612f81602983613460565b9150612f8c82613ce7565b604082019050919050565b6000612fa4602183613460565b9150612faf82613d36565b604082019050919050565b6000612fc7603183613460565b9150612fd282613d85565b604082019050919050565b6000612fea602c83613460565b9150612ff582613dd4565b604082019050919050565b613009816135fb565b82525050565b600061301b8285612ccd565b91506130278284612ccd565b91508190509392505050565b60006020820190506130486000830184612c3d565b92915050565b60006080820190506130636000830187612c3d565b6130706020830186612c3d565b61307d6040830185613000565b818103606083015261308f8184612c5b565b905095945050505050565b60006020820190506130af6000830184612c4c565b92915050565b600060208201905081810360008301526130cf8184612c94565b905092915050565b600060208201905081810360008301526130f081612cfe565b9050919050565b6000602082019050818103600083015261311081612d21565b9050919050565b6000602082019050818103600083015261313081612d44565b9050919050565b6000602082019050818103600083015261315081612d67565b9050919050565b6000602082019050818103600083015261317081612d8a565b9050919050565b6000602082019050818103600083015261319081612dad565b9050919050565b600060208201905081810360008301526131b081612dd0565b9050919050565b600060208201905081810360008301526131d081612df3565b9050919050565b600060208201905081810360008301526131f081612e16565b9050919050565b6000602082019050818103600083015261321081612e39565b9050919050565b6000602082019050818103600083015261323081612e5c565b9050919050565b6000602082019050818103600083015261325081612e7f565b9050919050565b6000602082019050818103600083015261327081612ea2565b9050919050565b6000602082019050818103600083015261329081612ec5565b9050919050565b600060208201905081810360008301526132b081612ee8565b9050919050565b600060208201905081810360008301526132d081612f0b565b9050919050565b600060208201905081810360008301526132f081612f2e565b9050919050565b6000602082019050818103600083015261331081612f51565b9050919050565b6000602082019050818103600083015261333081612f74565b9050919050565b6000602082019050818103600083015261335081612f97565b9050919050565b6000602082019050818103600083015261337081612fba565b9050919050565b6000602082019050818103600083015261339081612fdd565b9050919050565b60006020820190506133ac6000830184613000565b92915050565b60006133bc6133cd565b90506133c88282613679565b919050565b6000604051905090565b600067ffffffffffffffff8211156133f2576133f161380f565b5b6133fb82613852565b9050602081019050919050565b600067ffffffffffffffff8211156134235761342261380f565b5b61342c82613852565b9050602081019050919050565b600081519050919050565b600081519050919050565b600082825260208201905092915050565b600082825260208201905092915050565b600081905092915050565b6000613487826135fb565b9150613492836135fb565b9250827fffffffffffffffffffffffffffffffffffffffffffffffffffffffffffffffff038211156134c7576134c6613724565b5b828201905092915050565b60006134dd826135fb565b91506134e8836135fb565b9250826134f8576134f7613753565b5b828204905092915050565b600061350e826135fb565b9150613519836135fb565b9250817fffffffffffffffffffffffffffffffffffffffffffffffffffffffffffffffff048311821515161561355257613551613724565b5b828202905092915050565b6000613568826135fb565b9150613573836135fb565b92508282101561358657613585613724565b5b828203905092915050565b600061359c826135db565b9050919050565b60008115159050919050565b60007fffffffff0000000000000000000000000000000000000000000000000000000082169050919050565b600073ffffffffffffffffffffffffffffffffffffffff82169050919050565b6000819050919050565b82818337600083830152505050565b60005b83811015613632578082015181840152602081019050613617565b83811115613641576000848401525b50505050565b6000600282049050600182168061365f57607f821691505b6020821081141561367357613672613782565b5b50919050565b61368282613852565b810181811067ffffffffffffffff821117156136a1576136a061380f565b5b80604052505050565b60006136b5826135fb565b91507fffffffffffffffffffffffffffffffffffffffffffffffffffffffffffffffff8214156136e8576136e7613724565b5b600182019050919050565b60006136fe826135fb565b9150613709836135fb565b92508261371957613718613753565b5b828206905092915050565b7f4e487b7100000000000000000000000000000000000000000000000000000000600052601160045260246000fd5b7f4e487b7100000000000000000000000000000000000000000000000000000000600052601260045260246000fd5b7f4e487b7100000000000000000000000000000000000000000000000000000000600052602260045260246000fd5b7f4e487b7100000000000000000000000000000000000000000000000000000000600052603160045260246000fd5b7f4e487b7100000000000000000000000000000000000000000000000000000000600052603260045260246000fd5b7f4e487b7100000000000000000000000000000000000000000000000000000000600052604160045260246000fd5b600080fd5b600080fd5b600080fd5b600080fd5b6000601f19601f8301169050919050565b7f455243373231456e756d657261626c653a206f776e657220696e646578206f7560008201527f74206f6620626f756e6473000000000000000000000000000000000000000000602082015250565b7f4552433732313a207472616e7366657220746f206e6f6e20455243373231526560008201527f63656976657220696d706c656d656e7465720000000000000000000000000000602082015250565b7f4f776e61626c653a206e6577206f776e657220697320746865207a65726f206160008201527f6464726573730000000000000000000000000000000000000000000000000000602082015250565b7f4552433732313a20746f6b656e20616c7265616479206d696e74656400000000600082015250565b7f45746865722076616c75652073656e7420697320696e636f7272656374000000600082015250565b7f4552433732313a207472616e7366657220746f20746865207a65726f2061646460008201527f7265737300000000000000000000000000000000000000000000000000000000602082015250565b7f4552433732313a20617070726f766520746f2063616c6c657200000000000000600082015250565b7f53616c65206973206e6f74206163746976650000000000000000000000000000600082015250565b7f4552433732313a206f70657261746f7220717565727920666f72206e6f6e657860008201527f697374656e7420746f6b656e0000000000000000000000000000000000000000602082015250565b7f43616e206f6e6c79206d696e7420333020626972647320617420612074696d65600082015250565b7f4552433732313a20617070726f76652063616c6c6572206973206e6f74206f7760008201527f6e6572206e6f7220617070726f76656420666f7220616c6c0000000000000000602082015250565b7f4552433732313a2062616c616e636520717565727920666f7220746865207a6560008201527f726f206164647265737300000000000000000000000000000000000000000000602082015250565b7f4552433732313a206f776e657220717565727920666f72206e6f6e657869737460008201527f656e7420746f6b656e0000000000000000000000000000000000000000000000602082015250565b7f4552433732313a206d696e7420746f20746865207a65726f2061646472657373600082015250565b7f4552433732313a20617070726f76656420717565727920666f72206e6f6e657860008201527f697374656e7420746f6b656e0000000000000000000000000000000000000000602082015250565b7f4f776e61626c653a2063616c6c6572206973206e6f7420746865206f776e6572600082015250565b7f4552433732313a207472616e73666572206f6620746f6b656e2074686174206960008201527f73206e6f74206f776e0000000000000000000000000000000000000000000000602082015250565b7f4552433732314d657461646174613a2055524920717565727920666f72206e6f60008201527f6e6578697374656e7420746f6b656e0000000000000000000000000000000000602082015250565b7f507572636861736520776f756c6420657863656564206d617820737570706c7960008201527f206f662042697264730000000000000000000000000000000000000000000000602082015250565b7f4552433732313a20617070726f76616c20746f2063757272656e74206f776e6560008201527f7200000000000000000000000000000000000000000000000000000000000000602082015250565b7f4552433732313a207472616e736665722063616c6c6572206973206e6f74206f60008201527f776e6572206e6f7220617070726f766564000000000000000000000000000000602082015250565b7f455243373231456e756d657261626c653a20676c6f62616c20696e646578206f60008201527f7574206f6620626f756e64730000000000000000000000000000000000000000602082015250565b613e2c81613591565b8114613e3757600080fd5b50565b613e43816135a3565b8114613e4e57600080fd5b50565b613e5a816135af565b8114613e6557600080fd5b50565b613e71816135fb565b8114613e7c57600080fd5b5056fea2646970667358221220c398d1bc9a502a5c85d355af2ea4d3574e6209f21ee7162b287b594c24f5896064736f6c63430008070033",
  "immutableReferences": {},
  "source": "pragma solidity ^0.8.7;\r\n\r\nimport \"@openzeppelin/contracts/token/ERC721/extensions/ERC721Enumerable.sol\";\r\nimport \"@openzeppelin/contracts/access/Ownable.sol\";\r\n\r\ncontract PlayBirdMansion is ERC721Enumerable, Ownable {\r\n  uint public constant maxBirdPurchase = 69;\r\n  uint256 public MAX_BIRDS;\r\n  uint256 public birdPrice = 20000000000000000; // 0.02 ETH\r\n  bool public saleActive = false;\r\n  string public baseURI;\r\n\r\n  constructor (string memory name, string memory symbol, uint256 maxSupply) ERC721(name, symbol) {\r\n      MAX_BIRDS = maxSupply;\r\n  }\r\n\r\n  function withdraw() public onlyOwner {\r\n      uint balance = address(this).balance;\r\n      payable(msg.sender).transfer(balance);\r\n  }\r\n\r\n  function setURI(string memory newURI) public onlyOwner {\r\n      baseURI = newURI;\r\n  }\r\n\r\n  function _baseURI() internal view override returns (string memory) {\r\n      return baseURI;\r\n  }\r\n\r\n  function reserveBirds() public onlyOwner {\r\n      uint supply = totalSupply();\r\n      for (uint i = 0; i < 100; i++) {\r\n          _safeMint(msg.sender, supply + 1);\r\n      }\r\n  }\r\n\r\n  function flipSaleState() public onlyOwner {\r\n      saleActive = !saleActive;\r\n  }\r\n\r\n  function mintBird(uint numberOfBirds) public payable {\r\n      require(saleActive, \"Sale is not active\");\r\n      require(numberOfBirds <= maxBirdPurchase, \"Can only mint 30 birds at a time\");\r\n      require(totalSupply() + numberOfBirds <= MAX_BIRDS, \"Purchase would exceed max supply of Birds\");\r\n      require(birdPrice * numberOfBirds <= msg.value, \"Ether value sent is incorrect\");\r\n\r\n      for(uint i = 0; i < numberOfBirds; i++) {\r\n        uint index = totalSupply() + 1;\r\n        if (totalSupply() < MAX_BIRDS) {\r\n            _safeMint(msg.sender, index);\r\n        }\r\n      }\r\n  }\r\n\r\n}\r\n",
  "sourcePath": "/mnt/c/pr0/play-bird-mansion/src/contracts/PlayBirdMansion.sol",
  "compiler": {
    "name": "solc",
    "version": "0.8.7+commit.e28d00a7.Emscripten.clang"
  },
  "schemaVersion": "3.2.3",
  "updatedAt": "2021-09-08T12:51:17.476Z",
  "networkType": "ethereum",
  "devdoc": {
    "kind": "dev",
    "methods": {
      "approve(address,uint256)": {
        "details": "See {IERC721-approve}."
      },
      "balanceOf(address)": {
        "details": "See {IERC721-balanceOf}."
      },
      "getApproved(uint256)": {
        "details": "See {IERC721-getApproved}."
      },
      "isApprovedForAll(address,address)": {
        "details": "See {IERC721-isApprovedForAll}."
      },
      "name()": {
        "details": "See {IERC721Metadata-name}."
      },
      "owner()": {
        "details": "Returns the address of the current owner."
      },
      "ownerOf(uint256)": {
        "details": "See {IERC721-ownerOf}."
      },
      "renounceOwnership()": {
        "details": "Leaves the contract without owner. It will not be possible to call `onlyOwner` functions anymore. Can only be called by the current owner. NOTE: Renouncing ownership will leave the contract without an owner, thereby removing any functionality that is only available to the owner."
      },
      "safeTransferFrom(address,address,uint256)": {
        "details": "See {IERC721-safeTransferFrom}."
      },
      "safeTransferFrom(address,address,uint256,bytes)": {
        "details": "See {IERC721-safeTransferFrom}."
      },
      "setApprovalForAll(address,bool)": {
        "details": "See {IERC721-setApprovalForAll}."
      },
      "supportsInterface(bytes4)": {
        "details": "See {IERC165-supportsInterface}."
      },
      "symbol()": {
        "details": "See {IERC721Metadata-symbol}."
      },
      "tokenByIndex(uint256)": {
        "details": "See {IERC721Enumerable-tokenByIndex}."
      },
      "tokenOfOwnerByIndex(address,uint256)": {
        "details": "See {IERC721Enumerable-tokenOfOwnerByIndex}."
      },
      "tokenURI(uint256)": {
        "details": "See {IERC721Metadata-tokenURI}."
      },
      "totalSupply()": {
        "details": "See {IERC721Enumerable-totalSupply}."
      },
      "transferFrom(address,address,uint256)": {
        "details": "See {IERC721-transferFrom}."
      },
      "transferOwnership(address)": {
        "details": "Transfers ownership of the contract to a new account (`newOwner`). Can only be called by the current owner."
      }
    },
    "version": 1
  },
  "userdoc": {
    "kind": "user",
    "methods": {},
    "version": 1
  }
}